{"abi":[{"type":"function","name":"NO_ERROR","inputs":[],"outputs":[{"name":"","type":"uint256","internalType":"uint256"}],"stateMutability":"view"},{"type":"error","name":"AcceptAdminPendingAdminCheck","inputs":[]},{"type":"error","name":"AddReservesFactorFreshCheck","inputs":[{"name":"actualAddAmount","type":"uint256","internalType":"uint256"}]},{"type":"error","name":"BorrowCashNotAvailable","inputs":[]},{"type":"error","name":"BorrowComptrollerRejection","inputs":[{"name":"errorCode","type":"uint256","internalType":"uint256"}]},{"type":"error","name":"BorrowFreshnessCheck","inputs":[]},{"type":"error","name":"LiquidateAccrueBorrowInterestFailed","inputs":[{"name":"errorCode","type":"uint256","internalType":"uint256"}]},{"type":"error","name":"LiquidateAccrueCollateralInterestFailed","inputs":[{"name":"errorCode","type":"uint256","internalType":"uint256"}]},{"type":"error","name":"LiquidateCloseAmountIsUintMax","inputs":[]},{"type":"error","name":"LiquidateCloseAmountIsZero","inputs":[]},{"type":"error","name":"LiquidateCollateralFreshnessCheck","inputs":[]},{"type":"error","name":"LiquidateComptrollerRejection","inputs":[{"name":"errorCode","type":"uint256","internalType":"uint256"}]},{"type":"error","name":"LiquidateFreshnessCheck","inputs":[]},{"type":"error","name":"LiquidateLiquidatorIsBorrower","inputs":[]},{"type":"error","name":"LiquidateRepayBorrowFreshFailed","inputs":[{"name":"errorCode","type":"uint256","internalType":"uint256"}]},{"type":"error","name":"LiquidateSeizeComptrollerRejection","inputs":[{"name":"errorCode","type":"uint256","internalType":"uint256"}]},{"type":"error","name":"LiquidateSeizeLiquidatorIsBorrower","inputs":[]},{"type":"error","name":"MintComptrollerRejection","inputs":[{"name":"errorCode","type":"uint256","internalType":"uint256"}]},{"type":"error","name":"MintFreshnessCheck","inputs":[]},{"type":"error","name":"RedeemComptrollerRejection","inputs":[{"name":"errorCode","type":"uint256","internalType":"uint256"}]},{"type":"error","name":"RedeemFreshnessCheck","inputs":[]},{"type":"error","name":"RedeemTransferOutNotPossible","inputs":[]},{"type":"error","name":"ReduceReservesAdminCheck","inputs":[]},{"type":"error","name":"ReduceReservesCashNotAvailable","inputs":[]},{"type":"error","name":"ReduceReservesCashValidation","inputs":[]},{"type":"error","name":"ReduceReservesFreshCheck","inputs":[]},{"type":"error","name":"RepayBorrowComptrollerRejection","inputs":[{"name":"errorCode","type":"uint256","internalType":"uint256"}]},{"type":"error","name":"RepayBorrowFreshnessCheck","inputs":[]},{"type":"error","name":"SetComptrollerOwnerCheck","inputs":[]},{"type":"error","name":"SetInterestRateModelFreshCheck","inputs":[]},{"type":"error","name":"SetInterestRateModelOwnerCheck","inputs":[]},{"type":"error","name":"SetPendingAdminOwnerCheck","inputs":[]},{"type":"error","name":"SetReserveFactorAdminCheck","inputs":[]},{"type":"error","name":"SetReserveFactorBoundsCheck","inputs":[]},{"type":"error","name":"SetReserveFactorFreshCheck","inputs":[]},{"type":"error","name":"TransferComptrollerRejection","inputs":[{"name":"errorCode","type":"uint256","internalType":"uint256"}]},{"type":"error","name":"TransferNotAllowed","inputs":[]},{"type":"error","name":"TransferNotEnough","inputs":[]},{"type":"error","name":"TransferTooMuch","inputs":[]}],"bytecode":{"object":"0x6080604052348015600f57600080fd5b50607c8061001e6000396000f3fe6080604052348015600f57600080fd5b506004361060285760003560e01c806369ab325014602d575b600080fd5b6034600081565b60405190815260200160405180910390f3fea26469706673582212204ffdca617bd6c00531235b4ba88f8164d6170e2745402b52d1906f3ba88d57c764736f6c634300080a0033","linkReferences":{}},"methodIdentifiers":{"NO_ERROR()":"69ab3250"},"id":16}