{"abi":[{"type":"function","name":"admin","inputs":[],"outputs":[{"name":"","type":"address","internalType":"address"}],"stateMutability":"view"},{"type":"function","name":"comptrollerImplementation","inputs":[],"outputs":[{"name":"","type":"address","internalType":"address"}],"stateMutability":"view"},{"type":"function","name":"pendingAdmin","inputs":[],"outputs":[{"name":"","type":"address","internalType":"address"}],"stateMutability":"view"},{"type":"function","name":"pendingComptrollerImplementation","inputs":[],"outputs":[{"name":"","type":"address","internalType":"address"}],"stateMutability":"view"}],"bytecode":{"object":"0x608060405234801561001057600080fd5b5060e58061001f6000396000f3fe6080604052348015600f57600080fd5b506004361060465760003560e01c80632678224714604b578063bb82aa5e146079578063dcfbc0c714608b578063f851a44014609d575b600080fd5b600154605d906001600160a01b031681565b6040516001600160a01b03909116815260200160405180910390f35b600254605d906001600160a01b031681565b600354605d906001600160a01b031681565b600054605d906001600160a01b03168156fea2646970667358221220206854affa1e7b277cb31ff3914ec7ec542b212a6331969165bdb9027e066f7464736f6c634300080a0033","linkReferences":{}},"methodIdentifiers":{"admin()":"f851a440","comptrollerImplementation()":"bb82aa5e","pendingAdmin()":"26782247","pendingComptrollerImplementation()":"dcfbc0c7"},"id":12}