{"abi":[{"type":"constructor","inputs":[],"stateMutability":"nonpayable"},{"type":"function","name":"_become","inputs":[{"name":"unitroller","type":"address","internalType":"contract Unitroller"}],"outputs":[],"stateMutability":"nonpayable"},{"type":"function","name":"_borrowGuardianPaused","inputs":[],"outputs":[{"name":"","type":"bool","internalType":"bool"}],"stateMutability":"view"},{"type":"function","name":"_grantComp","inputs":[{"name":"recipient","type":"address","internalType":"address"},{"name":"amount","type":"uint256","internalType":"uint256"}],"outputs":[],"stateMutability":"nonpayable"},{"type":"function","name":"_mintGuardianPaused","inputs":[],"outputs":[{"name":"","type":"bool","internalType":"bool"}],"stateMutability":"view"},{"type":"function","name":"_setBorrowCapGuardian","inputs":[{"name":"newBorrowCapGuardian","type":"address","internalType":"address"}],"outputs":[],"stateMutability":"nonpayable"},{"type":"function","name":"_setBorrowPaused","inputs":[{"name":"cToken","type":"address","internalType":"contract CToken"},{"name":"state","type":"bool","internalType":"bool"}],"outputs":[{"name":"","type":"bool","internalType":"bool"}],"stateMutability":"nonpayable"},{"type":"function","name":"_setCloseFactor","inputs":[{"name":"newCloseFactorMantissa","type":"uint256","internalType":"uint256"}],"outputs":[{"name":"","type":"uint256","internalType":"uint256"}],"stateMutability":"nonpayable"},{"type":"function","name":"_setCollateralFactor","inputs":[{"name":"cToken","type":"address","internalType":"contract CToken"},{"name":"newCollateralFactorMantissa","type":"uint256","internalType":"uint256"}],"outputs":[{"name":"","type":"uint256","internalType":"uint256"}],"stateMutability":"nonpayable"},{"type":"function","name":"_setCompSpeed","inputs":[{"name":"cToken","type":"address","internalType":"contract CToken"},{"name":"compSpeed","type":"uint256","internalType":"uint256"}],"outputs":[],"stateMutability":"nonpayable"},{"type":"function","name":"_setContributorCompSpeed","inputs":[{"name":"contributor","type":"address","internalType":"address"},{"name":"compSpeed","type":"uint256","internalType":"uint256"}],"outputs":[],"stateMutability":"nonpayable"},{"type":"function","name":"_setLiquidationIncentive","inputs":[{"name":"newLiquidationIncentiveMantissa","type":"uint256","internalType":"uint256"}],"outputs":[{"name":"","type":"uint256","internalType":"uint256"}],"stateMutability":"nonpayable"},{"type":"function","name":"_setMarketBorrowCaps","inputs":[{"name":"cTokens","type":"address[]","internalType":"contract CToken[]"},{"name":"newBorrowCaps","type":"uint256[]","internalType":"uint256[]"}],"outputs":[],"stateMutability":"nonpayable"},{"type":"function","name":"_setMintPaused","inputs":[{"name":"cToken","type":"address","internalType":"contract CToken"},{"name":"state","type":"bool","internalType":"bool"}],"outputs":[{"name":"","type":"bool","internalType":"bool"}],"stateMutability":"nonpayable"},{"type":"function","name":"_setPauseGuardian","inputs":[{"name":"newPauseGuardian","type":"address","internalType":"address"}],"outputs":[{"name":"","type":"uint256","internalType":"uint256"}],"stateMutability":"nonpayable"},{"type":"function","name":"_setPriceOracle","inputs":[{"name":"newOracle","type":"address","internalType":"contract PriceOracle"}],"outputs":[{"name":"","type":"uint256","internalType":"uint256"}],"stateMutability":"nonpayable"},{"type":"function","name":"_setSeizePaused","inputs":[{"name":"state","type":"bool","internalType":"bool"}],"outputs":[{"name":"","type":"bool","internalType":"bool"}],"stateMutability":"nonpayable"},{"type":"function","name":"_setTransferPaused","inputs":[{"name":"state","type":"bool","internalType":"bool"}],"outputs":[{"name":"","type":"bool","internalType":"bool"}],"stateMutability":"nonpayable"},{"type":"function","name":"_supportMarket","inputs":[{"name":"cToken","type":"address","internalType":"contract CToken"}],"outputs":[{"name":"","type":"uint256","internalType":"uint256"}],"stateMutability":"nonpayable"},{"type":"function","name":"accountAssets","inputs":[{"name":"","type":"address","internalType":"address"},{"name":"","type":"uint256","internalType":"uint256"}],"outputs":[{"name":"","type":"address","internalType":"contract CToken"}],"stateMutability":"view"},{"type":"function","name":"admin","inputs":[],"outputs":[{"name":"","type":"address","internalType":"address"}],"stateMutability":"view"},{"type":"function","name":"allMarkets","inputs":[{"name":"","type":"uint256","internalType":"uint256"}],"outputs":[{"name":"","type":"address","internalType":"contract CToken"}],"stateMutability":"view"},{"type":"function","name":"borrowAllowed","inputs":[{"name":"cToken","type":"address","internalType":"address"},{"name":"borrower","type":"address","internalType":"address"},{"name":"borrowAmount","type":"uint256","internalType":"uint256"}],"outputs":[{"name":"","type":"uint256","internalType":"uint256"}],"stateMutability":"nonpayable"},{"type":"function","name":"borrowCapGuardian","inputs":[],"outputs":[{"name":"","type":"address","internalType":"address"}],"stateMutability":"view"},{"type":"function","name":"borrowCaps","inputs":[{"name":"","type":"address","internalType":"address"}],"outputs":[{"name":"","type":"uint256","internalType":"uint256"}],"stateMutability":"view"},{"type":"function","name":"borrowGuardianPaused","inputs":[{"name":"","type":"address","internalType":"address"}],"outputs":[{"name":"","type":"bool","internalType":"bool"}],"stateMutability":"view"},{"type":"function","name":"borrowVerify","inputs":[{"name":"cToken","type":"address","internalType":"address"},{"name":"borrower","type":"address","internalType":"address"},{"name":"borrowAmount","type":"uint256","internalType":"uint256"}],"outputs":[],"stateMutability":"nonpayable"},{"type":"function","name":"checkMembership","inputs":[{"name":"account","type":"address","internalType":"address"},{"name":"cToken","type":"address","internalType":"contract CToken"}],"outputs":[{"name":"","type":"bool","internalType":"bool"}],"stateMutability":"view"},{"type":"function","name":"claimComp","inputs":[{"name":"holder","type":"address","internalType":"address"},{"name":"cTokens","type":"address[]","internalType":"contract CToken[]"}],"outputs":[],"stateMutability":"nonpayable"},{"type":"function","name":"claimComp","inputs":[{"name":"holders","type":"address[]","internalType":"address[]"},{"name":"cTokens","type":"address[]","internalType":"contract CToken[]"},{"name":"borrowers","type":"bool","internalType":"bool"},{"name":"suppliers","type":"bool","internalType":"bool"}],"outputs":[],"stateMutability":"nonpayable"},{"type":"function","name":"claimComp","inputs":[{"name":"holder","type":"address","internalType":"address"}],"outputs":[],"stateMutability":"nonpayable"},{"type":"function","name":"closeFactorMantissa","inputs":[],"outputs":[{"name":"","type":"uint256","internalType":"uint256"}],"stateMutability":"view"},{"type":"function","name":"compAccrued","inputs":[{"name":"","type":"address","internalType":"address"}],"outputs":[{"name":"","type":"uint256","internalType":"uint256"}],"stateMutability":"view"},{"type":"function","name":"compBorrowState","inputs":[{"name":"","type":"address","internalType":"address"}],"outputs":[{"name":"index","type":"uint224","internalType":"uint224"},{"name":"block","type":"uint32","internalType":"uint32"}],"stateMutability":"view"},{"type":"function","name":"compBorrowerIndex","inputs":[{"name":"","type":"address","internalType":"address"},{"name":"","type":"address","internalType":"address"}],"outputs":[{"name":"","type":"uint256","internalType":"uint256"}],"stateMutability":"view"},{"type":"function","name":"compContributorSpeeds","inputs":[{"name":"","type":"address","internalType":"address"}],"outputs":[{"name":"","type":"uint256","internalType":"uint256"}],"stateMutability":"view"},{"type":"function","name":"compInitialIndex","inputs":[],"outputs":[{"name":"","type":"uint224","internalType":"uint224"}],"stateMutability":"view"},{"type":"function","name":"compRate","inputs":[],"outputs":[{"name":"","type":"uint256","internalType":"uint256"}],"stateMutability":"view"},{"type":"function","name":"compSpeeds","inputs":[{"name":"","type":"address","internalType":"address"}],"outputs":[{"name":"","type":"uint256","internalType":"uint256"}],"stateMutability":"view"},{"type":"function","name":"compSupplierIndex","inputs":[{"name":"","type":"address","internalType":"address"},{"name":"","type":"address","internalType":"address"}],"outputs":[{"name":"","type":"uint256","internalType":"uint256"}],"stateMutability":"view"},{"type":"function","name":"compSupplyState","inputs":[{"name":"","type":"address","internalType":"address"}],"outputs":[{"name":"index","type":"uint224","internalType":"uint224"},{"name":"block","type":"uint32","internalType":"uint32"}],"stateMutability":"view"},{"type":"function","name":"comptrollerImplementation","inputs":[],"outputs":[{"name":"","type":"address","internalType":"address"}],"stateMutability":"view"},{"type":"function","name":"enterMarkets","inputs":[{"name":"cTokens","type":"address[]","internalType":"address[]"}],"outputs":[{"name":"","type":"uint256[]","internalType":"uint256[]"}],"stateMutability":"nonpayable"},{"type":"function","name":"exitMarket","inputs":[{"name":"cTokenAddress","type":"address","internalType":"address"}],"outputs":[{"name":"","type":"uint256","internalType":"uint256"}],"stateMutability":"nonpayable"},{"type":"function","name":"getAccountLiquidity","inputs":[{"name":"account","type":"address","internalType":"address"}],"outputs":[{"name":"","type":"uint256","internalType":"uint256"},{"name":"","type":"uint256","internalType":"uint256"},{"name":"","type":"uint256","internalType":"uint256"}],"stateMutability":"view"},{"type":"function","name":"getAllMarkets","inputs":[],"outputs":[{"name":"","type":"address[]","internalType":"contract CToken[]"}],"stateMutability":"view"},{"type":"function","name":"getAssetsIn","inputs":[{"name":"account","type":"address","internalType":"address"}],"outputs":[{"name":"","type":"address[]","internalType":"contract CToken[]"}],"stateMutability":"view"},{"type":"function","name":"getBlockNumber","inputs":[],"outputs":[{"name":"","type":"uint256","internalType":"uint256"}],"stateMutability":"view"},{"type":"function","name":"getCompAddress","inputs":[],"outputs":[{"name":"","type":"address","internalType":"address"}],"stateMutability":"view"},{"type":"function","name":"getHypotheticalAccountLiquidity","inputs":[{"name":"account","type":"address","internalType":"address"},{"name":"cTokenModify","type":"address","internalType":"address"},{"name":"redeemTokens","type":"uint256","internalType":"uint256"},{"name":"borrowAmount","type":"uint256","internalType":"uint256"}],"outputs":[{"name":"","type":"uint256","internalType":"uint256"},{"name":"","type":"uint256","internalType":"uint256"},{"name":"","type":"uint256","internalType":"uint256"}],"stateMutability":"view"},{"type":"function","name":"isComptroller","inputs":[],"outputs":[{"name":"","type":"bool","internalType":"bool"}],"stateMutability":"view"},{"type":"function","name":"lastContributorBlock","inputs":[{"name":"","type":"address","internalType":"address"}],"outputs":[{"name":"","type":"uint256","internalType":"uint256"}],"stateMutability":"view"},{"type":"function","name":"liquidateBorrowAllowed","inputs":[{"name":"cTokenBorrowed","type":"address","internalType":"address"},{"name":"cTokenCollateral","type":"address","internalType":"address"},{"name":"liquidator","type":"address","internalType":"address"},{"name":"borrower","type":"address","internalType":"address"},{"name":"repayAmount","type":"uint256","internalType":"uint256"}],"outputs":[{"name":"","type":"uint256","internalType":"uint256"}],"stateMutability":"nonpayable"},{"type":"function","name":"liquidateBorrowVerify","inputs":[{"name":"cTokenBorrowed","type":"address","internalType":"address"},{"name":"cTokenCollateral","type":"address","internalType":"address"},{"name":"liquidator","type":"address","internalType":"address"},{"name":"borrower","type":"address","internalType":"address"},{"name":"actualRepayAmount","type":"uint256","internalType":"uint256"},{"name":"seizeTokens","type":"uint256","internalType":"uint256"}],"outputs":[],"stateMutability":"nonpayable"},{"type":"function","name":"liquidateCalculateSeizeTokens","inputs":[{"name":"cTokenBorrowed","type":"address","internalType":"address"},{"name":"cTokenCollateral","type":"address","internalType":"address"},{"name":"actualRepayAmount","type":"uint256","internalType":"uint256"}],"outputs":[{"name":"","type":"uint256","internalType":"uint256"},{"name":"","type":"uint256","internalType":"uint256"}],"stateMutability":"view"},{"type":"function","name":"liquidationIncentiveMantissa","inputs":[],"outputs":[{"name":"","type":"uint256","internalType":"uint256"}],"stateMutability":"view"},{"type":"function","name":"markets","inputs":[{"name":"","type":"address","internalType":"address"}],"outputs":[{"name":"isListed","type":"bool","internalType":"bool"},{"name":"collateralFactorMantissa","type":"uint256","internalType":"uint256"},{"name":"isComped","type":"bool","internalType":"bool"}],"stateMutability":"view"},{"type":"function","name":"maxAssets","inputs":[],"outputs":[{"name":"","type":"uint256","internalType":"uint256"}],"stateMutability":"view"},{"type":"function","name":"mintAllowed","inputs":[{"name":"cToken","type":"address","internalType":"address"},{"name":"minter","type":"address","internalType":"address"},{"name":"mintAmount","type":"uint256","internalType":"uint256"}],"outputs":[{"name":"","type":"uint256","internalType":"uint256"}],"stateMutability":"nonpayable"},{"type":"function","name":"mintGuardianPaused","inputs":[{"name":"","type":"address","internalType":"address"}],"outputs":[{"name":"","type":"bool","internalType":"bool"}],"stateMutability":"view"},{"type":"function","name":"mintVerify","inputs":[{"name":"cToken","type":"address","internalType":"address"},{"name":"minter","type":"address","internalType":"address"},{"name":"actualMintAmount","type":"uint256","internalType":"uint256"},{"name":"mintTokens","type":"uint256","internalType":"uint256"}],"outputs":[],"stateMutability":"nonpayable"},{"type":"function","name":"oracle","inputs":[],"outputs":[{"name":"","type":"address","internalType":"contract PriceOracle"}],"stateMutability":"view"},{"type":"function","name":"pauseGuardian","inputs":[],"outputs":[{"name":"","type":"address","internalType":"address"}],"stateMutability":"view"},{"type":"function","name":"pendingAdmin","inputs":[],"outputs":[{"name":"","type":"address","internalType":"address"}],"stateMutability":"view"},{"type":"function","name":"pendingComptrollerImplementation","inputs":[],"outputs":[{"name":"","type":"address","internalType":"address"}],"stateMutability":"view"},{"type":"function","name":"redeemAllowed","inputs":[{"name":"cToken","type":"address","internalType":"address"},{"name":"redeemer","type":"address","internalType":"address"},{"name":"redeemTokens","type":"uint256","internalType":"uint256"}],"outputs":[{"name":"","type":"uint256","internalType":"uint256"}],"stateMutability":"nonpayable"},{"type":"function","name":"redeemVerify","inputs":[{"name":"cToken","type":"address","internalType":"address"},{"name":"redeemer","type":"address","internalType":"address"},{"name":"redeemAmount","type":"uint256","internalType":"uint256"},{"name":"redeemTokens","type":"uint256","internalType":"uint256"}],"outputs":[],"stateMutability":"nonpayable"},{"type":"function","name":"repayBorrowAllowed","inputs":[{"name":"cToken","type":"address","internalType":"address"},{"name":"payer","type":"address","internalType":"address"},{"name":"borrower","type":"address","internalType":"address"},{"name":"repayAmount","type":"uint256","internalType":"uint256"}],"outputs":[{"name":"","type":"uint256","internalType":"uint256"}],"stateMutability":"nonpayable"},{"type":"function","name":"repayBorrowVerify","inputs":[{"name":"cToken","type":"address","internalType":"address"},{"name":"payer","type":"address","internalType":"address"},{"name":"borrower","type":"address","internalType":"address"},{"name":"actualRepayAmount","type":"uint256","internalType":"uint256"},{"name":"borrowerIndex","type":"uint256","internalType":"uint256"}],"outputs":[],"stateMutability":"nonpayable"},{"type":"function","name":"seizeAllowed","inputs":[{"name":"cTokenCollateral","type":"address","internalType":"address"},{"name":"cTokenBorrowed","type":"address","internalType":"address"},{"name":"liquidator","type":"address","internalType":"address"},{"name":"borrower","type":"address","internalType":"address"},{"name":"seizeTokens","type":"uint256","internalType":"uint256"}],"outputs":[{"name":"","type":"uint256","internalType":"uint256"}],"stateMutability":"nonpayable"},{"type":"function","name":"seizeGuardianPaused","inputs":[],"outputs":[{"name":"","type":"bool","internalType":"bool"}],"stateMutability":"view"},{"type":"function","name":"seizeVerify","inputs":[{"name":"cTokenCollateral","type":"address","internalType":"address"},{"name":"cTokenBorrowed","type":"address","internalType":"address"},{"name":"liquidator","type":"address","internalType":"address"},{"name":"borrower","type":"address","internalType":"address"},{"name":"seizeTokens","type":"uint256","internalType":"uint256"}],"outputs":[],"stateMutability":"nonpayable"},{"type":"function","name":"transferAllowed","inputs":[{"name":"cToken","type":"address","internalType":"address"},{"name":"src","type":"address","internalType":"address"},{"name":"dst","type":"address","internalType":"address"},{"name":"transferTokens","type":"uint256","internalType":"uint256"}],"outputs":[{"name":"","type":"uint256","internalType":"uint256"}],"stateMutability":"nonpayable"},{"type":"function","name":"transferGuardianPaused","inputs":[],"outputs":[{"name":"","type":"bool","internalType":"bool"}],"stateMutability":"view"},{"type":"function","name":"transferVerify","inputs":[{"name":"cToken","type":"address","internalType":"address"},{"name":"src","type":"address","internalType":"address"},{"name":"dst","type":"address","internalType":"address"},{"name":"transferTokens","type":"uint256","internalType":"uint256"}],"outputs":[],"stateMutability":"nonpayable"},{"type":"function","name":"updateContributorRewards","inputs":[{"name":"contributor","type":"address","internalType":"address"}],"outputs":[],"stateMutability":"nonpayable"},{"type":"event","name":"ActionPaused","inputs":[{"name":"action","type":"string","indexed":false,"internalType":"string"},{"name":"pauseState","type":"bool","indexed":false,"internalType":"bool"}],"anonymous":false},{"type":"event","name":"ActionPaused","inputs":[{"name":"cToken","type":"address","indexed":false,"internalType":"contract CToken"},{"name":"action","type":"string","indexed":false,"internalType":"string"},{"name":"pauseState","type":"bool","indexed":false,"internalType":"bool"}],"anonymous":false},{"type":"event","name":"CompGranted","inputs":[{"name":"recipient","type":"address","indexed":false,"internalType":"address"},{"name":"amount","type":"uint256","indexed":false,"internalType":"uint256"}],"anonymous":false},{"type":"event","name":"CompSpeedUpdated","inputs":[{"name":"cToken","type":"address","indexed":true,"internalType":"contract CToken"},{"name":"newSpeed","type":"uint256","indexed":false,"internalType":"uint256"}],"anonymous":false},{"type":"event","name":"ContributorCompSpeedUpdated","inputs":[{"name":"contributor","type":"address","indexed":true,"internalType":"address"},{"name":"newSpeed","type":"uint256","indexed":false,"internalType":"uint256"}],"anonymous":false},{"type":"event","name":"DistributedBorrowerComp","inputs":[{"name":"cToken","type":"address","indexed":true,"internalType":"contract CToken"},{"name":"borrower","type":"address","indexed":true,"internalType":"address"},{"name":"compDelta","type":"uint256","indexed":false,"internalType":"uint256"},{"name":"compBorrowIndex","type":"uint256","indexed":false,"internalType":"uint256"}],"anonymous":false},{"type":"event","name":"DistributedSupplierComp","inputs":[{"name":"cToken","type":"address","indexed":true,"internalType":"contract CToken"},{"name":"supplier","type":"address","indexed":true,"internalType":"address"},{"name":"compDelta","type":"uint256","indexed":false,"internalType":"uint256"},{"name":"compSupplyIndex","type":"uint256","indexed":false,"internalType":"uint256"}],"anonymous":false},{"type":"event","name":"Failure","inputs":[{"name":"error","type":"uint256","indexed":false,"internalType":"uint256"},{"name":"info","type":"uint256","indexed":false,"internalType":"uint256"},{"name":"detail","type":"uint256","indexed":false,"internalType":"uint256"}],"anonymous":false},{"type":"event","name":"MarketEntered","inputs":[{"name":"cToken","type":"address","indexed":false,"internalType":"contract CToken"},{"name":"account","type":"address","indexed":false,"internalType":"address"}],"anonymous":false},{"type":"event","name":"MarketExited","inputs":[{"name":"cToken","type":"address","indexed":false,"internalType":"contract CToken"},{"name":"account","type":"address","indexed":false,"internalType":"address"}],"anonymous":false},{"type":"event","name":"MarketListed","inputs":[{"name":"cToken","type":"address","indexed":false,"internalType":"contract CToken"}],"anonymous":false},{"type":"event","name":"NewBorrowCap","inputs":[{"name":"cToken","type":"address","indexed":true,"internalType":"contract CToken"},{"name":"newBorrowCap","type":"uint256","indexed":false,"internalType":"uint256"}],"anonymous":false},{"type":"event","name":"NewBorrowCapGuardian","inputs":[{"name":"oldBorrowCapGuardian","type":"address","indexed":false,"internalType":"address"},{"name":"newBorrowCapGuardian","type":"address","indexed":false,"internalType":"address"}],"anonymous":false},{"type":"event","name":"NewCloseFactor","inputs":[{"name":"oldCloseFactorMantissa","type":"uint256","indexed":false,"internalType":"uint256"},{"name":"newCloseFactorMantissa","type":"uint256","indexed":false,"internalType":"uint256"}],"anonymous":false},{"type":"event","name":"NewCollateralFactor","inputs":[{"name":"cToken","type":"address","indexed":false,"internalType":"contract CToken"},{"name":"oldCollateralFactorMantissa","type":"uint256","indexed":false,"internalType":"uint256"},{"name":"newCollateralFactorMantissa","type":"uint256","indexed":false,"internalType":"uint256"}],"anonymous":false},{"type":"event","name":"NewLiquidationIncentive","inputs":[{"name":"oldLiquidationIncentiveMantissa","type":"uint256","indexed":false,"internalType":"uint256"},{"name":"newLiquidationIncentiveMantissa","type":"uint256","indexed":false,"internalType":"uint256"}],"anonymous":false},{"type":"event","name":"NewPauseGuardian","inputs":[{"name":"oldPauseGuardian","type":"address","indexed":false,"internalType":"address"},{"name":"newPauseGuardian","type":"address","indexed":false,"internalType":"address"}],"anonymous":false},{"type":"event","name":"NewPriceOracle","inputs":[{"name":"oldPriceOracle","type":"address","indexed":false,"internalType":"contract PriceOracle"},{"name":"newPriceOracle","type":"address","indexed":false,"internalType":"contract PriceOracle"}],"anonymous":false}],"bytecode":{"object":"0x608060405234801561001057600080fd5b50600080546001600160a01b03191633179055614da9806100326000396000f3fe608060405234801561001057600080fd5b50600436106104485760003560e01c80636d154ea511610241578063b21be7fd1161013b578063da3d454c116100c3578063e875544611610087578063e875544614610b54578063e9af029214610b5d578063eabe7d9114610b70578063ede4edd014610b83578063f851a44014610b9657600080fd5b8063da3d454c14610af4578063dce1544914610b07578063dcfbc0c714610b1a578063e4028eee14610b2d578063e6653f3d14610b4057600080fd5b8063c29982381161010a578063c299823814610a4e578063c488847b14610a6e578063ca0af04314610a96578063cc7ebdc414610ac1578063d02f735114610ae157600080fd5b8063b21be7fd146109dd578063bb82aa5e14610a08578063bdcdc25814610a1b578063bea6b8b814610a2e57600080fd5b8063929fe9a1116101c9578063a7f0e2311161018d578063a7f0e2311461096a578063aa90075414610998578063abfceffc146109a1578063ac0b0bb7146109c1578063b0772d0b146109d557600080fd5b8063929fe9a1146108d357806394b2294b14610914578063986ab8381461091d5780639d1b5a0a1461093d578063a76b3fda1461095757600080fd5b80637dc0d1d0116102105780637dc0d1d01461080e57806387f76303146108215780638c57804e146108355780638e8f294b1461086d5780638ebf6364146108c057600080fd5b80636d154ea5146107a75780636d35bf91146107ca578063731f0c2b146107d8578063741b2525146107fb57600080fd5b8063434caf251161035257806355ee1fe1116102da5780635fc7e71e1161029e5780635fc7e71e14610704578063607ef6c1146107175780636810dfa61461072a5780636a56947e1461073d5780636b79c38d1461074b57600080fd5b806355ee1fe1146106a5578063598ee1cb146106b85780635c778605146106cb5780635ec88c79146106de5780635f5af1aa146106f157600080fd5b80634e79238f116103215780634e79238f1461062b5780634ef4c3e1146106595780634fd42e171461066c57806351dff9891461067f57806352d84d1e1461069257600080fd5b8063434caf25146105d957806347ef3b3b146105ec5780634a584432146106025780634ada90af1461062257600080fd5b806326782247116103d5578063391957d7116103a4578063391957d7146105855780633bcf7ec1146105985780633c94786f146105ab57806341c728b9146105bf57806342cbb15c146105d357600080fd5b8063267822471461053957806327efe3cb1461054c5780632d70db781461055f578063317b0b771461057257600080fd5b80631d7b33d71161041c5780631d7b33d7146104a55780631ededc91146104d357806321af4569146104e857806324008a621461051357806324a3d6221461052657600080fd5b80627e3dd21461044d57806318c882a51461046a5780631c3db2e01461047d5780631d504dc614610492575b600080fd5b610455600181565b60405190151581526020015b60405180910390f35b610455610478366004614444565b610ba9565b61049061048b36600461455c565b610ceb565b005b6104906104a03660046145ac565b610d4e565b6104c56104b33660046145ac565b600f6020526000908152604090205481565b604051908152602001610461565b6104906104e13660046145c9565b5050505050565b6015546104fb906001600160a01b031681565b6040516001600160a01b039091168152602001610461565b6104c5610521366004614624565b610ecc565b600a546104fb906001600160a01b031681565b6001546104fb906001600160a01b031681565b61049061055a366004614675565b610f8a565b61045561056d3660046146a1565b611025565b6104c56105803660046146be565b611115565b6104906105933660046145ac565b6111bc565b6104556105a6366004614444565b61127f565b600a5461045590600160a01b900460ff1681565b6104906105cd3660046146d7565b50505050565b436104c5565b6104906105e7366004614675565b6113a9565b6104906105fa36600461471d565b505050505050565b6104c56106103660046145ac565b60166020526000908152604090205481565b6104c560065481565b61063e6106393660046146d7565b61140b565b60408051938452602084019290925290820152606001610461565b6104c561066736600461478b565b61144b565b6104c561067a3660046146be565b6114ec565b61049061068d3660046146d7565b611549565b6104fb6106a03660046146be565b611598565b6104c56106b33660046145ac565b6115c2565b6104906106c6366004614675565b61163b565b6104906106d936600461478b565b505050565b61063e6106ec3660046145ac565b61172f565b6104c56106ff3660046145ac565b61176a565b6104c56107123660046147cc565b6117e3565b61049061072536600461487c565b61193c565b61049061073836600461494c565b611b1a565b6104906105cd366004614624565b6107836107593660046145ac565b6010602052600090815260409020546001600160e01b03811690600160e01b900463ffffffff1682565b604080516001600160e01b03909316835263ffffffff909116602083015201610461565b6104556107b53660046145ac565b600c6020526000908152604090205460ff1681565b6104906104e13660046147cc565b6104556107e63660046145ac565b600b6020526000908152604090205460ff1681565b6104906108093660046145ac565b611ce1565b6004546104fb906001600160a01b031681565b600a5461045590600160b01b900460ff1681565b6107836108433660046145ac565b6011602052600090815260409020546001600160e01b03811690600160e01b900463ffffffff1682565b6108a161087b3660046145ac565b60096020526000908152604090208054600182015460039092015460ff91821692911683565b6040805193151584526020840192909252151590820152606001610461565b6104556108ce3660046146a1565b611d8d565b6104556108e13660046149d5565b6001600160a01b038082166000908152600960209081526040808320938616835260029093019052205460ff1692915050565b6104c560075481565b6104c561092b3660046145ac565b60176020526000908152604090205481565b73c00e94cb662c3520282e6f5717214004a7f268886104fb565b6104c56109653660046145ac565b611e74565b6109806ec097ce7bc90715b34b9f100000000081565b6040516001600160e01b039091168152602001610461565b6104c5600e5481565b6109b46109af3660046145ac565b611f9d565b6040516104619190614a03565b600a5461045590600160b81b900460ff1681565b6109b4612013565b6104c56109eb3660046149d5565b601260209081526000928352604080842090915290825290205481565b6002546104fb906001600160a01b031681565b6104c5610a29366004614624565b612075565b6104c5610a3c3660046145ac565b60186020526000908152604090205481565b610a61610a5c366004614a50565b612100565b6040516104619190614a85565b610a81610a7c36600461478b565b6121c8565b60408051928352602083019190915201610461565b6104c5610aa43660046149d5565b601360209081526000928352604080842090915290825290205481565b6104c5610acf3660046145ac565b60146020526000908152604090205481565b6104c5610aef3660046147cc565b6123e6565b6104c5610b0236600461478b565b61258d565b6104fb610b15366004614675565b61295d565b6003546104fb906001600160a01b031681565b6104c5610b3b366004614675565b612995565b600a5461045590600160a81b900460ff1681565b6104c560055481565b610490610b6b3660046145ac565b612b27565b6104c5610b7e36600461478b565b612b8b565b6104c5610b913660046145ac565b612bc6565b6000546104fb906001600160a01b031681565b6001600160a01b03821660009081526009602052604081205460ff16610bea5760405162461bcd60e51b8152600401610be190614abd565b60405180910390fd5b600a546001600160a01b0316331480610c0d57506000546001600160a01b031633145b610c295760405162461bcd60e51b8152600401610be190614b05565b6000546001600160a01b0316331480610c4457506001821515145b610c605760405162461bcd60e51b8152600401610be190614b4c565b6001600160a01b0383166000818152600c6020908152604091829020805460ff19168615159081179091558251938452606091840182905260069184019190915265426f72726f7760d01b6080840152908201527f71aec636243f9709bb0007ae15e9afb8150ab01716d75fd7573be5cc096e03b09060a0015b60405180910390a150805b92915050565b604080516001808252818301909252600091602080830190803683370190505090508281600081518110610d2157610d21614b7c565b60200260200101906001600160a01b031690816001600160a01b0316815250506106d98183600180611b1a565b806001600160a01b031663f851a4406040518163ffffffff1660e01b8152600401602060405180830381865afa158015610d8c573d6000803e3d6000fd5b505050506040513d601f19601f82011682018060405250810190610db09190614b92565b6001600160a01b0316336001600160a01b031614610e205760405162461bcd60e51b815260206004820152602760248201527f6f6e6c7920756e6974726f6c6c65722061646d696e2063616e206368616e676560448201526620627261696e7360c81b6064820152608401610be1565b806001600160a01b031663c1e803346040518163ffffffff1660e01b81526004016020604051808303816000875af1158015610e60573d6000803e3d6000fd5b505050506040513d601f19601f82011682018060405250810190610e849190614baf565b15610ec95760405162461bcd60e51b815260206004820152601560248201527418da185b99d9481b9bdd08185d5d1a1bdc9a5e9959605a1b6044820152606401610be1565b50565b6001600160a01b03841660009081526009602052604081205460ff16610ef457506009610f82565b60006040518060200160405280876001600160a01b031663aa5af0fd6040518163ffffffff1660e01b8152600401602060405180830381865afa158015610f3f573d6000803e3d6000fd5b505050506040513d601f19601f82011682018060405250810190610f639190614baf565b90529050610f718682612f2c565b610f7c86858361318c565b60009150505b949350505050565b610f926132f2565b610fde5760405162461bcd60e51b815260206004820152601960248201527f6f6e6c792061646d696e2063616e206772616e7420636f6d70000000000000006044820152606401610be1565b604080516001600160a01b0384168152602081018390527f98b2f82a3a07f223a0be64b3d0f47711c64dccd1feafb94aa28156b38cd9695c91015b60405180910390a15050565b600a546000906001600160a01b031633148061104b57506000546001600160a01b031633145b6110675760405162461bcd60e51b8152600401610be190614b05565b6000546001600160a01b031633148061108257506001821515145b61109e5760405162461bcd60e51b8152600401610be190614b4c565b600a8054831515600160b81b0260ff60b81b199091161790556040517fef159d9a32b2472e32b098f954f3ce62d232939f1c207070b584df1814de2de0906111099084906040808252600590820152645365697a6560d81b6060820152901515602082015260800190565b60405180910390a15090565b600080546001600160a01b031633146111705760405162461bcd60e51b815260206004820152601f60248201527f6f6e6c792061646d696e2063616e2073657420636c6f736520666163746f72006044820152606401610be1565b600580549083905560408051828152602081018590527f3b9670cf975d26958e754b57098eaa2ac914d8d2a31b83257997b9f346110fd991015b60405180910390a160005b9392505050565b6000546001600160a01b031633146112255760405162461bcd60e51b815260206004820152602660248201527f6f6e6c792061646d696e2063616e2073657420626f72726f772063617020677560448201526530b93234b0b760d11b6064820152608401610be1565b601580546001600160a01b038381166001600160a01b031983168117909355604080519190921680825260208201939093527feda98690e518e9a05f8ec6837663e188211b2da8f4906648b323f2c1d4434e299101611019565b6001600160a01b03821660009081526009602052604081205460ff166112b75760405162461bcd60e51b8152600401610be190614abd565b600a546001600160a01b03163314806112da57506000546001600160a01b031633145b6112f65760405162461bcd60e51b8152600401610be190614b05565b6000546001600160a01b031633148061131157506001821515145b61132d5760405162461bcd60e51b8152600401610be190614b4c565b6001600160a01b0383166000818152600b6020908152604091829020805460ff19168615159081179091558251938452606091840182905260049184019190915263135a5b9d60e21b6080840152908201527f71aec636243f9709bb0007ae15e9afb8150ab01716d75fd7573be5cc096e03b09060a001610cda565b6113b16132f2565b6113fd5760405162461bcd60e51b815260206004820152601d60248201527f6f6e6c792061646d696e2063616e2073657420636f6d702073706565640000006044820152606401610be1565b611407828261331b565b5050565b6000806000806000806114208a8a8a8a613652565b92509250925082601181111561143857611438614bc8565b95509093509150505b9450945094915050565b6001600160a01b0383166000908152600b602052604081205460ff16156114a55760405162461bcd60e51b815260206004820152600e60248201526d1b5a5b9d081a5cc81c185d5cd95960921b6044820152606401610be1565b6001600160a01b03841660009081526009602052604090205460ff166114cf5760095b90506111b5565b6114d884613980565b6114e28484613bd6565b6000949350505050565b600080546001600160a01b0316331461150b57610ce56001600b613d7a565b600680549083905560408051828152602081018590527faeba5a6c40a8ac138134bff1aaa65debf25971188a58804bad717f82f0ec131691016111aa565b801580156115575750600082115b156105cd5760405162461bcd60e51b815260206004820152601160248201527072656465656d546f6b656e73207a65726f60781b6044820152606401610be1565b600d81815481106115a857600080fd5b6000918252602090912001546001600160a01b0316905081565b600080546001600160a01b031633146115e157610ce560016010613d7a565b600480546001600160a01b038481166001600160a01b031983168117909355604080519190921680825260208201939093527fd52b2b9b7e9ee655fcb95d2e5b9e0c9f69e7ef2b8e9d2d0ea78402d576d22e2291016111aa565b6116436132f2565b61168f5760405162461bcd60e51b815260206004820152601d60248201527f6f6e6c792061646d696e2063616e2073657420636f6d702073706565640000006044820152606401610be1565b61169882611ce1565b806116bb576001600160a01b0382166000908152601860205260408120556116d6565b436001600160a01b0383166000908152601860205260409020555b6001600160a01b03821660008181526017602052604090819020839055517f386537fa92edc3319af95f1f904dcf1900021e4f3f4e08169a577a09076e66b3906117239084815260200190565b60405180910390a25050565b600080600080600080611746876000806000613652565b92509250925082601181111561175e5761175e614bc8565b97919650945092505050565b600080546001600160a01b0316331461178957610ce560016013613d7a565b600a80546001600160a01b038481166001600160a01b031983168117909355604080519190921680825260208201939093527f0613b6ee6a04f0d09f390e4d9318894b9f6ac7fd83897cd8d18896ba579c401e91016111aa565b6001600160a01b03851660009081526009602052604081205460ff16158061182457506001600160a01b03851660009081526009602052604090205460ff16155b156118335760095b9050611933565b60008061183f85613df3565b9193509091506000905082601181111561185b5761185b614bc8565b1461187b5781601181111561187257611872614bc8565b92505050611933565b80611887576003611872565b6040516395dd919360e01b81526001600160a01b038681166004830152600091908a16906395dd919390602401602060405180830381865afa1580156118d1573d6000803e3d6000fd5b505050506040513d601f19601f820116820180604052508101906118f59190614baf565b90506000611913604051806020016040528060055481525083613e13565b90508086111561192a576011945050505050611933565b60009450505050505b95945050505050565b6000546001600160a01b031633148061195f57506015546001600160a01b031633145b6119c95760405162461bcd60e51b815260206004820152603560248201527f6f6e6c792061646d696e206f7220626f72726f772063617020677561726469616044820152746e2063616e2073657420626f72726f77206361707360581b6064820152608401610be1565b828181158015906119d957508082145b611a155760405162461bcd60e51b815260206004820152600d60248201526c1a5b9d985b1a59081a5b9c1d5d609a1b6044820152606401610be1565b60005b82811015611b1157848482818110611a3257611a32614b7c565b9050602002013560166000898985818110611a4f57611a4f614b7c565b9050602002016020810190611a6491906145ac565b6001600160a01b03168152602081019190915260400160002055868682818110611a9057611a90614b7c565b9050602002016020810190611aa591906145ac565b6001600160a01b03167f6f1951b2aad10f3fc81b86d91105b413a5b3f847a34bbc5ce1904201b14438f6868684818110611ae157611ae1614b7c565b90506020020135604051611af791815260200190565b60405180910390a280611b0981614bf4565b915050611a18565b50505050505050565b60005b83518110156104e1576000848281518110611b3a57611b3a614b7c565b6020908102919091018101516001600160a01b0381166000908152600990925260409091205490915060ff16611baa5760405162461bcd60e51b81526020600482015260156024820152741b585c9ad95d081b5d5cdd081899481b1a5cdd1959605a1b6044820152606401610be1565b60018415151415611c775760006040518060200160405280836001600160a01b031663aa5af0fd6040518163ffffffff1660e01b8152600401602060405180830381865afa158015611c00573d6000803e3d6000fd5b505050506040513d601f19601f82011682018060405250810190611c249190614baf565b90529050611c328282612f2c565b60005b8751811015611c7457611c6283898381518110611c5457611c54614b7c565b60200260200101518461318c565b80611c6c81614bf4565b915050611c35565b50505b60018315151415611cce57611c8b81613980565b60005b8651811015611ccc57611cba82888381518110611cad57611cad614b7c565b6020026020010151613bd6565b80611cc481614bf4565b915050611c8e565b505b5080611cd981614bf4565b915050611b1d565b6001600160a01b038116600090815260176020908152604080832054601890925282205490914391611d14908390613e2b565b9050600081118015611d265750600083115b156105cd576000611d378285613e37565b6001600160a01b03861660009081526014602052604081205491925090611d5e9083613e43565b6001600160a01b0387166000908152601460209081526040808320939093556018905220849055505050505050565b600a546000906001600160a01b0316331480611db357506000546001600160a01b031633145b611dcf5760405162461bcd60e51b8152600401610be190614b05565b6000546001600160a01b0316331480611dea57506001821515145b611e065760405162461bcd60e51b8152600401610be190614b4c565b600a8054831515600160b01b0260ff60b01b199091161790556040517fef159d9a32b2472e32b098f954f3ce62d232939f1c207070b584df1814de2de0906111099084906040808252600890820152672a3930b739b332b960c11b6060820152901515602082015260800190565b600080546001600160a01b03163314611e9357610ce560016012613d7a565b6001600160a01b03821660009081526009602052604090205460ff1615611ec057610ce5600a6011613d7a565b816001600160a01b031663fe9c44ae6040518163ffffffff1660e01b8152600401602060405180830381865afa158015611efe573d6000803e3d6000fd5b505050506040513d601f19601f82011682018060405250810190611f229190614c0f565b506001600160a01b03821660009081526009602052604081208054600160ff1991821681178355600383018054909216909155810191909155611f6483613e4f565b6040516001600160a01b03841681527fcf583bb0c569eb967f806b11601c4cb93c10310485c67add5f8362c2f212321f906020016111aa565b6001600160a01b038116600090815260086020908152604080832080548251818502810185019093528083526060949383018282801561200657602002820191906000526020600020905b81546001600160a01b03168152600190910190602001808311611fe8575b5093979650505050505050565b6060600d80548060200260200160405190810160405280929190818152602001828054801561206b57602002820191906000526020600020905b81546001600160a01b0316815260019091019060200180831161204d575b5050505050905090565b600a54600090600160b01b900460ff16156120c75760405162461bcd60e51b81526020600482015260126024820152711d1c985b9cd9995c881a5cc81c185d5cd95960721b6044820152606401610be1565b60006120d4868685613f38565b905080156120e3579050610f82565b6120ec86613980565b6120f68686613bd6565b610f7c8685613bd6565b805160609060008167ffffffffffffffff8111156121205761212061447d565b604051908082528060200260200182016040528015612149578160200160208202803683370190505b50905060005b828110156121c057600085828151811061216b5761216b614b7c565b6020026020010151905061217f8133613ff0565b601181111561219057612190614bc8565b8383815181106121a2576121a2614b7c565b602090810291909101015250806121b881614bf4565b91505061214f565b509392505050565b6004805460405163fc57d4df60e01b81526001600160a01b03868116938201939093526000928392839291169063fc57d4df90602401602060405180830381865afa15801561221b573d6000803e3d6000fd5b505050506040513d601f19601f8201168201806040525081019061223f9190614baf565b6004805460405163fc57d4df60e01b81526001600160a01b038981169382019390935292935060009291169063fc57d4df90602401602060405180830381865afa158015612291573d6000803e3d6000fd5b505050506040513d601f19601f820116820180604052508101906122b59190614baf565b90508115806122c2575080155b156122d657600d60009350935050506123de565b6000866001600160a01b031663182df0f56040518163ffffffff1660e01b8152600401602060405180830381865afa158015612316573d6000803e3d6000fd5b505050506040513d601f19601f8201168201806040525081019061233a9190614baf565b905060006123546040518060200160405280600081525090565b604080516020808201835260008083528351808301855290815283518083018552600654815284519283019094528882529192612390916140e5565b92506123b86040518060200160405280888152506040518060200160405280888152506140e5565b91506123c4838361412d565b90506123d0818b613e13565b600099509750505050505050505b935093915050565b600a54600090600160b81b900460ff16156124355760405162461bcd60e51b815260206004820152600f60248201526e1cd95a5e99481a5cc81c185d5cd959608a1b6044820152606401610be1565b6001600160a01b03861660009081526009602052604090205460ff16158061247657506001600160a01b03851660009081526009602052604090205460ff16155b1561248257600961182c565b846001600160a01b0316635fe3b5676040518163ffffffff1660e01b8152600401602060405180830381865afa1580156124c0573d6000803e3d6000fd5b505050506040513d601f19601f820116820180604052508101906124e49190614b92565b6001600160a01b0316866001600160a01b0316635fe3b5676040518163ffffffff1660e01b8152600401602060405180830381865afa15801561252b573d6000803e3d6000fd5b505050506040513d601f19601f8201168201806040525081019061254f9190614b92565b6001600160a01b03161461256457600261182c565b61256d86613980565b6125778684613bd6565b6125818685613bd6565b60009695505050505050565b6001600160a01b0383166000908152600c602052604081205460ff16156125e95760405162461bcd60e51b815260206004820152601060248201526f189bdc9c9bddc81a5cc81c185d5cd95960821b6044820152606401610be1565b6001600160a01b03841660009081526009602052604090205460ff166126105760096114c8565b6001600160a01b038085166000908152600960209081526040808320938716835260029093019052205460ff1661270d57336001600160a01b038516146126915760405162461bcd60e51b815260206004820152601560248201527439b2b73232b91036bab9ba1031329031aa37b5b2b760591b6044820152606401610be1565b600061269d3385613ff0565b905060008160118111156126b3576126b3614bc8565b146126d2578060118111156126ca576126ca614bc8565b9150506111b5565b6001600160a01b038086166000908152600960209081526040808320938816835260029093019052205460ff1661270b5761270b614c2c565b505b6004805460405163fc57d4df60e01b81526001600160a01b038781169382019390935291169063fc57d4df90602401602060405180830381865afa158015612759573d6000803e3d6000fd5b505050506040513d601f19601f8201168201806040525081019061277d9190614baf565b61278857600d6114c8565b6001600160a01b038416600090815260166020526040902054801561286d576000856001600160a01b03166347bd37186040518163ffffffff1660e01b8152600401602060405180830381865afa1580156127e7573d6000803e3d6000fd5b505050506040513d601f19601f8201168201806040525081019061280b9190614baf565b905060006128198286613e43565b905082811061286a5760405162461bcd60e51b815260206004820152601960248201527f6d61726b657420626f72726f77206361702072656163686564000000000000006044820152606401610be1565b50505b60008061287d8688600088613652565b9193509091506000905082601181111561289957612899614bc8565b146128ba578160118111156128b0576128b0614bc8565b93505050506111b5565b80156128c75760046128b0565b60006040518060200160405280896001600160a01b031663aa5af0fd6040518163ffffffff1660e01b8152600401602060405180830381865afa158015612912573d6000803e3d6000fd5b505050506040513d601f19601f820116820180604052508101906129369190614baf565b905290506129448882612f2c565b61294f88888361318c565b600098975050505050505050565b6008602052816000526040600020818154811061297957600080fd5b6000918252602090912001546001600160a01b03169150829050565b600080546001600160a01b031633146129bb576129b460016006613d7a565b9050610ce5565b6001600160a01b0383166000908152600960205260409020805460ff166129f0576129e860096007613d7a565b915050610ce5565b60408051602080820183528582528251908101909252670c7d713b49da0000825290612a1e81835190511090565b15612a3957612a2f60066008613d7a565b9350505050610ce5565b8415801590612ab557506004805460405163fc57d4df60e01b81526001600160a01b038981169382019390935291169063fc57d4df90602401602060405180830381865afa158015612a8f573d6000803e3d6000fd5b505050506040513d601f19601f82011682018060405250810190612ab39190614baf565b155b15612ac657612a2f600d6009613d7a565b60018301805490869055604080516001600160a01b0389168152602081018390529081018790527f70483e6592cd5182d45ac970e05bc62cdcc90e9d8ef2c2dbe686cf383bcd7fc59060600160405180910390a16000979650505050505050565b610ec981600d805480602002602001604051908101604052809291908181526020018280548015612b8157602002820191906000526020600020905b81546001600160a01b03168152600190910190602001808311612b63575b5050505050610ceb565b600080612b99858585613f38565b90508015612ba85790506111b5565b612bb185613980565b612bbb8585613bd6565b600095945050505050565b6040516361bfb47160e11b815233600482015260009082908290819081906001600160a01b0385169063c37f68e290602401608060405180830381865afa158015612c15573d6000803e3d6000fd5b505050506040513d601f19601f82011682018060405250810190612c399190614c42565b5092509250925082600014612c9e5760405162461bcd60e51b815260206004820152602560248201527f657869744d61726b65743a206765744163636f756e74536e617073686f742066604482015264185a5b195960da1b6064820152608401610be1565b8015612cba57612cb0600c6002613d7a565b9695505050505050565b6000612cc7873385613f38565b90508015612ce757612cdc600e600383614167565b979650505050505050565b6001600160a01b0385166000908152600960209081526040808320338452600281019092529091205460ff16612d2557600098975050505050505050565b3360009081526002820160209081526040808320805460ff191690556008825280832080548251818502810185019093528083529192909190830182828015612d9757602002820191906000526020600020905b81546001600160a01b03168152600190910190602001808311612d79575b5050835193945083925060009150505b82811015612dfc57896001600160a01b0316848281518110612dcb57612dcb614b7c565b60200260200101516001600160a01b03161415612dea57809150612dfc565b80612df481614bf4565b915050612da7565b50818110612e0c57612e0c614c2c565b33600090815260086020526040902080548190612e2b90600190614c78565b81548110612e3b57612e3b614b7c565b9060005260206000200160009054906101000a90046001600160a01b0316818381548110612e6b57612e6b614b7c565b9060005260206000200160006101000a8154816001600160a01b0302191690836001600160a01b0316021790555080805480612ea957612ea9614c8f565b600082815260209020810160001990810180546001600160a01b03191690550190556040517fe699a64c18b07ac5b7301aa273f36a2287239eb9501d81950672794afba29a0d90612f12908c9033906001600160a01b0392831681529116602082015260400190565b60405180910390a160009c9b505050505050505050505050565b6001600160a01b0382166000908152601160209081526040808320600f9092528220549091438354909150600090612f72908390600160e01b900463ffffffff16613e2b565b9050600081118015612f845750600083115b15613132576000612ff6876001600160a01b03166347bd37186040518163ffffffff1660e01b8152600401602060405180830381865afa158015612fcc573d6000803e3d6000fd5b505050506040513d601f19601f82011682018060405250810190612ff09190614baf565b876141df565b905060006130048386613e37565b90506000808311613024576040518060200160405280600081525061302e565b61302e82846141fd565b604080516020810190915288546001600160e01b031681529091506000906130569083614239565b905060405180604001604052806130a683600001516040518060400160405280601a81526020017f6e657720696e6465782065786365656473203232342062697473000000000000815250614265565b6001600160e01b031681526020016130e1886040518060400160405280601c8152602001600080516020614d54833981519152815250614294565b63ffffffff9081169091526001600160a01b038c16600090815260116020908152604090912083519390910151909116600160e01b026001600160e01b03909216919091179055506105fa92505050565b80156105fa57613165826040518060400160405280601c8152602001600080516020614d54833981519152815250614294565b845463ffffffff91909116600160e01b026001600160e01b03909116178455505050505050565b6001600160a01b0380841660008181526011602090815260408083208151808401835281546001600160e01b0316815282518085018452958552601384528285209689168086528785529285208054875281519390955295909252909155815190929190156105fa57600061320183836142bc565b6040516395dd919360e01b81526001600160a01b03888116600483015291925060009161325291908a16906395dd919390602401602060405180830381865afa158015612fcc573d6000803e3d6000fd5b9050600061326082846142e8565b6001600160a01b038916600090815260146020526040812054919250906132879083613e43565b6001600160a01b038a81166000818152601460209081526040918290208590558a518251888152918201529394509092918d16917f1fc3ecc087d8d2d15e23d0032af5a47059c3892d003d8e139fdcb6bb327c99a6910160405180910390a350505050505050505050565b600080546001600160a01b031633148061331657506002546001600160a01b031633145b905090565b6001600160a01b0382166000908152600f602052604090205480156133c65760006040518060200160405280856001600160a01b031663aa5af0fd6040518163ffffffff1660e01b8152600401602060405180830381865afa158015613385573d6000803e3d6000fd5b505050506040513d601f19601f820116820180604052508101906133a99190614baf565b905290506133b684613980565b6133c08482612f2c565b506135f1565b81156135f1576001600160a01b0383166000908152600960205260409020805460ff16151560011461343a5760405162461bcd60e51b815260206004820152601960248201527f636f6d70206d61726b6574206973206e6f74206c6973746564000000000000006044820152606401610be1565b6001600160a01b0384166000908152601060205260409020546001600160e01b031615801561348c57506001600160a01b038416600090815260106020526040902054600160e01b900463ffffffff16155b1561352757604080518082019091526ec097ce7bc90715b34b9f10000000008152602081016134df435b6040518060400160405280601c8152602001600080516020614d54833981519152815250614294565b63ffffffff9081169091526001600160a01b038616600090815260106020908152604090912083519390910151909116600160e01b026001600160e01b039092169190911790555b6001600160a01b0384166000908152601160205260409020546001600160e01b031615801561357957506001600160a01b038416600090815260116020526040902054600160e01b900463ffffffff16155b156135ef57604080518082019091526ec097ce7bc90715b34b9f10000000008152602081016135a7436134b6565b63ffffffff9081169091526001600160a01b038616600090815260116020908152604090912083519390910151909116600160e01b026001600160e01b039092169190911790555b505b8181146106d9576001600160a01b0383166000818152600f602052604090819020849055517f2ab93f65628379309f36cb125e90d7c902454a545c4f8b8cb0794af75c24b807906136459085815260200190565b60405180910390a2505050565b600080600061365f61437f565b6001600160a01b0388166000908152600860209081526040808320805482518185028101850190935280835284938301828280156136c657602002820191906000526020600020905b81546001600160a01b031681526001909101906020018083116136a8575b5050505050905060005b815181101561392a5760008282815181106136ed576136ed614b7c565b60209081029190910101516040516361bfb47160e11b81526001600160a01b038e811660048301529192509082169063c37f68e290602401608060405180830381865afa158015613742573d6000803e3d6000fd5b505050506040513d601f19601f820116820180604052508101906137669190614c42565b6080890152606088015260408701529350831561379257600f6000809750975097505050505050611441565b60408051602080820183526001600160a01b0384811660008181526009845285902060010154845260c08a01939093528351808301855260808a0151815260e08a015260048054855163fc57d4df60e01b815291820194909452935192169263fc57d4df92602480830193928290030181865afa158015613817573d6000803e3d6000fd5b505050506040513d601f19601f8201168201806040525081019061383b9190614baf565b60a0860181905261385b57600d6000809750975097505050505050611441565b604080516020810190915260a0860151815261010086015260c085015160e08601516138959161388a916140e5565b8661010001516140e5565b6101208601819052604086015186516138af929190614312565b8552610100850151606086015160208701516138cc929190614312565b60208601526001600160a01b03818116908c161415613917576138f98561012001518b8760200151614312565b60208601819052610100860151613911918b90614312565b60208601525b508061392281614bf4565b9150506136d0565b5060208301518351111561395b576020830151835160009161394b91614c78565b6000955095509550505050611441565b600080846000015185602001516139729190614c78565b955095509550505050611441565b6001600160a01b0381166000908152601060209081526040808320600f90925282205490914383549091506000906139c6908390600160e01b900463ffffffff16613e2b565b90506000811180156139d85750600083115b15613b7d576000856001600160a01b03166318160ddd6040518163ffffffff1660e01b8152600401602060405180830381865afa158015613a1d573d6000803e3d6000fd5b505050506040513d601f19601f82011682018060405250810190613a419190614baf565b90506000613a4f8386613e37565b90506000808311613a6f5760405180602001604052806000815250613a79565b613a7982846141fd565b604080516020810190915288546001600160e01b03168152909150600090613aa19083614239565b90506040518060400160405280613af183600001516040518060400160405280601a81526020017f6e657720696e6465782065786365656473203232342062697473000000000000815250614265565b6001600160e01b03168152602001613b2c886040518060400160405280601c8152602001600080516020614d54833981519152815250614294565b63ffffffff9081169091526001600160a01b038b16600090815260106020908152604090912083519390910151909116600160e01b026001600160e01b03909216919091179055506104e192505050565b80156104e157613bb0826040518060400160405280601c8152602001600080516020614d54833981519152815250614294565b845463ffffffff91909116600160e01b026001600160e01b039091161784555050505050565b6001600160a01b0380831660008181526010602090815260408083208151808401835281546001600160e01b0316815282518085018452958552601284528285209688168086528785529285208054875281519390955295909252909155815190929190158015613c475750815115155b15613c5f576ec097ce7bc90715b34b9f100000000081525b6000613c6b83836142bc565b6040516370a0823160e01b81526001600160a01b0387811660048301529192506000918816906370a0823190602401602060405180830381865afa158015613cb7573d6000803e3d6000fd5b505050506040513d601f19601f82011682018060405250810190613cdb9190614baf565b90506000613ce982846142e8565b6001600160a01b03881660009081526014602052604081205491925090613d109083613e43565b6001600160a01b038981166000818152601460209081526040918290208590558a518251888152918201529394509092918c16917f2caecd17d02f56fa897705dcc740da2d237c373f70686f4e0d9bd3bf0400ea7a910160405180910390a3505050505050505050565b60007f45b96fe442630264581b197e84bbada861235052c5a1aadfff9ea4e40a969aa0836011811115613daf57613daf614bc8565b836013811115613dc157613dc1614bc8565b60408051928352602083019190915260009082015260600160405180910390a18260118111156111b5576111b5614bc8565b6000806000613e06846000806000613652565b9250925092509193909250565b600080613e208484614333565b9050610f828161435b565b60006111b58284614c78565b60006111b58284614ca5565b60006111b58284614cc4565b60005b600d54811015613ee557816001600160a01b0316600d8281548110613e7957613e79614b7c565b6000918252602090912001546001600160a01b03161415613ed35760405162461bcd60e51b81526020600482015260146024820152731b585c9ad95d08185b1c9958591e48185919195960621b6044820152606401610be1565b80613edd81614bf4565b915050613e52565b50600d80546001810182556000919091527fd7b6990105719101dabeb77144f2a3385c8033acd3af97e9423a695e81ad1eb50180546001600160a01b0319166001600160a01b0392909216919091179055565b6001600160a01b03831660009081526009602052604081205460ff16613f5f5760096114c8565b6001600160a01b038085166000908152600960209081526040808320938716835260029093019052205460ff16613f975760006114c8565b600080613fa78587866000613652565b91935090915060009050826011811115613fc357613fc3614bc8565b14613fe357816011811115613fda57613fda614bc8565b925050506111b5565b8015612581576004613fda565b6001600160a01b0382166000908152600960205260408120805460ff1661401b576009915050610ce5565b6001600160a01b038316600090815260028201602052604090205460ff1615156001141561404d576000915050610ce5565b6001600160a01b03838116600081815260028401602090815260408083208054600160ff199091168117909155600883528184208054918201815584529282902090920180546001600160a01b031916948916948517905581519384528301919091527f3ab23ab0d51cccc0c3085aec51f99228625aa1a922b3a8ca89a26b0f2027a1a5910160405180910390a15060009392505050565b6040805160208101909152600081526040518060200160405280670de0b6b3a764000061411a86600001518660000151613e37565b6141249190614cdc565b90529392505050565b60408051602081019091526000815260405180602001604052806141246141608660000151670de0b6b3a7640000613e37565b8551614373565b60007f45b96fe442630264581b197e84bbada861235052c5a1aadfff9ea4e40a969aa084601181111561419c5761419c614bc8565b8460138111156141ae576141ae614bc8565b604080519283526020830191909152810184905260600160405180910390a1836011811115610f8257610f82614bc8565b60006111b56141f684670de0b6b3a7640000613e37565b8351614373565b6040805160208101909152600081526040518060200160405280614124614233866ec097ce7bc90715b34b9f1000000000613e37565b85614373565b604080516020810190915260008152604051806020016040528061412485600001518560000151613e43565b600081600160e01b841061428c5760405162461bcd60e51b8152600401610be19190614cfe565b509192915050565b600081640100000000841061428c5760405162461bcd60e51b8152600401610be19190614cfe565b604080516020810190915260008152604051806020016040528061412485600001518560000151613e2b565b60006ec097ce7bc90715b34b9f1000000000614308848460000151613e37565b6111b59190614cdc565b60008061431f8585614333565b905061193361432d8261435b565b84613e43565b6040805160208101909152600081526040518060200160405280614124856000015185613e37565b8051600090610ce590670de0b6b3a764000090614cdc565b60006111b58284614cdc565b6040518061014001604052806000815260200160008152602001600081526020016000815260200160008152602001600081526020016143cb6040518060200160405280600081525090565b81526020016143e66040518060200160405280600081525090565b81526020016144016040518060200160405280600081525090565b815260200161441c6040518060200160405280600081525090565b905290565b6001600160a01b0381168114610ec957600080fd5b8015158114610ec957600080fd5b6000806040838503121561445757600080fd5b823561446281614421565b9150602083013561447281614436565b809150509250929050565b634e487b7160e01b600052604160045260246000fd5b604051601f8201601f1916810167ffffffffffffffff811182821017156144bc576144bc61447d565b604052919050565b600067ffffffffffffffff8211156144de576144de61447d565b5060051b60200190565b600082601f8301126144f957600080fd5b8135602061450e614509836144c4565b614493565b82815260059290921b8401810191818101908684111561452d57600080fd5b8286015b8481101561455157803561454481614421565b8352918301918301614531565b509695505050505050565b6000806040838503121561456f57600080fd5b823561457a81614421565b9150602083013567ffffffffffffffff81111561459657600080fd5b6145a2858286016144e8565b9150509250929050565b6000602082840312156145be57600080fd5b81356111b581614421565b600080600080600060a086880312156145e157600080fd5b85356145ec81614421565b945060208601356145fc81614421565b9350604086013561460c81614421565b94979396509394606081013594506080013592915050565b6000806000806080858703121561463a57600080fd5b843561464581614421565b9350602085013561465581614421565b9250604085013561466581614421565b9396929550929360600135925050565b6000806040838503121561468857600080fd5b823561469381614421565b946020939093013593505050565b6000602082840312156146b357600080fd5b81356111b581614436565b6000602082840312156146d057600080fd5b5035919050565b600080600080608085870312156146ed57600080fd5b84356146f881614421565b9350602085013561470881614421565b93969395505050506040820135916060013590565b60008060008060008060c0878903121561473657600080fd5b863561474181614421565b9550602087013561475181614421565b9450604087013561476181614421565b9350606087013561477181614421565b9598949750929560808101359460a0909101359350915050565b6000806000606084860312156147a057600080fd5b83356147ab81614421565b925060208401356147bb81614421565b929592945050506040919091013590565b600080600080600060a086880312156147e457600080fd5b85356147ef81614421565b945060208601356147ff81614421565b9350604086013561480f81614421565b9250606086013561481f81614421565b949793965091946080013592915050565b60008083601f84011261484257600080fd5b50813567ffffffffffffffff81111561485a57600080fd5b6020830191508360208260051b850101111561487557600080fd5b9250929050565b6000806000806040858703121561489257600080fd5b843567ffffffffffffffff808211156148aa57600080fd5b6148b688838901614830565b909650945060208701359150808211156148cf57600080fd5b506148dc87828801614830565b95989497509550505050565b600082601f8301126148f957600080fd5b81356020614909614509836144c4565b82815260059290921b8401810191818101908684111561492857600080fd5b8286015b8481101561455157803561493f81614421565b835291830191830161492c565b6000806000806080858703121561496257600080fd5b843567ffffffffffffffff8082111561497a57600080fd5b614986888389016148e8565b9550602087013591508082111561499c57600080fd5b506149a9878288016144e8565b93505060408501356149ba81614436565b915060608501356149ca81614436565b939692955090935050565b600080604083850312156149e857600080fd5b82356149f381614421565b9150602083013561447281614421565b6020808252825182820181905260009190848201906040850190845b81811015614a445783516001600160a01b031683529284019291840191600101614a1f565b50909695505050505050565b600060208284031215614a6257600080fd5b813567ffffffffffffffff811115614a7957600080fd5b610f82848285016148e8565b6020808252825182820181905260009190848201906040850190845b81811015614a4457835183529284019291840191600101614aa1565b60208082526028908201527f63616e6e6f742070617573652061206d61726b65742074686174206973206e6f6040820152671d081b1a5cdd195960c21b606082015260800190565b60208082526027908201527f6f6e6c7920706175736520677561726469616e20616e642061646d696e2063616040820152666e20706175736560c81b606082015260800190565b6020808252601690820152756f6e6c792061646d696e2063616e20756e706175736560501b604082015260600190565b634e487b7160e01b600052603260045260246000fd5b600060208284031215614ba457600080fd5b81516111b581614421565b600060208284031215614bc157600080fd5b5051919050565b634e487b7160e01b600052602160045260246000fd5b634e487b7160e01b600052601160045260246000fd5b6000600019821415614c0857614c08614bde565b5060010190565b600060208284031215614c2157600080fd5b81516111b581614436565b634e487b7160e01b600052600160045260246000fd5b60008060008060808587031215614c5857600080fd5b505082516020840151604085015160609095015191969095509092509050565b600082821015614c8a57614c8a614bde565b500390565b634e487b7160e01b600052603160045260246000fd5b6000816000190483118215151615614cbf57614cbf614bde565b500290565b60008219821115614cd757614cd7614bde565b500190565b600082614cf957634e487b7160e01b600052601260045260246000fd5b500490565b600060208083528351808285015260005b81811015614d2b57858101830151858201604001528201614d0f565b81811115614d3d576000604083870101525b50601f01601f191692909201604001939250505056fe626c6f636b206e756d6265722065786365656473203332206269747300000000a2646970667358221220cd32417bb2802fd855d1187d4e8708d489fbf45d64bc6a07f886e3af622a127964736f6c634300080a0033","linkReferences":{}},"methodIdentifiers":{"_become(address)":"1d504dc6","_borrowGuardianPaused()":"e6653f3d","_grantComp(address,uint256)":"27efe3cb","_mintGuardianPaused()":"3c94786f","_setBorrowCapGuardian(address)":"391957d7","_setBorrowPaused(address,bool)":"18c882a5","_setCloseFactor(uint256)":"317b0b77","_setCollateralFactor(address,uint256)":"e4028eee","_setCompSpeed(address,uint256)":"434caf25","_setContributorCompSpeed(address,uint256)":"598ee1cb","_setLiquidationIncentive(uint256)":"4fd42e17","_setMarketBorrowCaps(address[],uint256[])":"607ef6c1","_setMintPaused(address,bool)":"3bcf7ec1","_setPauseGuardian(address)":"5f5af1aa","_setPriceOracle(address)":"55ee1fe1","_setSeizePaused(bool)":"2d70db78","_setTransferPaused(bool)":"8ebf6364","_supportMarket(address)":"a76b3fda","accountAssets(address,uint256)":"dce15449","admin()":"f851a440","allMarkets(uint256)":"52d84d1e","borrowAllowed(address,address,uint256)":"da3d454c","borrowCapGuardian()":"21af4569","borrowCaps(address)":"4a584432","borrowGuardianPaused(address)":"6d154ea5","borrowVerify(address,address,uint256)":"5c778605","checkMembership(address,address)":"929fe9a1","claimComp(address)":"e9af0292","claimComp(address,address[])":"1c3db2e0","claimComp(address[],address[],bool,bool)":"6810dfa6","closeFactorMantissa()":"e8755446","compAccrued(address)":"cc7ebdc4","compBorrowState(address)":"8c57804e","compBorrowerIndex(address,address)":"ca0af043","compContributorSpeeds(address)":"986ab838","compInitialIndex()":"a7f0e231","compRate()":"aa900754","compSpeeds(address)":"1d7b33d7","compSupplierIndex(address,address)":"b21be7fd","compSupplyState(address)":"6b79c38d","comptrollerImplementation()":"bb82aa5e","enterMarkets(address[])":"c2998238","exitMarket(address)":"ede4edd0","getAccountLiquidity(address)":"5ec88c79","getAllMarkets()":"b0772d0b","getAssetsIn(address)":"abfceffc","getBlockNumber()":"42cbb15c","getCompAddress()":"9d1b5a0a","getHypotheticalAccountLiquidity(address,address,uint256,uint256)":"4e79238f","isComptroller()":"007e3dd2","lastContributorBlock(address)":"bea6b8b8","liquidateBorrowAllowed(address,address,address,address,uint256)":"5fc7e71e","liquidateBorrowVerify(address,address,address,address,uint256,uint256)":"47ef3b3b","liquidateCalculateSeizeTokens(address,address,uint256)":"c488847b","liquidationIncentiveMantissa()":"4ada90af","markets(address)":"8e8f294b","maxAssets()":"94b2294b","mintAllowed(address,address,uint256)":"4ef4c3e1","mintGuardianPaused(address)":"731f0c2b","mintVerify(address,address,uint256,uint256)":"41c728b9","oracle()":"7dc0d1d0","pauseGuardian()":"24a3d622","pendingAdmin()":"26782247","pendingComptrollerImplementation()":"dcfbc0c7","redeemAllowed(address,address,uint256)":"eabe7d91","redeemVerify(address,address,uint256,uint256)":"51dff989","repayBorrowAllowed(address,address,address,uint256)":"24008a62","repayBorrowVerify(address,address,address,uint256,uint256)":"1ededc91","seizeAllowed(address,address,address,address,uint256)":"d02f7351","seizeGuardianPaused()":"ac0b0bb7","seizeVerify(address,address,address,address,uint256)":"6d35bf91","transferAllowed(address,address,address,uint256)":"bdcdc258","transferGuardianPaused()":"87f76303","transferVerify(address,address,address,uint256)":"6a56947e","updateContributorRewards(address)":"741b2525"},"id":10}