{"abi":[{"type":"function","name":"base","inputs":[],"outputs":[{"name":"","type":"uint256","internalType":"uint256"}],"stateMutability":"view"},{"type":"function","name":"ilks","inputs":[{"name":"","type":"bytes32","internalType":"bytes32"}],"outputs":[{"name":"duty","type":"uint256","internalType":"uint256"},{"name":"rho","type":"uint256","internalType":"uint256"}],"stateMutability":"view"}],"bytecode":{"object":"0x608060405234801561001057600080fd5b5060d88061001f6000396000f3fe6080604052348015600f57600080fd5b506004361060325760003560e01c80635001f3b5146037578063d9638d36146052575b600080fd5b603f60015481565b6040519081526020015b60405180910390f35b6076605d366004608a565b6000602081905290815260409020805460019091015482565b604080519283526020830191909152016049565b600060208284031215609b57600080fd5b503591905056fea26469706673582212202a72d85b8b50eed20199f4e910cc24c6772218ebbc0d191a3deb74a60cbbec3364736f6c634300080a0033","linkReferences":{}},"methodIdentifiers":{"base()":"5001f3b5","ilks(bytes32)":"d9638d36"},"id":13}