{"abi":[{"type":"constructor","inputs":[{"name":"underlying_","type":"address","internalType":"address"},{"name":"comptroller_","type":"address","internalType":"contract ComptrollerInterface"},{"name":"interestRateModel_","type":"address","internalType":"contract InterestRateModel"},{"name":"initialExchangeRateMantissa_","type":"uint256","internalType":"uint256"},{"name":"name_","type":"string","internalType":"string"},{"name":"symbol_","type":"string","internalType":"string"},{"name":"decimals_","type":"uint8","internalType":"uint8"},{"name":"admin_","type":"address","internalType":"address payable"}],"stateMutability":"nonpayable"},{"type":"function","name":"NO_ERROR","inputs":[],"outputs":[{"name":"","type":"uint256","internalType":"uint256"}],"stateMutability":"view"},{"type":"function","name":"_acceptAdmin","inputs":[],"outputs":[{"name":"","type":"uint256","internalType":"uint256"}],"stateMutability":"nonpayable"},{"type":"function","name":"_addReserves","inputs":[{"name":"addAmount","type":"uint256","internalType":"uint256"}],"outputs":[{"name":"","type":"uint256","internalType":"uint256"}],"stateMutability":"nonpayable"},{"type":"function","name":"_delegateCompLikeTo","inputs":[{"name":"compLikeDelegatee","type":"address","internalType":"address"}],"outputs":[],"stateMutability":"nonpayable"},{"type":"function","name":"_reduceReserves","inputs":[{"name":"reduceAmount","type":"uint256","internalType":"uint256"}],"outputs":[{"name":"","type":"uint256","internalType":"uint256"}],"stateMutability":"nonpayable"},{"type":"function","name":"_setComptroller","inputs":[{"name":"newComptroller","type":"address","internalType":"contract ComptrollerInterface"}],"outputs":[{"name":"","type":"uint256","internalType":"uint256"}],"stateMutability":"nonpayable"},{"type":"function","name":"_setInterestRateModel","inputs":[{"name":"newInterestRateModel","type":"address","internalType":"contract InterestRateModel"}],"outputs":[{"name":"","type":"uint256","internalType":"uint256"}],"stateMutability":"nonpayable"},{"type":"function","name":"_setPendingAdmin","inputs":[{"name":"newPendingAdmin","type":"address","internalType":"address payable"}],"outputs":[{"name":"","type":"uint256","internalType":"uint256"}],"stateMutability":"nonpayable"},{"type":"function","name":"_setReserveFactor","inputs":[{"name":"newReserveFactorMantissa","type":"uint256","internalType":"uint256"}],"outputs":[{"name":"","type":"uint256","internalType":"uint256"}],"stateMutability":"nonpayable"},{"type":"function","name":"accrualBlockNumber","inputs":[],"outputs":[{"name":"","type":"uint256","internalType":"uint256"}],"stateMutability":"view"},{"type":"function","name":"accrueInterest","inputs":[],"outputs":[{"name":"","type":"uint256","internalType":"uint256"}],"stateMutability":"nonpayable"},{"type":"function","name":"admin","inputs":[],"outputs":[{"name":"","type":"address","internalType":"address payable"}],"stateMutability":"view"},{"type":"function","name":"allowance","inputs":[{"name":"owner","type":"address","internalType":"address"},{"name":"spender","type":"address","internalType":"address"}],"outputs":[{"name":"","type":"uint256","internalType":"uint256"}],"stateMutability":"view"},{"type":"function","name":"approve","inputs":[{"name":"spender","type":"address","internalType":"address"},{"name":"amount","type":"uint256","internalType":"uint256"}],"outputs":[{"name":"","type":"bool","internalType":"bool"}],"stateMutability":"nonpayable"},{"type":"function","name":"balanceOf","inputs":[{"name":"owner","type":"address","internalType":"address"}],"outputs":[{"name":"","type":"uint256","internalType":"uint256"}],"stateMutability":"view"},{"type":"function","name":"balanceOfUnderlying","inputs":[{"name":"owner","type":"address","internalType":"address"}],"outputs":[{"name":"","type":"uint256","internalType":"uint256"}],"stateMutability":"nonpayable"},{"type":"function","name":"borrow","inputs":[{"name":"borrowAmount","type":"uint256","internalType":"uint256"}],"outputs":[{"name":"","type":"uint256","internalType":"uint256"}],"stateMutability":"nonpayable"},{"type":"function","name":"borrowBalanceCurrent","inputs":[{"name":"account","type":"address","internalType":"address"}],"outputs":[{"name":"","type":"uint256","internalType":"uint256"}],"stateMutability":"nonpayable"},{"type":"function","name":"borrowBalanceStored","inputs":[{"name":"account","type":"address","internalType":"address"}],"outputs":[{"name":"","type":"uint256","internalType":"uint256"}],"stateMutability":"view"},{"type":"function","name":"borrowIndex","inputs":[],"outputs":[{"name":"","type":"uint256","internalType":"uint256"}],"stateMutability":"view"},{"type":"function","name":"borrowRatePerBlock","inputs":[],"outputs":[{"name":"","type":"uint256","internalType":"uint256"}],"stateMutability":"view"},{"type":"function","name":"comptroller","inputs":[],"outputs":[{"name":"","type":"address","internalType":"contract ComptrollerInterface"}],"stateMutability":"view"},{"type":"function","name":"decimals","inputs":[],"outputs":[{"name":"","type":"uint8","internalType":"uint8"}],"stateMutability":"view"},{"type":"function","name":"exchangeRateCurrent","inputs":[],"outputs":[{"name":"","type":"uint256","internalType":"uint256"}],"stateMutability":"nonpayable"},{"type":"function","name":"exchangeRateStored","inputs":[],"outputs":[{"name":"","type":"uint256","internalType":"uint256"}],"stateMutability":"view"},{"type":"function","name":"getAccountSnapshot","inputs":[{"name":"account","type":"address","internalType":"address"}],"outputs":[{"name":"","type":"uint256","internalType":"uint256"},{"name":"","type":"uint256","internalType":"uint256"},{"name":"","type":"uint256","internalType":"uint256"},{"name":"","type":"uint256","internalType":"uint256"}],"stateMutability":"view"},{"type":"function","name":"getCash","inputs":[],"outputs":[{"name":"","type":"uint256","internalType":"uint256"}],"stateMutability":"view"},{"type":"function","name":"initialize","inputs":[{"name":"underlying_","type":"address","internalType":"address"},{"name":"comptroller_","type":"address","internalType":"contract ComptrollerInterface"},{"name":"interestRateModel_","type":"address","internalType":"contract InterestRateModel"},{"name":"initialExchangeRateMantissa_","type":"uint256","internalType":"uint256"},{"name":"name_","type":"string","internalType":"string"},{"name":"symbol_","type":"string","internalType":"string"},{"name":"decimals_","type":"uint8","internalType":"uint8"}],"outputs":[],"stateMutability":"nonpayable"},{"type":"function","name":"initialize","inputs":[{"name":"comptroller_","type":"address","internalType":"contract ComptrollerInterface"},{"name":"interestRateModel_","type":"address","internalType":"contract InterestRateModel"},{"name":"initialExchangeRateMantissa_","type":"uint256","internalType":"uint256"},{"name":"name_","type":"string","internalType":"string"},{"name":"symbol_","type":"string","internalType":"string"},{"name":"decimals_","type":"uint8","internalType":"uint8"}],"outputs":[],"stateMutability":"nonpayable"},{"type":"function","name":"interestRateModel","inputs":[],"outputs":[{"name":"","type":"address","internalType":"contract InterestRateModel"}],"stateMutability":"view"},{"type":"function","name":"isCToken","inputs":[],"outputs":[{"name":"","type":"bool","internalType":"bool"}],"stateMutability":"view"},{"type":"function","name":"liquidateBorrow","inputs":[{"name":"borrower","type":"address","internalType":"address"},{"name":"repayAmount","type":"uint256","internalType":"uint256"},{"name":"cTokenCollateral","type":"address","internalType":"contract CTokenInterface"}],"outputs":[{"name":"","type":"uint256","internalType":"uint256"}],"stateMutability":"nonpayable"},{"type":"function","name":"mint","inputs":[{"name":"mintAmount","type":"uint256","internalType":"uint256"}],"outputs":[{"name":"","type":"uint256","internalType":"uint256"}],"stateMutability":"nonpayable"},{"type":"function","name":"name","inputs":[],"outputs":[{"name":"","type":"string","internalType":"string"}],"stateMutability":"view"},{"type":"function","name":"pendingAdmin","inputs":[],"outputs":[{"name":"","type":"address","internalType":"address payable"}],"stateMutability":"view"},{"type":"function","name":"protocolSeizeShareMantissa","inputs":[],"outputs":[{"name":"","type":"uint256","internalType":"uint256"}],"stateMutability":"view"},{"type":"function","name":"redeem","inputs":[{"name":"redeemTokens","type":"uint256","internalType":"uint256"}],"outputs":[{"name":"","type":"uint256","internalType":"uint256"}],"stateMutability":"nonpayable"},{"type":"function","name":"redeemUnderlying","inputs":[{"name":"redeemAmount","type":"uint256","internalType":"uint256"}],"outputs":[{"name":"","type":"uint256","internalType":"uint256"}],"stateMutability":"nonpayable"},{"type":"function","name":"repayBorrow","inputs":[{"name":"repayAmount","type":"uint256","internalType":"uint256"}],"outputs":[{"name":"","type":"uint256","internalType":"uint256"}],"stateMutability":"nonpayable"},{"type":"function","name":"repayBorrowBehalf","inputs":[{"name":"borrower","type":"address","internalType":"address"},{"name":"repayAmount","type":"uint256","internalType":"uint256"}],"outputs":[{"name":"","type":"uint256","internalType":"uint256"}],"stateMutability":"nonpayable"},{"type":"function","name":"reserveFactorMantissa","inputs":[],"outputs":[{"name":"","type":"uint256","internalType":"uint256"}],"stateMutability":"view"},{"type":"function","name":"seize","inputs":[{"name":"liquidator","type":"address","internalType":"address"},{"name":"borrower","type":"address","internalType":"address"},{"name":"seizeTokens","type":"uint256","internalType":"uint256"}],"outputs":[{"name":"","type":"uint256","internalType":"uint256"}],"stateMutability":"nonpayable"},{"type":"function","name":"supplyRatePerBlock","inputs":[],"outputs":[{"name":"","type":"uint256","internalType":"uint256"}],"stateMutability":"view"},{"type":"function","name":"sweepToken","inputs":[{"name":"token","type":"address","internalType":"contract EIP20NonStandardInterface"}],"outputs":[],"stateMutability":"nonpayable"},{"type":"function","name":"symbol","inputs":[],"outputs":[{"name":"","type":"string","internalType":"string"}],"stateMutability":"view"},{"type":"function","name":"totalBorrows","inputs":[],"outputs":[{"name":"","type":"uint256","internalType":"uint256"}],"stateMutability":"view"},{"type":"function","name":"totalBorrowsCurrent","inputs":[],"outputs":[{"name":"","type":"uint256","internalType":"uint256"}],"stateMutability":"nonpayable"},{"type":"function","name":"totalReserves","inputs":[],"outputs":[{"name":"","type":"uint256","internalType":"uint256"}],"stateMutability":"view"},{"type":"function","name":"totalSupply","inputs":[],"outputs":[{"name":"","type":"uint256","internalType":"uint256"}],"stateMutability":"view"},{"type":"function","name":"transfer","inputs":[{"name":"dst","type":"address","internalType":"address"},{"name":"amount","type":"uint256","internalType":"uint256"}],"outputs":[{"name":"","type":"bool","internalType":"bool"}],"stateMutability":"nonpayable"},{"type":"function","name":"transferFrom","inputs":[{"name":"src","type":"address","internalType":"address"},{"name":"dst","type":"address","internalType":"address"},{"name":"amount","type":"uint256","internalType":"uint256"}],"outputs":[{"name":"","type":"bool","internalType":"bool"}],"stateMutability":"nonpayable"},{"type":"function","name":"underlying","inputs":[],"outputs":[{"name":"","type":"address","internalType":"address"}],"stateMutability":"view"},{"type":"event","name":"AccrueInterest","inputs":[{"name":"cashPrior","type":"uint256","indexed":false,"internalType":"uint256"},{"name":"interestAccumulated","type":"uint256","indexed":false,"internalType":"uint256"},{"name":"borrowIndex","type":"uint256","indexed":false,"internalType":"uint256"},{"name":"totalBorrows","type":"uint256","indexed":false,"internalType":"uint256"}],"anonymous":false},{"type":"event","name":"Approval","inputs":[{"name":"owner","type":"address","indexed":true,"internalType":"address"},{"name":"spender","type":"address","indexed":true,"internalType":"address"},{"name":"amount","type":"uint256","indexed":false,"internalType":"uint256"}],"anonymous":false},{"type":"event","name":"Borrow","inputs":[{"name":"borrower","type":"address","indexed":false,"internalType":"address"},{"name":"borrowAmount","type":"uint256","indexed":false,"internalType":"uint256"},{"name":"accountBorrows","type":"uint256","indexed":false,"internalType":"uint256"},{"name":"totalBorrows","type":"uint256","indexed":false,"internalType":"uint256"}],"anonymous":false},{"type":"event","name":"LiquidateBorrow","inputs":[{"name":"liquidator","type":"address","indexed":false,"internalType":"address"},{"name":"borrower","type":"address","indexed":false,"internalType":"address"},{"name":"repayAmount","type":"uint256","indexed":false,"internalType":"uint256"},{"name":"cTokenCollateral","type":"address","indexed":false,"internalType":"address"},{"name":"seizeTokens","type":"uint256","indexed":false,"internalType":"uint256"}],"anonymous":false},{"type":"event","name":"Mint","inputs":[{"name":"minter","type":"address","indexed":false,"internalType":"address"},{"name":"mintAmount","type":"uint256","indexed":false,"internalType":"uint256"},{"name":"mintTokens","type":"uint256","indexed":false,"internalType":"uint256"}],"anonymous":false},{"type":"event","name":"NewAdmin","inputs":[{"name":"oldAdmin","type":"address","indexed":false,"internalType":"address"},{"name":"newAdmin","type":"address","indexed":false,"internalType":"address"}],"anonymous":false},{"type":"event","name":"NewComptroller","inputs":[{"name":"oldComptroller","type":"address","indexed":false,"internalType":"contract ComptrollerInterface"},{"name":"newComptroller","type":"address","indexed":false,"internalType":"contract ComptrollerInterface"}],"anonymous":false},{"type":"event","name":"NewMarketInterestRateModel","inputs":[{"name":"oldInterestRateModel","type":"address","indexed":false,"internalType":"contract InterestRateModel"},{"name":"newInterestRateModel","type":"address","indexed":false,"internalType":"contract InterestRateModel"}],"anonymous":false},{"type":"event","name":"NewPendingAdmin","inputs":[{"name":"oldPendingAdmin","type":"address","indexed":false,"internalType":"address"},{"name":"newPendingAdmin","type":"address","indexed":false,"internalType":"address"}],"anonymous":false},{"type":"event","name":"NewReserveFactor","inputs":[{"name":"oldReserveFactorMantissa","type":"uint256","indexed":false,"internalType":"uint256"},{"name":"newReserveFactorMantissa","type":"uint256","indexed":false,"internalType":"uint256"}],"anonymous":false},{"type":"event","name":"Redeem","inputs":[{"name":"redeemer","type":"address","indexed":false,"internalType":"address"},{"name":"redeemAmount","type":"uint256","indexed":false,"internalType":"uint256"},{"name":"redeemTokens","type":"uint256","indexed":false,"internalType":"uint256"}],"anonymous":false},{"type":"event","name":"RepayBorrow","inputs":[{"name":"payer","type":"address","indexed":false,"internalType":"address"},{"name":"borrower","type":"address","indexed":false,"internalType":"address"},{"name":"repayAmount","type":"uint256","indexed":false,"internalType":"uint256"},{"name":"accountBorrows","type":"uint256","indexed":false,"internalType":"uint256"},{"name":"totalBorrows","type":"uint256","indexed":false,"internalType":"uint256"}],"anonymous":false},{"type":"event","name":"ReservesAdded","inputs":[{"name":"benefactor","type":"address","indexed":false,"internalType":"address"},{"name":"addAmount","type":"uint256","indexed":false,"internalType":"uint256"},{"name":"newTotalReserves","type":"uint256","indexed":false,"internalType":"uint256"}],"anonymous":false},{"type":"event","name":"ReservesReduced","inputs":[{"name":"admin","type":"address","indexed":false,"internalType":"address"},{"name":"reduceAmount","type":"uint256","indexed":false,"internalType":"uint256"},{"name":"newTotalReserves","type":"uint256","indexed":false,"internalType":"uint256"}],"anonymous":false},{"type":"event","name":"Transfer","inputs":[{"name":"from","type":"address","indexed":true,"internalType":"address"},{"name":"to","type":"address","indexed":true,"internalType":"address"},{"name":"amount","type":"uint256","indexed":false,"internalType":"uint256"}],"anonymous":false},{"type":"error","name":"AcceptAdminPendingAdminCheck","inputs":[]},{"type":"error","name":"AddReservesFactorFreshCheck","inputs":[{"name":"actualAddAmount","type":"uint256","internalType":"uint256"}]},{"type":"error","name":"BorrowCashNotAvailable","inputs":[]},{"type":"error","name":"BorrowComptrollerRejection","inputs":[{"name":"errorCode","type":"uint256","internalType":"uint256"}]},{"type":"error","name":"BorrowFreshnessCheck","inputs":[]},{"type":"error","name":"LiquidateAccrueBorrowInterestFailed","inputs":[{"name":"errorCode","type":"uint256","internalType":"uint256"}]},{"type":"error","name":"LiquidateAccrueCollateralInterestFailed","inputs":[{"name":"errorCode","type":"uint256","internalType":"uint256"}]},{"type":"error","name":"LiquidateCloseAmountIsUintMax","inputs":[]},{"type":"error","name":"LiquidateCloseAmountIsZero","inputs":[]},{"type":"error","name":"LiquidateCollateralFreshnessCheck","inputs":[]},{"type":"error","name":"LiquidateComptrollerRejection","inputs":[{"name":"errorCode","type":"uint256","internalType":"uint256"}]},{"type":"error","name":"LiquidateFreshnessCheck","inputs":[]},{"type":"error","name":"LiquidateLiquidatorIsBorrower","inputs":[]},{"type":"error","name":"LiquidateRepayBorrowFreshFailed","inputs":[{"name":"errorCode","type":"uint256","internalType":"uint256"}]},{"type":"error","name":"LiquidateSeizeComptrollerRejection","inputs":[{"name":"errorCode","type":"uint256","internalType":"uint256"}]},{"type":"error","name":"LiquidateSeizeLiquidatorIsBorrower","inputs":[]},{"type":"error","name":"MintComptrollerRejection","inputs":[{"name":"errorCode","type":"uint256","internalType":"uint256"}]},{"type":"error","name":"MintFreshnessCheck","inputs":[]},{"type":"error","name":"RedeemComptrollerRejection","inputs":[{"name":"errorCode","type":"uint256","internalType":"uint256"}]},{"type":"error","name":"RedeemFreshnessCheck","inputs":[]},{"type":"error","name":"RedeemTransferOutNotPossible","inputs":[]},{"type":"error","name":"ReduceReservesAdminCheck","inputs":[]},{"type":"error","name":"ReduceReservesCashNotAvailable","inputs":[]},{"type":"error","name":"ReduceReservesCashValidation","inputs":[]},{"type":"error","name":"ReduceReservesFreshCheck","inputs":[]},{"type":"error","name":"RepayBorrowComptrollerRejection","inputs":[{"name":"errorCode","type":"uint256","internalType":"uint256"}]},{"type":"error","name":"RepayBorrowFreshnessCheck","inputs":[]},{"type":"error","name":"SetComptrollerOwnerCheck","inputs":[]},{"type":"error","name":"SetInterestRateModelFreshCheck","inputs":[]},{"type":"error","name":"SetInterestRateModelOwnerCheck","inputs":[]},{"type":"error","name":"SetPendingAdminOwnerCheck","inputs":[]},{"type":"error","name":"SetReserveFactorAdminCheck","inputs":[]},{"type":"error","name":"SetReserveFactorBoundsCheck","inputs":[]},{"type":"error","name":"SetReserveFactorFreshCheck","inputs":[]},{"type":"error","name":"TransferComptrollerRejection","inputs":[{"name":"errorCode","type":"uint256","internalType":"uint256"}]},{"type":"error","name":"TransferNotAllowed","inputs":[]},{"type":"error","name":"TransferNotEnough","inputs":[]},{"type":"error","name":"TransferTooMuch","inputs":[]}],"bytecode":{"object":"0x60806040523480156200001157600080fd5b506040516200434b3803806200434b83398101604081905262000034916200081a565b60038054610100600160a81b03191633610100021790556200005c8888888888888862000090565b600380546001600160a01b0390921661010002610100600160a81b0319909216919091179055506200097d95505050505050565b620000ab8686868686866200013560201b62000e591760201c565b601180546001600160a01b0319166001600160a01b038916908117909155604080516318160ddd60e01b815290516318160ddd916004808201926020929091908290030181865afa15801562000105573d6000803e3d6000fd5b505050506040513d601f19601f820116820180604052508101906200012b9190620008fb565b5050505050505050565b60035461010090046001600160a01b03163314620001a65760405162461bcd60e51b8152602060048201526024808201527f6f6e6c792061646d696e206d617920696e697469616c697a6520746865206d616044820152631c9ad95d60e21b60648201526084015b60405180910390fd5b600954158015620001b75750600a54155b620002115760405162461bcd60e51b815260206004820152602360248201527f6d61726b6574206d6179206f6e6c7920626520696e697469616c697a6564206f6044820152626e636560e81b60648201526084016200019d565b6007849055836200027e5760405162461bcd60e51b815260206004820152603060248201527f696e697469616c2065786368616e67652072617465206d75737420626520677260448201526f32b0ba32b9103a3430b7103d32b9379760811b60648201526084016200019d565b60006200028b87620003a7565b90508015620002dd5760405162461bcd60e51b815260206004820152601a60248201527f73657474696e6720636f6d7074726f6c6c6572206661696c656400000000000060448201526064016200019d565b43600955670de0b6b3a7640000600a55620002f886620004ff565b90508015620003555760405162461bcd60e51b815260206004820152602260248201527f73657474696e6720696e7465726573742072617465206d6f64656c206661696c604482015261195960f21b60648201526084016200019d565b83516200036a9060019060208701906200067c565b508251620003809060029060208601906200067c565b50506003805460ff90921660ff199283161790556000805490911660011790555050505050565b60035460009061010090046001600160a01b03163314620003db5760405163d219dc1f60e01b815260040160405180910390fd5b60055460408051623f1ee960e11b815290516001600160a01b0392831692851691627e3dd29160048083019260209291908290030181865afa15801562000426573d6000803e3d6000fd5b505050506040513d601f19601f820116820180604052508101906200044c919062000915565b6200049a5760405162461bcd60e51b815260206004820152601c60248201527f6d61726b6572206d6574686f642072657475726e65642066616c73650000000060448201526064016200019d565b600580546001600160a01b0319166001600160a01b0385811691821790925560408051928416835260208301919091527f7ac369dbd14fa5ea3f473ed67cc9d598964a77501540ba6751eb0b3decf5870d91015b60405180910390a150600092915050565b600354600090819061010090046001600160a01b03163314620005355760405163407fded560e01b815260040160405180910390fd5b43600954146200055857604051630be2a5cb60e11b815260040160405180910390fd5b600660009054906101000a90046001600160a01b03169050826001600160a01b0316632191f92a6040518163ffffffff1660e01b8152600401602060405180830381865afa158015620005af573d6000803e3d6000fd5b505050506040513d601f19601f82011682018060405250810190620005d5919062000915565b620006235760405162461bcd60e51b815260206004820152601c60248201527f6d61726b6572206d6574686f642072657475726e65642066616c73650000000060448201526064016200019d565b600680546001600160a01b0319166001600160a01b0385811691821790925560408051928416835260208301919091527fedffc32e068c7c95dfd4bdfd5c4d939a084d6b11c4199eac8436ed234d72f9269101620004ee565b8280546200068a9062000940565b90600052602060002090601f016020900481019282620006ae5760008555620006f9565b82601f10620006c957805160ff1916838001178555620006f9565b82800160010185558215620006f9579182015b82811115620006f9578251825591602001919060010190620006dc565b50620007079291506200070b565b5090565b5b808211156200070757600081556001016200070c565b6001600160a01b03811681146200073857600080fd5b50565b634e487b7160e01b600052604160045260246000fd5b600082601f8301126200076357600080fd5b81516001600160401b03808211156200078057620007806200073b565b604051601f8301601f19908116603f01168101908282118183101715620007ab57620007ab6200073b565b81604052838152602092508683858801011115620007c857600080fd5b600091505b83821015620007ec5785820183015181830184015290820190620007cd565b83821115620007fe5760008385830101525b9695505050505050565b8051620008158162000722565b919050565b600080600080600080600080610100898b0312156200083857600080fd5b8851620008458162000722565b60208a0151909850620008588162000722565b60408a01519097506200086b8162000722565b60608a015160808b015191975095506001600160401b03808211156200089057600080fd5b6200089e8c838d0162000751565b955060a08b0151915080821115620008b557600080fd5b50620008c48b828c0162000751565b93505060c089015160ff81168114620008dc57600080fd5b9150620008ec60e08a0162000808565b90509295985092959890939650565b6000602082840312156200090e57600080fd5b5051919050565b6000602082840312156200092857600080fd5b815180151581146200093957600080fd5b9392505050565b600181811c908216806200095557607f821691505b602082108114156200097757634e487b7160e01b600052602260045260246000fd5b50919050565b6139be806200098d6000396000f3fe608060405234801561001057600080fd5b506004361061030c5760003560e01c80637f1e06be1161019d578063bd6d894d116100e9578063f2b3abbd116100a2578063f851a4401161007c578063f851a440146106a8578063f8f9da28146106c0578063fca7820b146106c8578063fe9c44ae146106db57600080fd5b8063f2b3abbd1461066f578063f3fdb15a14610682578063f5e3c4621461069557600080fd5b8063bd6d894d146105cd578063c37f68e2146105d5578063c5ebeaec14610608578063db006a751461061b578063dd62ed3e1461062e578063e9c714f21461066757600080fd5b8063a0712d6811610156578063aa5af0fd11610130578063aa5af0fd14610596578063ae9d70b01461059f578063b2a02ff1146105a7578063b71d1a0c146105ba57600080fd5b8063a0712d6814610568578063a6afed951461057b578063a9059cbb1461058357600080fd5b80637f1e06be1461050b578063852a12e31461051e5780638f840ddd1461053157806395d89b411461053a57806395dd91931461054257806399d8c1b41461055557600080fd5b80633af9e6691161025c578063601a0bf1116102155780636c540baf116101ef5780636c540baf146104be5780636f307dc3146104c757806370a08231146104da57806373acee981461050357600080fd5b8063601a0bf1146104955780636752e702146104a857806369ab3250146104b657600080fd5b80633af9e669146104385780633b1d21a21461044b5780633e941010146104535780634576b5db1461046657806347bd3718146104795780635fe3b5671461048257600080fd5b8063182df0f5116102c957806323b872dd116102a357806323b872dd146103c85780632608f818146103db57806326782247146103ee578063313ce5671461041957600080fd5b8063182df0f5146103985780631a31d465146103a05780631be19560146103b557600080fd5b806306fdde0314610311578063095ea7b31461032f5780630e75270214610352578063173b99041461037357806317bfdfbc1461037c57806318160ddd1461038f575b600080fd5b6103196106e3565b6040516103269190613443565b60405180910390f35b61034261033d3660046134b0565b610771565b6040519015158152602001610326565b6103656103603660046134dc565b6107df565b604051908152602001610326565b61036560085481565b61036561038a3660046134f5565b6107f2565b610365600d5481565b61036561084e565b6103b36103ae3660046135cb565b61085d565b005b6103b36103c33660046134f5565b6108f2565b6103426103d6366004613681565b610abe565b6103656103e93660046134b0565b610b0e565b600454610401906001600160a01b031681565b6040516001600160a01b039091168152602001610326565b6003546104269060ff1681565b60405160ff9091168152602001610326565b6103656104463660046134f5565b610b23565b610365610b69565b6103656104613660046134dc565b610b73565b6103656104743660046134f5565b610b84565b610365600b5481565b600554610401906001600160a01b031681565b6103656104a33660046134dc565b610cd6565b610365666379da05b6000081565b610365600081565b61036560095481565b601154610401906001600160a01b031681565b6103656104e83660046134f5565b6001600160a01b03166000908152600e602052604090205490565b610365610d15565b6103b36105193660046134f5565b610d5f565b61036561052c3660046134dc565b610e36565b610365600c5481565b610319610e41565b6103656105503660046134f5565b610e4e565b6103b36105633660046136c2565b610e59565b6103656105763660046134dc565b6110b4565b6103656110bf565b6103426105913660046134b0565b6112ad565b610365600a5481565b6103656112fc565b6103656105b5366004613681565b611394565b6103656105c83660046134f5565b6113e3565b610365611470565b6105e86105e33660046134f5565b6114c0565b604080519485526020850193909352918301526060820152608001610326565b6103656106163660046134dc565b611501565b6103656106293660046134dc565b61150c565b61036561063c366004613764565b6001600160a01b039182166000908152600f6020908152604080832093909416825291909152205490565b610365611517565b61036561067d3660046134f5565b61161e565b600654610401906001600160a01b031681565b6103656106a336600461379d565b611632565b6003546104019061010090046001600160a01b031681565b610365611649565b6103656106d63660046134dc565b61169c565b610342600181565b600180546106f0906137df565b80601f016020809104026020016040519081016040528092919081815260200182805461071c906137df565b80156107695780601f1061073e57610100808354040283529160200191610769565b820191906000526020600020905b81548152906001019060200180831161074c57829003601f168201915b505050505081565b336000818152600f602090815260408083206001600160a01b03871680855292528083208590555191929182907f8c5be1e5ebec7d5bd14f71427d1e84f3dd0314c0f7b2291e5b200ac8c7c3b925906107cd9087815260200190565b60405180910390a35060019392505050565b60006107ea826116db565b506000919050565b6000805460ff1661081e5760405162461bcd60e51b81526004016108159061381a565b60405180910390fd5b6000805460ff191690556108306110bf565b5061083a82610e4e565b90506000805460ff19166001179055919050565b600061085861172c565b905090565b61086b868686868686610e59565b601180546001600160a01b0319166001600160a01b038916908117909155604080516318160ddd60e01b815290516318160ddd916004808201926020929091908290030181865afa1580156108c4573d6000803e3d6000fd5b505050506040513d601f19601f820116820180604052508101906108e8919061383e565b5050505050505050565b60035461010090046001600160a01b031633146109695760405162461bcd60e51b815260206004820152602f60248201527f4345726332303a3a7377656570546f6b656e3a206f6e6c792061646d696e206360448201526e616e20737765657020746f6b656e7360881b6064820152608401610815565b6011546001600160a01b03828116911614156109e25760405162461bcd60e51b815260206004820152603260248201527f4345726332303a3a7377656570546f6b656e3a2063616e206e6f74207377656560448201527138103ab73232b9363cb4b733903a37b5b2b760711b6064820152608401610815565b6040516370a0823160e01b81523060048201526000906001600160a01b038316906370a0823190602401602060405180830381865afa158015610a29573d6000803e3d6000fd5b505050506040513d601f19601f82011682018060405250810190610a4d919061383e565b60035460405163a9059cbb60e01b81526001600160a01b03610100909204821660048201526024810183905291925083169063a9059cbb90604401600060405180830381600087803b158015610aa257600080fd5b505af1158015610ab6573d6000803e3d6000fd5b505050505050565b6000805460ff16610ae15760405162461bcd60e51b81526004016108159061381a565b6000805460ff19168155610af733868686611796565b1490506000805460ff191660011790559392505050565b6000610b1a83836119c4565b50600092915050565b6000806040518060200160405280610b39611470565b90526001600160a01b0384166000908152600e6020526040902054909150610b62908290611a16565b9392505050565b6000610858611a36565b6000610b7e82611aab565b92915050565b60035460009061010090046001600160a01b03163314610bb75760405163d219dc1f60e01b815260040160405180910390fd5b60055460408051623f1ee960e11b815290516001600160a01b0392831692851691627e3dd29160048083019260209291908290030181865afa158015610c01573d6000803e3d6000fd5b505050506040513d601f19601f82011682018060405250810190610c259190613857565b610c715760405162461bcd60e51b815260206004820152601c60248201527f6d61726b6572206d6574686f642072657475726e65642066616c7365000000006044820152606401610815565b600580546001600160a01b0319166001600160a01b0385811691821790925560408051928416835260208301919091527f7ac369dbd14fa5ea3f473ed67cc9d598964a77501540ba6751eb0b3decf5870d91015b60405180910390a150600092915050565b6000805460ff16610cf95760405162461bcd60e51b81526004016108159061381a565b6000805460ff19169055610d0b6110bf565b5061083a82611b02565b6000805460ff16610d385760405162461bcd60e51b81526004016108159061381a565b6000805460ff19169055610d4a6110bf565b5050600b546000805460ff1916600117905590565b60035461010090046001600160a01b03163314610dd45760405162461bcd60e51b815260206004820152602d60248201527f6f6e6c79207468652061646d696e206d6179207365742074686520636f6d702d60448201526c6c696b652064656c656761746560981b6064820152608401610815565b6011546040516317066a5760e21b81526001600160a01b03838116600483015290911690635c19a95c90602401600060405180830381600087803b158015610e1b57600080fd5b505af1158015610e2f573d6000803e3d6000fd5b5050505050565b60006107ea82611c1d565b600280546106f0906137df565b6000610b7e82611c6e565b60035461010090046001600160a01b03163314610ec45760405162461bcd60e51b8152602060048201526024808201527f6f6e6c792061646d696e206d617920696e697469616c697a6520746865206d616044820152631c9ad95d60e21b6064820152608401610815565b600954158015610ed45750600a54155b610f2c5760405162461bcd60e51b815260206004820152602360248201527f6d61726b6574206d6179206f6e6c7920626520696e697469616c697a6564206f6044820152626e636560e81b6064820152608401610815565b600784905583610f975760405162461bcd60e51b815260206004820152603060248201527f696e697469616c2065786368616e67652072617465206d75737420626520677260448201526f32b0ba32b9103a3430b7103d32b9379760811b6064820152608401610815565b6000610fa287610b84565b90508015610ff25760405162461bcd60e51b815260206004820152601a60248201527f73657474696e6720636f6d7074726f6c6c6572206661696c65640000000000006044820152606401610815565b43600955670de0b6b3a7640000600a5561100b86611cb8565b905080156110665760405162461bcd60e51b815260206004820152602260248201527f73657474696e6720696e7465726573742072617465206d6f64656c206661696c604482015261195960f21b6064820152608401610815565b83516110799060019060208701906133b3565b50825161108d9060029060208601906133b3565b50506003805460ff90921660ff199283161790556000805490911660011790555050505050565b60006107ea82611e2d565b6009546000904390808214156110d85760009250505090565b60006110e2611a36565b600b54600c54600a546006546040516315f2405360e01b81526004810186905260248101859052604481018490529495509293919290916000916001600160a01b0316906315f2405390606401602060405180830381865afa15801561114c573d6000803e3d6000fd5b505050506040513d601f19601f82011682018060405250810190611170919061383e565b905065048c273950008111156111c85760405162461bcd60e51b815260206004820152601c60248201527f626f72726f772072617465206973206162737572646c792068696768000000006044820152606401610815565b60006111d4878961388f565b905060006111f060405180602001604052808581525083611e6c565b905060006111fe8288611a16565b9050600061120c88836138a6565b9050600061122b6040518060200160405280600854815250848a611e9d565b9050600061123a85898a611e9d565b60098e9055600a819055600b849055600c839055604080518d815260208101879052908101829052606081018590529091507f4dec04e750ca11537cabcd8a9eab06494de08da3735bc8871cd41250e190bc049060800160405180910390a160009d505050505050505050505050505090565b6000805460ff166112d05760405162461bcd60e51b81526004016108159061381a565b6000805460ff191681556112e633808686611796565b1490506000805460ff1916600117905592915050565b6006546000906001600160a01b031663b8168816611318611a36565b600b54600c546008546040516001600160e01b031960e087901b16815260048101949094526024840192909252604483015260648201526084015b602060405180830381865afa158015611370573d6000803e3d6000fd5b505050506040513d601f19601f82011682018060405250810190610858919061383e565b6000805460ff166113b75760405162461bcd60e51b81526004016108159061381a565b6000805460ff191690556113cd33858585611ebe565b50600080805460ff191660011790559392505050565b60035460009061010090046001600160a01b0316331461141657604051635cb56c2b60e01b815260040160405180910390fd5b600480546001600160a01b038481166001600160a01b031983168117909355604080519190921680825260208201939093527fca4f2f25d0898edd99413412fb94012f9e54ec8142f9b093e7720646a95b16a99101610cc5565b6000805460ff166114935760405162461bcd60e51b81526004016108159061381a565b6000805460ff191690556114a56110bf565b506114ae61084e565b90506000805460ff1916600117905590565b6001600160a01b0381166000908152600e602052604081205481908190819081906114ea87611c6e565b6114f261172c565b93509350935093509193509193565b60006107ea82612137565b60006107ea82612176565b6004546000906001600160a01b031633141580611532575033155b1561155057604051631ba24f2960e21b815260040160405180910390fd5b60038054600480546001600160a01b03808216610100818102610100600160a81b0319871617968790556001600160a01b031990931690935560408051948390048216808652929095041660208401529290917ff9ffabca9c8276e99321725bcb43fb076a6c66a54b7f21c4e8146d8519b417dc910160405180910390a1600454604080516001600160a01b03808516825290921660208301527fca4f2f25d0898edd99413412fb94012f9e54ec8142f9b093e7720646a95b16a9910160405180910390a160009250505090565b60006116286110bf565b50610b7e82611cb8565b600061163f8484846121b7565b5060009392505050565b6006546000906001600160a01b03166315f24053611665611a36565b600b54600c546040516001600160e01b031960e086901b168152600481019390935260248301919091526044820152606401611353565b6000805460ff166116bf5760405162461bcd60e51b81526004016108159061381a565b6000805460ff191690556116d16110bf565b5061083a82612295565b60005460ff166116fd5760405162461bcd60e51b81526004016108159061381a565b6000805460ff1916905561170f6110bf565b5061171b333383612351565b50506000805460ff19166001179055565b600d546000908061173f57505060075490565b6000611749611a36565b90506000600c54600b548361175e91906138a6565b611768919061388f565b905060008361177f670de0b6b3a7640000846138be565b61178991906138dd565b95945050505050565b5090565b6005546040516317b9b84b60e31b81523060048201526001600160a01b038581166024830152848116604483015260648201849052600092839291169063bdcdc258906084016020604051808303816000875af11580156117fb573d6000803e3d6000fd5b505050506040513d601f19601f8201168201806040525081019061181f919061383e565b905080156118435760405163089d427760e11b815260048101829052602401610815565b836001600160a01b0316856001600160a01b0316141561187657604051638cd22d1960e01b815260040160405180910390fd5b6000856001600160a01b0316876001600160a01b0316141561189b57506000196118c3565b506001600160a01b038086166000908152600f60209081526040808320938a16835292905220545b60006118cf858361388f565b6001600160a01b0388166000908152600e6020526040812054919250906118f790879061388f565b6001600160a01b0388166000908152600e60205260408120549192509061191f9088906138a6565b6001600160a01b03808b166000908152600e6020526040808220869055918b1681522081905590506000198414611979576001600160a01b03808a166000908152600f60209081526040808320938e168352929052208390555b876001600160a01b0316896001600160a01b0316600080516020613969833981519152896040516119ac91815260200190565b60405180910390a35060009998505050505050505050565b60005460ff166119e65760405162461bcd60e51b81526004016108159061381a565b6000805460ff191690556119f86110bf565b50611a04338383612351565b50506000805460ff1916600117905550565b600080611a238484611e6c565b9050611a2e816124fa565b949350505050565b6011546040516370a0823160e01b81523060048201526000916001600160a01b03169081906370a0823190602401602060405180830381865afa158015611a81573d6000803e3d6000fd5b505050506040513d601f19601f82011682018060405250810190611aa5919061383e565b91505090565b6000805460ff16611ace5760405162461bcd60e51b81526004016108159061381a565b6000805460ff19169055611ae06110bf565b50611aea82612512565b5050600090506000805460ff19166001179055919050565b600354600090819061010090046001600160a01b03163314611b3757604051630f7e5e6d60e41b815260040160405180910390fd5b4360095414611b5957604051630dff50cb60e41b815260040160405180910390fd5b82611b62611a36565b1015611b8157604051633345e99960e01b815260040160405180910390fd5b600c54831115611ba4576040516378d2980560e11b815260040160405180910390fd5b82600c54611bb2919061388f565b600c819055600354909150611bd59061010090046001600160a01b0316846125a6565b7f3bad0c59cf2f06e7314077049f48a93578cd16f5ef92329f1dab1420a99c177e600360019054906101000a90046001600160a01b03168483604051610cc5939291906138ff565b60005460ff16611c3f5760405162461bcd60e51b81526004016108159061381a565b6000805460ff19169055611c516110bf565b50611c5e33600083612690565b506000805460ff19166001179055565b6001600160a01b03811660009081526010602052604081208054611c955750600092915050565b600a548154600091611ca6916138be565b9050816001015481611a2e91906138dd565b600354600090819061010090046001600160a01b03163314611ced5760405163407fded560e01b815260040160405180910390fd5b4360095414611d0f57604051630be2a5cb60e11b815260040160405180910390fd5b600660009054906101000a90046001600160a01b03169050826001600160a01b0316632191f92a6040518163ffffffff1660e01b8152600401602060405180830381865afa158015611d65573d6000803e3d6000fd5b505050506040513d601f19601f82011682018060405250810190611d899190613857565b611dd55760405162461bcd60e51b815260206004820152601c60248201527f6d61726b6572206d6574686f642072657475726e65642066616c7365000000006044820152606401610815565b600680546001600160a01b0319166001600160a01b0385811691821790925560408051928416835260208301919091527fedffc32e068c7c95dfd4bdfd5c4d939a084d6b11c4199eac8436ed234d72f9269101610cc5565b60005460ff16611e4f5760405162461bcd60e51b81526004016108159061381a565b6000805460ff19169055611e616110bf565b50611c5e338261296d565b6040805160208101909152600081526040518060200160405280611e94856000015185612b23565b90529392505050565b600080611eaa8585611e6c565b9050611789611eb8826124fa565b84612b2f565b60055460405163d02f735160e01b81523060048201526001600160a01b0386811660248301528581166044830152848116606483015260848201849052600092169063d02f73519060a4016020604051808303816000875af1158015611f28573d6000803e3d6000fd5b505050506040513d601f19601f82011682018060405250810190611f4c919061383e565b90508015611f70576040516363e00e3360e11b815260048101829052602401610815565b836001600160a01b0316836001600160a01b03161415611fa357604051633a94626760e11b815260040160405180910390fd5b6000611fc4836040518060200160405280666379da05b60000815250612b3b565b90506000611fd2828561388f565b905060006040518060200160405280611fe961172c565b905290506000611ff98285611a16565b9050600081600c5461200b91906138a6565b600c819055600d5490915061202190869061388f565b600d556001600160a01b0388166000908152600e602052604090205461204890889061388f565b6001600160a01b03808a166000908152600e602052604080822093909355908b16815220546120789085906138a6565b6001600160a01b03808b166000818152600e602052604090819020939093559151908a1690600080516020613969833981519152906120ba9088815260200190565b60405180910390a360405185815230906001600160a01b038a16906000805160206139698339815191529060200160405180910390a37fa91e67c5ea634cd43a12c5a482724b03de01e85ca68702a53d0c2f45cb7c1dc5308383604051612123939291906138ff565b60405180910390a150505050505050505050565b60005460ff166121595760405162461bcd60e51b81526004016108159061381a565b6000805460ff1916905561216b6110bf565b50611c5e3382612b5e565b60005460ff166121985760405162461bcd60e51b81526004016108159061381a565b6000805460ff191690556121aa6110bf565b50611c5e33826000612690565b60005460ff166121d95760405162461bcd60e51b81526004016108159061381a565b6000805460ff191690556121eb6110bf565b506000816001600160a01b031663a6afed956040518163ffffffff1660e01b81526004016020604051808303816000875af115801561222e573d6000803e3d6000fd5b505050506040513d601f19601f82011682018060405250810190612252919061383e565b9050801561227657604051633eea49b760e11b815260048101829052602401610815565b61228233858585612cfd565b50506000805460ff191660011790555050565b60035460009061010090046001600160a01b031633146122c857604051631205b57b60e11b815260040160405180910390fd5b43600954146122ea57604051637dfca6b760e11b815260040160405180910390fd5b670de0b6b3a76400008211156123135760405163717220f360e11b815260040160405180910390fd5b600880549083905560408051828152602081018590527faaa68312e2ea9d50e16af5068410ab56e1a1fd06037b1a35664812c30f8214609101610cc5565b600554604051631200453160e11b81523060048201526001600160a01b03858116602483015284811660448301526064820184905260009283929116906324008a62906084016020604051808303816000875af11580156123b6573d6000803e3d6000fd5b505050506040513d601f19601f820116820180604052508101906123da919061383e565b905080156123fe57604051638c81362d60e01b815260048101829052602401610815565b43600954146124205760405163c9021e2f60e01b815260040160405180910390fd5b600061242b85611c6e565b90506000600019851461243e5784612440565b815b9050600061244e88836131b7565b9050600061245c828561388f565b9050600082600b5461246e919061388f565b6001600160a01b038a8116600081815260106020908152604091829020878155600a54600190910155600b8590558151938f168452830191909152810185905260608101849052608081018290529091507f1a2a22cb034d26d1854bdc6666a5b91fe25efbbb5dcad3b0355478d6f5c362a19060a00160405180910390a1509098975050505050505050565b8051600090610b7e90670de0b6b3a7640000906138dd565b6000808080436009541461253c576040516338acf79960e01b815260048101829052602401610815565b61254633866131b7565b905080600c5461255691906138a6565b915081600c819055507fa91e67c5ea634cd43a12c5a482724b03de01e85ca68702a53d0c2f45cb7c1dc5338284604051612592939291906138ff565b60405180910390a160009590945092505050565b60115460405163a9059cbb60e01b81526001600160a01b0384811660048301526024820184905290911690819063a9059cbb90604401600060405180830381600087803b1580156125f657600080fd5b505af115801561260a573d6000803e3d6000fd5b5050505060003d60008114612626576020811461263057600080fd5b600019915061263c565b60206000803e60005191505b508061268a5760405162461bcd60e51b815260206004820152601960248201527f544f4b454e5f5452414e534645525f4f55545f4641494c4544000000000000006044820152606401610815565b50505050565b81158061269b575080155b6127045760405162461bcd60e51b815260206004820152603460248201527f6f6e65206f662072656465656d546f6b656e73496e206f722072656465656d416044820152736d6f756e74496e206d757374206265207a65726f60601b6064820152608401610815565b6000604051806020016040528061271961172c565b90529050600080841561273a578491506127338386611a16565b905061274a565b612744848461338e565b91508390505b60055460405163eabe7d9160e01b81526000916001600160a01b03169063eabe7d919061277f9030908b908890600401613920565b6020604051808303816000875af115801561279e573d6000803e3d6000fd5b505050506040513d601f19601f820116820180604052508101906127c2919061383e565b905080156127e65760405163480f424760e01b815260048101829052602401610815565b4360095414612808576040516397b5cfcd60e01b815260040160405180910390fd5b81612811611a36565b1015612830576040516391240a1b60e01b815260040160405180910390fd5b82600d5461283e919061388f565b600d556001600160a01b0387166000908152600e602052604090205461286590849061388f565b6001600160a01b0388166000908152600e602052604090205561288887836125a6565b60405183815230906001600160a01b038916906000805160206139698339815191529060200160405180910390a37fe5b754fb1abb7f01b499791d0b820ae3b6af3424ac1c59768edb53f4ec31a9298783856040516128e9939291906138ff565b60405180910390a16005546040516351dff98960e01b81523060048201526001600160a01b0389811660248301526044820185905260648201869052909116906351dff98990608401600060405180830381600087803b15801561294c57600080fd5b505af1158015612960573d6000803e3d6000fd5b5050505050505050505050565b600554604051634ef4c3e160e01b81526000916001600160a01b031690634ef4c3e1906129a290309087908790600401613920565b6020604051808303816000875af11580156129c1573d6000803e3d6000fd5b505050506040513d601f19601f820116820180604052508101906129e5919061383e565b90508015612a09576040516349abd4fd60e01b815260048101829052602401610815565b4360095414612a2b576040516338d8859760e01b815260040160405180910390fd5b60006040518060200160405280612a4061172c565b905290506000612a5085856131b7565b90506000612a5e828461338e565b905080600d54612a6e91906138a6565b600d556001600160a01b0386166000908152600e6020526040902054612a959082906138a6565b6001600160a01b0387166000908152600e60205260409081902091909155517f4c209b5fc8ad50758f13e2e1088ba56a560dff690a1c6fef26394f4c03821c4f90612ae5908890859085906138ff565b60405180910390a16040518181526001600160a01b0387169030906000805160206139698339815191529060200160405180910390a3505050505050565b6000610b6282846138be565b6000610b6282846138a6565b6000670de0b6b3a7640000612b54848460000151612b23565b610b6291906138dd565b60055460405163368f515360e21b81526000916001600160a01b03169063da3d454c90612b9390309087908790600401613920565b6020604051808303816000875af1158015612bb2573d6000803e3d6000fd5b505050506040513d601f19601f82011682018060405250810190612bd6919061383e565b90508015612bfa5760405163918db40f60e01b815260048101829052602401610815565b4360095414612c1c57604051630e8d8c6160e21b815260040160405180910390fd5b81612c25611a36565b1015612c44576040516348c2588160e01b815260040160405180910390fd5b6000612c4f84611c6e565b90506000612c5d84836138a6565b9050600084600b54612c6f91906138a6565b6001600160a01b0387166000908152601060205260409020838155600a54600190910155600b8190559050612ca486866125a6565b604080516001600160a01b038816815260208101879052908101839052606081018290527f13ed6866d4e1ee6da46f845c46d7e54120883d75c5ea9a2dacc1c4ca8984ab809060800160405180910390a1505050505050565b600554604051632fe3f38f60e11b81523060048201526001600160a01b03838116602483015286811660448301528581166064830152608482018590526000921690635fc7e71e9060a4016020604051808303816000875af1158015612d67573d6000803e3d6000fd5b505050506040513d601f19601f82011682018060405250810190612d8b919061383e565b90508015612daf57604051630a14d17960e11b815260048101829052602401610815565b4360095414612dd1576040516380965b1b60e01b815260040160405180910390fd5b43826001600160a01b0316636c540baf6040518163ffffffff1660e01b8152600401602060405180830381865afa158015612e10573d6000803e3d6000fd5b505050506040513d601f19601f82011682018060405250810190612e34919061383e565b14612e5257604051631046f38d60e31b815260040160405180910390fd5b846001600160a01b0316846001600160a01b03161415612e8557604051631bd1a62160e21b815260040160405180910390fd5b82612ea35760405163d29da7ef60e01b815260040160405180910390fd5b600019831415612ec657604051635982c5bb60e11b815260040160405180910390fd5b6000612ed3868686612351565b60055460405163c488847b60e01b815291925060009182916001600160a01b03169063c488847b90612f0d90309089908890600401613920565b6040805180830381865afa158015612f29573d6000803e3d6000fd5b505050506040513d601f19601f82011682018060405250810190612f4d9190613944565b9150915060008214612fbd5760405162461bcd60e51b815260206004820152603360248201527f4c49515549444154455f434f4d5054524f4c4c45525f43414c43554c4154455f604482015272105353d5539517d4d152569157d19052531151606a1b6064820152608401610815565b6040516370a0823160e01b81526001600160a01b0388811660048301528291908716906370a0823190602401602060405180830381865afa158015613006573d6000803e3d6000fd5b505050506040513d601f19601f8201168201806040525081019061302a919061383e565b10156130785760405162461bcd60e51b815260206004820152601860248201527f4c49515549444154455f5345495a455f544f4f5f4d55434800000000000000006044820152606401610815565b6001600160a01b03851630141561309a5761309530898984611ebe565b613154565b60405163b2a02ff160e01b81526000906001600160a01b0387169063b2a02ff1906130cd908c908c908790600401613920565b6020604051808303816000875af11580156130ec573d6000803e3d6000fd5b505050506040513d601f19601f82011682018060405250810190613110919061383e565b146131545760405162461bcd60e51b81526020600482015260146024820152731d1bdad95b881cd95a5e9d5c994819985a5b195960621b6044820152606401610815565b604080516001600160a01b038a811682528981166020830152818301869052871660608201526080810183905290517f298637f684da70674f26509b10f07ec2fbc77a335ab1e7d6215a4b2484d8bb529181900360a00190a15050505050505050565b6011546040516370a0823160e01b81523060048201526000916001600160a01b0316908190839082906370a0823190602401602060405180830381865afa158015613206573d6000803e3d6000fd5b505050506040513d601f19601f8201168201806040525081019061322a919061383e565b6040516323b872dd60e01b81529091506001600160a01b038316906323b872dd9061325d90899030908a90600401613920565b600060405180830381600087803b15801561327757600080fd5b505af115801561328b573d6000803e3d6000fd5b5050505060003d600081146132a757602081146132b157600080fd5b60001991506132bd565b60206000803e60005191505b508061330b5760405162461bcd60e51b815260206004820152601860248201527f544f4b454e5f5452414e534645525f494e5f4641494c454400000000000000006044820152606401610815565b6040516370a0823160e01b81523060048201526000906001600160a01b038616906370a0823190602401602060405180830381865afa158015613352573d6000803e3d6000fd5b505050506040513d601f19601f82011682018060405250810190613376919061383e565b9050613382838261388f565b98975050505050505050565b6000610b626133a584670de0b6b3a7640000612b23565b83516000610b6282846138dd565b8280546133bf906137df565b90600052602060002090601f0160209004810192826133e15760008555613427565b82601f106133fa57805160ff1916838001178555613427565b82800160010185558215613427579182015b8281111561342757825182559160200191906001019061340c565b506117929291505b80821115611792576000815560010161342f565b600060208083528351808285015260005b8181101561347057858101830151858201604001528201613454565b81811115613482576000604083870101525b50601f01601f1916929092016040019392505050565b6001600160a01b03811681146134ad57600080fd5b50565b600080604083850312156134c357600080fd5b82356134ce81613498565b946020939093013593505050565b6000602082840312156134ee57600080fd5b5035919050565b60006020828403121561350757600080fd5b8135610b6281613498565b634e487b7160e01b600052604160045260246000fd5b600082601f83011261353957600080fd5b813567ffffffffffffffff8082111561355457613554613512565b604051601f8301601f19908116603f0116810190828211818310171561357c5761357c613512565b8160405283815286602085880101111561359557600080fd5b836020870160208301376000602085830101528094505050505092915050565b803560ff811681146135c657600080fd5b919050565b600080600080600080600060e0888a0312156135e657600080fd5b87356135f181613498565b9650602088013561360181613498565b9550604088013561361181613498565b945060608801359350608088013567ffffffffffffffff8082111561363557600080fd5b6136418b838c01613528565b945060a08a013591508082111561365757600080fd5b506136648a828b01613528565b92505061367360c089016135b5565b905092959891949750929550565b60008060006060848603121561369657600080fd5b83356136a181613498565b925060208401356136b181613498565b929592945050506040919091013590565b60008060008060008060c087890312156136db57600080fd5b86356136e681613498565b955060208701356136f681613498565b945060408701359350606087013567ffffffffffffffff8082111561371a57600080fd5b6137268a838b01613528565b9450608089013591508082111561373c57600080fd5b5061374989828a01613528565b92505061375860a088016135b5565b90509295509295509295565b6000806040838503121561377757600080fd5b823561378281613498565b9150602083013561379281613498565b809150509250929050565b6000806000606084860312156137b257600080fd5b83356137bd81613498565b92506020840135915060408401356137d481613498565b809150509250925092565b600181811c908216806137f357607f821691505b6020821081141561381457634e487b7160e01b600052602260045260246000fd5b50919050565b6020808252600a90820152691c994b595b9d195c995960b21b604082015260600190565b60006020828403121561385057600080fd5b5051919050565b60006020828403121561386957600080fd5b81518015158114610b6257600080fd5b634e487b7160e01b600052601160045260246000fd5b6000828210156138a1576138a1613879565b500390565b600082198211156138b9576138b9613879565b500190565b60008160001904831182151516156138d8576138d8613879565b500290565b6000826138fa57634e487b7160e01b600052601260045260246000fd5b500490565b6001600160a01b039390931683526020830191909152604082015260600190565b6001600160a01b039384168152919092166020820152604081019190915260600190565b6000806040838503121561395757600080fd5b50508051602090910151909290915056feddf252ad1be2c89b69c2b068fc378daa952ba7f163c4a11628f55a4df523b3efa2646970667358221220f9cc040a2d8b1333b733a5f9f7294b9e02449f6cc5db5d3c48add0ed33ebd75d64736f6c634300080a0033","linkReferences":{}},"methodIdentifiers":{"NO_ERROR()":"69ab3250","_acceptAdmin()":"e9c714f2","_addReserves(uint256)":"3e941010","_delegateCompLikeTo(address)":"7f1e06be","_reduceReserves(uint256)":"601a0bf1","_setComptroller(address)":"4576b5db","_setInterestRateModel(address)":"f2b3abbd","_setPendingAdmin(address)":"b71d1a0c","_setReserveFactor(uint256)":"fca7820b","accrualBlockNumber()":"6c540baf","accrueInterest()":"a6afed95","admin()":"f851a440","allowance(address,address)":"dd62ed3e","approve(address,uint256)":"095ea7b3","balanceOf(address)":"70a08231","balanceOfUnderlying(address)":"3af9e669","borrow(uint256)":"c5ebeaec","borrowBalanceCurrent(address)":"17bfdfbc","borrowBalanceStored(address)":"95dd9193","borrowIndex()":"aa5af0fd","borrowRatePerBlock()":"f8f9da28","comptroller()":"5fe3b567","decimals()":"313ce567","exchangeRateCurrent()":"bd6d894d","exchangeRateStored()":"182df0f5","getAccountSnapshot(address)":"c37f68e2","getCash()":"3b1d21a2","initialize(address,address,address,uint256,string,string,uint8)":"1a31d465","initialize(address,address,uint256,string,string,uint8)":"99d8c1b4","interestRateModel()":"f3fdb15a","isCToken()":"fe9c44ae","liquidateBorrow(address,uint256,address)":"f5e3c462","mint(uint256)":"a0712d68","name()":"06fdde03","pendingAdmin()":"26782247","protocolSeizeShareMantissa()":"6752e702","redeem(uint256)":"db006a75","redeemUnderlying(uint256)":"852a12e3","repayBorrow(uint256)":"0e752702","repayBorrowBehalf(address,uint256)":"2608f818","reserveFactorMantissa()":"173b9904","seize(address,address,uint256)":"b2a02ff1","supplyRatePerBlock()":"ae9d70b0","sweepToken(address)":"1be19560","symbol()":"95d89b41","totalBorrows()":"47bd3718","totalBorrowsCurrent()":"73acee98","totalReserves()":"8f840ddd","totalSupply()":"18160ddd","transfer(address,uint256)":"a9059cbb","transferFrom(address,address,uint256)":"23b872dd","underlying()":"6f307dc3"},"id":5}