{"abi":[{"type":"constructor","inputs":[],"stateMutability":"nonpayable"},{"type":"function","name":"_become","inputs":[{"name":"unitroller","type":"address","internalType":"contract Unitroller"}],"outputs":[],"stateMutability":"nonpayable"},{"type":"function","name":"_borrowGuardianPaused","inputs":[],"outputs":[{"name":"","type":"bool","internalType":"bool"}],"stateMutability":"view"},{"type":"function","name":"_grantComp","inputs":[{"name":"recipient","type":"address","internalType":"address"},{"name":"amount","type":"uint256","internalType":"uint256"}],"outputs":[],"stateMutability":"nonpayable"},{"type":"function","name":"_mintGuardianPaused","inputs":[],"outputs":[{"name":"","type":"bool","internalType":"bool"}],"stateMutability":"view"},{"type":"function","name":"_setBorrowCapGuardian","inputs":[{"name":"newBorrowCapGuardian","type":"address","internalType":"address"}],"outputs":[],"stateMutability":"nonpayable"},{"type":"function","name":"_setBorrowPaused","inputs":[{"name":"cToken","type":"address","internalType":"contract CToken"},{"name":"state","type":"bool","internalType":"bool"}],"outputs":[{"name":"","type":"bool","internalType":"bool"}],"stateMutability":"nonpayable"},{"type":"function","name":"_setCloseFactor","inputs":[{"name":"newCloseFactorMantissa","type":"uint256","internalType":"uint256"}],"outputs":[{"name":"","type":"uint256","internalType":"uint256"}],"stateMutability":"nonpayable"},{"type":"function","name":"_setCollateralFactor","inputs":[{"name":"cToken","type":"address","internalType":"contract CToken"},{"name":"newCollateralFactorMantissa","type":"uint256","internalType":"uint256"}],"outputs":[{"name":"","type":"uint256","internalType":"uint256"}],"stateMutability":"nonpayable"},{"type":"function","name":"_setCompSpeeds","inputs":[{"name":"cTokens","type":"address[]","internalType":"contract CToken[]"},{"name":"supplySpeeds","type":"uint256[]","internalType":"uint256[]"},{"name":"borrowSpeeds","type":"uint256[]","internalType":"uint256[]"}],"outputs":[],"stateMutability":"nonpayable"},{"type":"function","name":"_setContributorCompSpeed","inputs":[{"name":"contributor","type":"address","internalType":"address"},{"name":"compSpeed","type":"uint256","internalType":"uint256"}],"outputs":[],"stateMutability":"nonpayable"},{"type":"function","name":"_setLiquidationIncentive","inputs":[{"name":"newLiquidationIncentiveMantissa","type":"uint256","internalType":"uint256"}],"outputs":[{"name":"","type":"uint256","internalType":"uint256"}],"stateMutability":"nonpayable"},{"type":"function","name":"_setMarketBorrowCaps","inputs":[{"name":"cTokens","type":"address[]","internalType":"contract CToken[]"},{"name":"newBorrowCaps","type":"uint256[]","internalType":"uint256[]"}],"outputs":[],"stateMutability":"nonpayable"},{"type":"function","name":"_setMintPaused","inputs":[{"name":"cToken","type":"address","internalType":"contract CToken"},{"name":"state","type":"bool","internalType":"bool"}],"outputs":[{"name":"","type":"bool","internalType":"bool"}],"stateMutability":"nonpayable"},{"type":"function","name":"_setPauseGuardian","inputs":[{"name":"newPauseGuardian","type":"address","internalType":"address"}],"outputs":[{"name":"","type":"uint256","internalType":"uint256"}],"stateMutability":"nonpayable"},{"type":"function","name":"_setPriceOracle","inputs":[{"name":"newOracle","type":"address","internalType":"contract PriceOracle"}],"outputs":[{"name":"","type":"uint256","internalType":"uint256"}],"stateMutability":"nonpayable"},{"type":"function","name":"_setSeizePaused","inputs":[{"name":"state","type":"bool","internalType":"bool"}],"outputs":[{"name":"","type":"bool","internalType":"bool"}],"stateMutability":"nonpayable"},{"type":"function","name":"_setTransferPaused","inputs":[{"name":"state","type":"bool","internalType":"bool"}],"outputs":[{"name":"","type":"bool","internalType":"bool"}],"stateMutability":"nonpayable"},{"type":"function","name":"_supportMarket","inputs":[{"name":"cToken","type":"address","internalType":"contract CToken"}],"outputs":[{"name":"","type":"uint256","internalType":"uint256"}],"stateMutability":"nonpayable"},{"type":"function","name":"accountAssets","inputs":[{"name":"","type":"address","internalType":"address"},{"name":"","type":"uint256","internalType":"uint256"}],"outputs":[{"name":"","type":"address","internalType":"contract CToken"}],"stateMutability":"view"},{"type":"function","name":"admin","inputs":[],"outputs":[{"name":"","type":"address","internalType":"address"}],"stateMutability":"view"},{"type":"function","name":"allMarkets","inputs":[{"name":"","type":"uint256","internalType":"uint256"}],"outputs":[{"name":"","type":"address","internalType":"contract CToken"}],"stateMutability":"view"},{"type":"function","name":"borrowAllowed","inputs":[{"name":"cToken","type":"address","internalType":"address"},{"name":"borrower","type":"address","internalType":"address"},{"name":"borrowAmount","type":"uint256","internalType":"uint256"}],"outputs":[{"name":"","type":"uint256","internalType":"uint256"}],"stateMutability":"nonpayable"},{"type":"function","name":"borrowCapGuardian","inputs":[],"outputs":[{"name":"","type":"address","internalType":"address"}],"stateMutability":"view"},{"type":"function","name":"borrowCaps","inputs":[{"name":"","type":"address","internalType":"address"}],"outputs":[{"name":"","type":"uint256","internalType":"uint256"}],"stateMutability":"view"},{"type":"function","name":"borrowGuardianPaused","inputs":[{"name":"","type":"address","internalType":"address"}],"outputs":[{"name":"","type":"bool","internalType":"bool"}],"stateMutability":"view"},{"type":"function","name":"borrowVerify","inputs":[{"name":"cToken","type":"address","internalType":"address"},{"name":"borrower","type":"address","internalType":"address"},{"name":"borrowAmount","type":"uint256","internalType":"uint256"}],"outputs":[],"stateMutability":"nonpayable"},{"type":"function","name":"checkMembership","inputs":[{"name":"account","type":"address","internalType":"address"},{"name":"cToken","type":"address","internalType":"contract CToken"}],"outputs":[{"name":"","type":"bool","internalType":"bool"}],"stateMutability":"view"},{"type":"function","name":"claimComp","inputs":[{"name":"holder","type":"address","internalType":"address"},{"name":"cTokens","type":"address[]","internalType":"contract CToken[]"}],"outputs":[],"stateMutability":"nonpayable"},{"type":"function","name":"claimComp","inputs":[{"name":"holders","type":"address[]","internalType":"address[]"},{"name":"cTokens","type":"address[]","internalType":"contract CToken[]"},{"name":"borrowers","type":"bool","internalType":"bool"},{"name":"suppliers","type":"bool","internalType":"bool"}],"outputs":[],"stateMutability":"nonpayable"},{"type":"function","name":"claimComp","inputs":[{"name":"holder","type":"address","internalType":"address"}],"outputs":[],"stateMutability":"nonpayable"},{"type":"function","name":"closeFactorMantissa","inputs":[],"outputs":[{"name":"","type":"uint256","internalType":"uint256"}],"stateMutability":"view"},{"type":"function","name":"compAccrued","inputs":[{"name":"","type":"address","internalType":"address"}],"outputs":[{"name":"","type":"uint256","internalType":"uint256"}],"stateMutability":"view"},{"type":"function","name":"compBorrowSpeeds","inputs":[{"name":"","type":"address","internalType":"address"}],"outputs":[{"name":"","type":"uint256","internalType":"uint256"}],"stateMutability":"view"},{"type":"function","name":"compBorrowState","inputs":[{"name":"","type":"address","internalType":"address"}],"outputs":[{"name":"index","type":"uint224","internalType":"uint224"},{"name":"block","type":"uint32","internalType":"uint32"}],"stateMutability":"view"},{"type":"function","name":"compBorrowerIndex","inputs":[{"name":"","type":"address","internalType":"address"},{"name":"","type":"address","internalType":"address"}],"outputs":[{"name":"","type":"uint256","internalType":"uint256"}],"stateMutability":"view"},{"type":"function","name":"compContributorSpeeds","inputs":[{"name":"","type":"address","internalType":"address"}],"outputs":[{"name":"","type":"uint256","internalType":"uint256"}],"stateMutability":"view"},{"type":"function","name":"compInitialIndex","inputs":[],"outputs":[{"name":"","type":"uint224","internalType":"uint224"}],"stateMutability":"view"},{"type":"function","name":"compRate","inputs":[],"outputs":[{"name":"","type":"uint256","internalType":"uint256"}],"stateMutability":"view"},{"type":"function","name":"compReceivable","inputs":[{"name":"","type":"address","internalType":"address"}],"outputs":[{"name":"","type":"uint256","internalType":"uint256"}],"stateMutability":"view"},{"type":"function","name":"compSpeeds","inputs":[{"name":"","type":"address","internalType":"address"}],"outputs":[{"name":"","type":"uint256","internalType":"uint256"}],"stateMutability":"view"},{"type":"function","name":"compSupplierIndex","inputs":[{"name":"","type":"address","internalType":"address"},{"name":"","type":"address","internalType":"address"}],"outputs":[{"name":"","type":"uint256","internalType":"uint256"}],"stateMutability":"view"},{"type":"function","name":"compSupplySpeeds","inputs":[{"name":"","type":"address","internalType":"address"}],"outputs":[{"name":"","type":"uint256","internalType":"uint256"}],"stateMutability":"view"},{"type":"function","name":"compSupplyState","inputs":[{"name":"","type":"address","internalType":"address"}],"outputs":[{"name":"index","type":"uint224","internalType":"uint224"},{"name":"block","type":"uint32","internalType":"uint32"}],"stateMutability":"view"},{"type":"function","name":"comptrollerImplementation","inputs":[],"outputs":[{"name":"","type":"address","internalType":"address"}],"stateMutability":"view"},{"type":"function","name":"enterMarkets","inputs":[{"name":"cTokens","type":"address[]","internalType":"address[]"}],"outputs":[{"name":"","type":"uint256[]","internalType":"uint256[]"}],"stateMutability":"nonpayable"},{"type":"function","name":"exitMarket","inputs":[{"name":"cTokenAddress","type":"address","internalType":"address"}],"outputs":[{"name":"","type":"uint256","internalType":"uint256"}],"stateMutability":"nonpayable"},{"type":"function","name":"fixBadAccruals","inputs":[{"name":"affectedUsers","type":"address[]","internalType":"address[]"},{"name":"amounts","type":"uint256[]","internalType":"uint256[]"}],"outputs":[],"stateMutability":"nonpayable"},{"type":"function","name":"getAccountLiquidity","inputs":[{"name":"account","type":"address","internalType":"address"}],"outputs":[{"name":"","type":"uint256","internalType":"uint256"},{"name":"","type":"uint256","internalType":"uint256"},{"name":"","type":"uint256","internalType":"uint256"}],"stateMutability":"view"},{"type":"function","name":"getAllMarkets","inputs":[],"outputs":[{"name":"","type":"address[]","internalType":"contract CToken[]"}],"stateMutability":"view"},{"type":"function","name":"getAssetsIn","inputs":[{"name":"account","type":"address","internalType":"address"}],"outputs":[{"name":"","type":"address[]","internalType":"contract CToken[]"}],"stateMutability":"view"},{"type":"function","name":"getBlockNumber","inputs":[],"outputs":[{"name":"","type":"uint256","internalType":"uint256"}],"stateMutability":"view"},{"type":"function","name":"getCompAddress","inputs":[],"outputs":[{"name":"","type":"address","internalType":"address"}],"stateMutability":"view"},{"type":"function","name":"getHypotheticalAccountLiquidity","inputs":[{"name":"account","type":"address","internalType":"address"},{"name":"cTokenModify","type":"address","internalType":"address"},{"name":"redeemTokens","type":"uint256","internalType":"uint256"},{"name":"borrowAmount","type":"uint256","internalType":"uint256"}],"outputs":[{"name":"","type":"uint256","internalType":"uint256"},{"name":"","type":"uint256","internalType":"uint256"},{"name":"","type":"uint256","internalType":"uint256"}],"stateMutability":"view"},{"type":"function","name":"isComptroller","inputs":[],"outputs":[{"name":"","type":"bool","internalType":"bool"}],"stateMutability":"view"},{"type":"function","name":"isDeprecated","inputs":[{"name":"cToken","type":"address","internalType":"contract CToken"}],"outputs":[{"name":"","type":"bool","internalType":"bool"}],"stateMutability":"view"},{"type":"function","name":"lastContributorBlock","inputs":[{"name":"","type":"address","internalType":"address"}],"outputs":[{"name":"","type":"uint256","internalType":"uint256"}],"stateMutability":"view"},{"type":"function","name":"liquidateBorrowAllowed","inputs":[{"name":"cTokenBorrowed","type":"address","internalType":"address"},{"name":"cTokenCollateral","type":"address","internalType":"address"},{"name":"liquidator","type":"address","internalType":"address"},{"name":"borrower","type":"address","internalType":"address"},{"name":"repayAmount","type":"uint256","internalType":"uint256"}],"outputs":[{"name":"","type":"uint256","internalType":"uint256"}],"stateMutability":"nonpayable"},{"type":"function","name":"liquidateBorrowVerify","inputs":[{"name":"cTokenBorrowed","type":"address","internalType":"address"},{"name":"cTokenCollateral","type":"address","internalType":"address"},{"name":"liquidator","type":"address","internalType":"address"},{"name":"borrower","type":"address","internalType":"address"},{"name":"actualRepayAmount","type":"uint256","internalType":"uint256"},{"name":"seizeTokens","type":"uint256","internalType":"uint256"}],"outputs":[],"stateMutability":"nonpayable"},{"type":"function","name":"liquidateCalculateSeizeTokens","inputs":[{"name":"cTokenBorrowed","type":"address","internalType":"address"},{"name":"cTokenCollateral","type":"address","internalType":"address"},{"name":"actualRepayAmount","type":"uint256","internalType":"uint256"}],"outputs":[{"name":"","type":"uint256","internalType":"uint256"},{"name":"","type":"uint256","internalType":"uint256"}],"stateMutability":"view"},{"type":"function","name":"liquidationIncentiveMantissa","inputs":[],"outputs":[{"name":"","type":"uint256","internalType":"uint256"}],"stateMutability":"view"},{"type":"function","name":"markets","inputs":[{"name":"","type":"address","internalType":"address"}],"outputs":[{"name":"isListed","type":"bool","internalType":"bool"},{"name":"collateralFactorMantissa","type":"uint256","internalType":"uint256"},{"name":"isComped","type":"bool","internalType":"bool"}],"stateMutability":"view"},{"type":"function","name":"maxAssets","inputs":[],"outputs":[{"name":"","type":"uint256","internalType":"uint256"}],"stateMutability":"view"},{"type":"function","name":"mintAllowed","inputs":[{"name":"cToken","type":"address","internalType":"address"},{"name":"minter","type":"address","internalType":"address"},{"name":"mintAmount","type":"uint256","internalType":"uint256"}],"outputs":[{"name":"","type":"uint256","internalType":"uint256"}],"stateMutability":"nonpayable"},{"type":"function","name":"mintGuardianPaused","inputs":[{"name":"","type":"address","internalType":"address"}],"outputs":[{"name":"","type":"bool","internalType":"bool"}],"stateMutability":"view"},{"type":"function","name":"mintVerify","inputs":[{"name":"cToken","type":"address","internalType":"address"},{"name":"minter","type":"address","internalType":"address"},{"name":"actualMintAmount","type":"uint256","internalType":"uint256"},{"name":"mintTokens","type":"uint256","internalType":"uint256"}],"outputs":[],"stateMutability":"nonpayable"},{"type":"function","name":"oracle","inputs":[],"outputs":[{"name":"","type":"address","internalType":"contract PriceOracle"}],"stateMutability":"view"},{"type":"function","name":"pauseGuardian","inputs":[],"outputs":[{"name":"","type":"address","internalType":"address"}],"stateMutability":"view"},{"type":"function","name":"pendingAdmin","inputs":[],"outputs":[{"name":"","type":"address","internalType":"address"}],"stateMutability":"view"},{"type":"function","name":"pendingComptrollerImplementation","inputs":[],"outputs":[{"name":"","type":"address","internalType":"address"}],"stateMutability":"view"},{"type":"function","name":"proposal65FixExecuted","inputs":[],"outputs":[{"name":"","type":"bool","internalType":"bool"}],"stateMutability":"view"},{"type":"function","name":"redeemAllowed","inputs":[{"name":"cToken","type":"address","internalType":"address"},{"name":"redeemer","type":"address","internalType":"address"},{"name":"redeemTokens","type":"uint256","internalType":"uint256"}],"outputs":[{"name":"","type":"uint256","internalType":"uint256"}],"stateMutability":"nonpayable"},{"type":"function","name":"redeemVerify","inputs":[{"name":"cToken","type":"address","internalType":"address"},{"name":"redeemer","type":"address","internalType":"address"},{"name":"redeemAmount","type":"uint256","internalType":"uint256"},{"name":"redeemTokens","type":"uint256","internalType":"uint256"}],"outputs":[],"stateMutability":"nonpayable"},{"type":"function","name":"repayBorrowAllowed","inputs":[{"name":"cToken","type":"address","internalType":"address"},{"name":"payer","type":"address","internalType":"address"},{"name":"borrower","type":"address","internalType":"address"},{"name":"repayAmount","type":"uint256","internalType":"uint256"}],"outputs":[{"name":"","type":"uint256","internalType":"uint256"}],"stateMutability":"nonpayable"},{"type":"function","name":"repayBorrowVerify","inputs":[{"name":"cToken","type":"address","internalType":"address"},{"name":"payer","type":"address","internalType":"address"},{"name":"borrower","type":"address","internalType":"address"},{"name":"actualRepayAmount","type":"uint256","internalType":"uint256"},{"name":"borrowerIndex","type":"uint256","internalType":"uint256"}],"outputs":[],"stateMutability":"nonpayable"},{"type":"function","name":"seizeAllowed","inputs":[{"name":"cTokenCollateral","type":"address","internalType":"address"},{"name":"cTokenBorrowed","type":"address","internalType":"address"},{"name":"liquidator","type":"address","internalType":"address"},{"name":"borrower","type":"address","internalType":"address"},{"name":"seizeTokens","type":"uint256","internalType":"uint256"}],"outputs":[{"name":"","type":"uint256","internalType":"uint256"}],"stateMutability":"nonpayable"},{"type":"function","name":"seizeGuardianPaused","inputs":[],"outputs":[{"name":"","type":"bool","internalType":"bool"}],"stateMutability":"view"},{"type":"function","name":"seizeVerify","inputs":[{"name":"cTokenCollateral","type":"address","internalType":"address"},{"name":"cTokenBorrowed","type":"address","internalType":"address"},{"name":"liquidator","type":"address","internalType":"address"},{"name":"borrower","type":"address","internalType":"address"},{"name":"seizeTokens","type":"uint256","internalType":"uint256"}],"outputs":[],"stateMutability":"nonpayable"},{"type":"function","name":"transferAllowed","inputs":[{"name":"cToken","type":"address","internalType":"address"},{"name":"src","type":"address","internalType":"address"},{"name":"dst","type":"address","internalType":"address"},{"name":"transferTokens","type":"uint256","internalType":"uint256"}],"outputs":[{"name":"","type":"uint256","internalType":"uint256"}],"stateMutability":"nonpayable"},{"type":"function","name":"transferGuardianPaused","inputs":[],"outputs":[{"name":"","type":"bool","internalType":"bool"}],"stateMutability":"view"},{"type":"function","name":"transferVerify","inputs":[{"name":"cToken","type":"address","internalType":"address"},{"name":"src","type":"address","internalType":"address"},{"name":"dst","type":"address","internalType":"address"},{"name":"transferTokens","type":"uint256","internalType":"uint256"}],"outputs":[],"stateMutability":"nonpayable"},{"type":"function","name":"updateContributorRewards","inputs":[{"name":"contributor","type":"address","internalType":"address"}],"outputs":[],"stateMutability":"nonpayable"},{"type":"event","name":"ActionPaused","inputs":[{"name":"action","type":"string","indexed":false,"internalType":"string"},{"name":"pauseState","type":"bool","indexed":false,"internalType":"bool"}],"anonymous":false},{"type":"event","name":"ActionPaused","inputs":[{"name":"cToken","type":"address","indexed":false,"internalType":"contract CToken"},{"name":"action","type":"string","indexed":false,"internalType":"string"},{"name":"pauseState","type":"bool","indexed":false,"internalType":"bool"}],"anonymous":false},{"type":"event","name":"CompAccruedAdjusted","inputs":[{"name":"user","type":"address","indexed":true,"internalType":"address"},{"name":"oldCompAccrued","type":"uint256","indexed":false,"internalType":"uint256"},{"name":"newCompAccrued","type":"uint256","indexed":false,"internalType":"uint256"}],"anonymous":false},{"type":"event","name":"CompBorrowSpeedUpdated","inputs":[{"name":"cToken","type":"address","indexed":true,"internalType":"contract CToken"},{"name":"newSpeed","type":"uint256","indexed":false,"internalType":"uint256"}],"anonymous":false},{"type":"event","name":"CompGranted","inputs":[{"name":"recipient","type":"address","indexed":false,"internalType":"address"},{"name":"amount","type":"uint256","indexed":false,"internalType":"uint256"}],"anonymous":false},{"type":"event","name":"CompReceivableUpdated","inputs":[{"name":"user","type":"address","indexed":true,"internalType":"address"},{"name":"oldCompReceivable","type":"uint256","indexed":false,"internalType":"uint256"},{"name":"newCompReceivable","type":"uint256","indexed":false,"internalType":"uint256"}],"anonymous":false},{"type":"event","name":"CompSupplySpeedUpdated","inputs":[{"name":"cToken","type":"address","indexed":true,"internalType":"contract CToken"},{"name":"newSpeed","type":"uint256","indexed":false,"internalType":"uint256"}],"anonymous":false},{"type":"event","name":"ContributorCompSpeedUpdated","inputs":[{"name":"contributor","type":"address","indexed":true,"internalType":"address"},{"name":"newSpeed","type":"uint256","indexed":false,"internalType":"uint256"}],"anonymous":false},{"type":"event","name":"DistributedBorrowerComp","inputs":[{"name":"cToken","type":"address","indexed":true,"internalType":"contract CToken"},{"name":"borrower","type":"address","indexed":true,"internalType":"address"},{"name":"compDelta","type":"uint256","indexed":false,"internalType":"uint256"},{"name":"compBorrowIndex","type":"uint256","indexed":false,"internalType":"uint256"}],"anonymous":false},{"type":"event","name":"DistributedSupplierComp","inputs":[{"name":"cToken","type":"address","indexed":true,"internalType":"contract CToken"},{"name":"supplier","type":"address","indexed":true,"internalType":"address"},{"name":"compDelta","type":"uint256","indexed":false,"internalType":"uint256"},{"name":"compSupplyIndex","type":"uint256","indexed":false,"internalType":"uint256"}],"anonymous":false},{"type":"event","name":"Failure","inputs":[{"name":"error","type":"uint256","indexed":false,"internalType":"uint256"},{"name":"info","type":"uint256","indexed":false,"internalType":"uint256"},{"name":"detail","type":"uint256","indexed":false,"internalType":"uint256"}],"anonymous":false},{"type":"event","name":"MarketEntered","inputs":[{"name":"cToken","type":"address","indexed":false,"internalType":"contract CToken"},{"name":"account","type":"address","indexed":false,"internalType":"address"}],"anonymous":false},{"type":"event","name":"MarketExited","inputs":[{"name":"cToken","type":"address","indexed":false,"internalType":"contract CToken"},{"name":"account","type":"address","indexed":false,"internalType":"address"}],"anonymous":false},{"type":"event","name":"MarketListed","inputs":[{"name":"cToken","type":"address","indexed":false,"internalType":"contract CToken"}],"anonymous":false},{"type":"event","name":"NewBorrowCap","inputs":[{"name":"cToken","type":"address","indexed":true,"internalType":"contract CToken"},{"name":"newBorrowCap","type":"uint256","indexed":false,"internalType":"uint256"}],"anonymous":false},{"type":"event","name":"NewBorrowCapGuardian","inputs":[{"name":"oldBorrowCapGuardian","type":"address","indexed":false,"internalType":"address"},{"name":"newBorrowCapGuardian","type":"address","indexed":false,"internalType":"address"}],"anonymous":false},{"type":"event","name":"NewCloseFactor","inputs":[{"name":"oldCloseFactorMantissa","type":"uint256","indexed":false,"internalType":"uint256"},{"name":"newCloseFactorMantissa","type":"uint256","indexed":false,"internalType":"uint256"}],"anonymous":false},{"type":"event","name":"NewCollateralFactor","inputs":[{"name":"cToken","type":"address","indexed":false,"internalType":"contract CToken"},{"name":"oldCollateralFactorMantissa","type":"uint256","indexed":false,"internalType":"uint256"},{"name":"newCollateralFactorMantissa","type":"uint256","indexed":false,"internalType":"uint256"}],"anonymous":false},{"type":"event","name":"NewLiquidationIncentive","inputs":[{"name":"oldLiquidationIncentiveMantissa","type":"uint256","indexed":false,"internalType":"uint256"},{"name":"newLiquidationIncentiveMantissa","type":"uint256","indexed":false,"internalType":"uint256"}],"anonymous":false},{"type":"event","name":"NewPauseGuardian","inputs":[{"name":"oldPauseGuardian","type":"address","indexed":false,"internalType":"address"},{"name":"newPauseGuardian","type":"address","indexed":false,"internalType":"address"}],"anonymous":false},{"type":"event","name":"NewPriceOracle","inputs":[{"name":"oldPriceOracle","type":"address","indexed":false,"internalType":"contract PriceOracle"},{"name":"newPriceOracle","type":"address","indexed":false,"internalType":"contract PriceOracle"}],"anonymous":false}],"bytecode":{"object":"0x608060405234801561001057600080fd5b50600080546001600160a01b0319163317905561520f806100326000396000f3fe608060405234801561001057600080fd5b506004361061048a5760003560e01c8063731f0c2b11610262578063b21be7fd11610151578063dce15449116100ce578063e9af029211610092578063e9af029214610c04578063eabe7d9114610c17578063ede4edd014610c2a578063f00a7a9214610c3d578063f4a433c014610c4a578063f851a44014610c6a57600080fd5b8063dce1544914610bae578063dcfbc0c714610bc1578063e4028eee14610bd4578063e6653f3d14610be7578063e875544614610bfb57600080fd5b8063c488847b11610115578063c488847b14610b15578063ca0af04314610b3d578063cc7ebdc414610b68578063d02f735114610b88578063da3d454c14610b9b57600080fd5b8063b21be7fd14610a84578063bb82aa5e14610aaf578063bdcdc25814610ac2578063bea6b8b814610ad5578063c299823814610af557600080fd5b806394b2294b116101df578063a8b43948116101a3578063a8b4394814610a2c578063aa90075414610a3f578063abfceffc14610a48578063ac0b0bb714610a68578063b0772d0b14610a7c57600080fd5b806394b2294b146109a9578063986ab838146109b25780639d1b5a0a146109d2578063a76b3fda146109ec578063a7f0e231146109ff57600080fd5b80638c57804e116102265780638c57804e146108b75780638e8f294b146108ef5780638ebf636414610942578063929fe9a11461095557806394543c151461099657600080fd5b8063731f0c2b1461083a578063741b25251461085d5780637dc0d1d01461087057806385b7beb81461088357806387f76303146108a357600080fd5b80634a5844321161037e5780635ec88c79116102fb5780636a56947e116102bf5780636a56947e1461077f5780636aa875b51461078d5780636b79c38d146107ad5780636d154ea5146108095780636d35bf911461082c57600080fd5b80635ec88c79146107205780635f5af1aa146107335780635fc7e71e14610746578063607ef6c1146107595780636810dfa61461076c57600080fd5b806351dff9891161034257806351dff989146106c157806352d84d1e146106d457806355ee1fe1146106e7578063598ee1cb146106fa5780635c7786051461070d57600080fd5b80634a584432146106445780634ada90af146106645780634e79238f1461066d5780634ef4c3e11461069b5780634fd42e17146106ae57600080fd5b8063267822471161040c5780633bcf7ec1116103d05780633bcf7ec1146105ed5780633c94786f1461060057806341c728b91461061457806342cbb15c1461062857806347ef3b3b1461062e57600080fd5b8063267822471461058e57806327efe3cb146105a15780632d70db78146105b4578063317b0b77146105c7578063391957d7146105da57600080fd5b80631d7b33d7116104535780631d7b33d7146104fa5780631ededc911461052857806321af45691461053d57806324008a621461056857806324a3d6221461057b57600080fd5b80627e3dd21461048f57806316b95e8f146104ac57806318c882a5146104c15780631c3db2e0146104d45780631d504dc6146104e7575b600080fd5b610497600181565b60405190151581526020015b60405180910390f35b6104bf6104ba366004614810565b610c7d565b005b6104976104cf36600461489f565b610f26565b6104bf6104e23660046149b7565b61105f565b6104bf6104f5366004614a07565b6110c2565b61051a610508366004614a07565b600f6020526000908152604090205481565b6040519081526020016104a3565b6104bf610536366004614a24565b5050505050565b601554610550906001600160a01b031681565b6040516001600160a01b0390911681526020016104a3565b61051a610576366004614a7f565b611240565b600a54610550906001600160a01b031681565b600154610550906001600160a01b031681565b6104bf6105af366004614ad0565b6112fe565b6104976105c2366004614afc565b611399565b61051a6105d5366004614b19565b611489565b6104bf6105e8366004614a07565b611530565b6104976105fb36600461489f565b6115f3565b600a5461049790600160a01b900460ff1681565b6104bf610622366004614b32565b50505050565b4361051a565b6104bf61063c366004614b78565b505050505050565b61051a610652366004614a07565b60166020526000908152604090205481565b61051a60065481565b61068061067b366004614b32565b61171d565b604080519384526020840192909252908201526060016104a3565b61051a6106a9366004614be6565b61175d565b61051a6106bc366004614b19565b6117fe565b6104bf6106cf366004614b32565b61185b565b6105506106e2366004614b19565b6118aa565b61051a6106f5366004614a07565b6118d4565b6104bf610708366004614ad0565b61194d565b6104bf61071b366004614be6565b505050565b61068061072e366004614a07565b611a41565b61051a610741366004614a07565b611a7c565b61051a610754366004614c27565b611af5565b6104bf610767366004614810565b611cc4565b6104bf61077a366004614cef565b611ea2565b6104bf610622366004614a7f565b61051a61079b366004614a07565b601a6020526000908152604090205481565b6107e56107bb366004614a07565b6010602052600090815260409020546001600160e01b03811690600160e01b900463ffffffff1682565b604080516001600160e01b03909316835263ffffffff9091166020830152016104a3565b610497610817366004614a07565b600c6020526000908152604090205460ff1681565b6104bf610536366004614c27565b610497610848366004614a07565b600b6020526000908152604090205460ff1681565b6104bf61086b366004614a07565b612088565b600454610550906001600160a01b031681565b61051a610891366004614a07565b601c6020526000908152604090205481565b600a5461049790600160b01b900460ff1681565b6107e56108c5366004614a07565b6011602052600090815260409020546001600160e01b03811690600160e01b900463ffffffff1682565b6109236108fd366004614a07565b60096020526000908152604090208054600182015460039092015460ff91821692911683565b60408051931515845260208401929092521515908201526060016104a3565b610497610950366004614afc565b612134565b610497610963366004614d78565b6001600160a01b038082166000908152600960209081526040808320938616835260029093019052205460ff1692915050565b6104976109a4366004614a07565b61221b565b61051a60075481565b61051a6109c0366004614a07565b60176020526000908152604090205481565b73c00e94cb662c3520282e6f5717214004a7f26888610550565b61051a6109fa366004614a07565b6122da565b610a146a0c097ce7bc90715b34b9f160241b81565b6040516001600160e01b0390911681526020016104a3565b6104bf610a3a366004614e01565b61240c565b61051a600e5481565b610a5b610a56366004614a07565b612541565b6040516104a39190614e89565b600a5461049790600160b81b900460ff1681565b610a5b6125b7565b61051a610a92366004614d78565b601260209081526000928352604080842090915290825290205481565b600254610550906001600160a01b031681565b61051a610ad0366004614a7f565b612619565b61051a610ae3366004614a07565b60186020526000908152604090205481565b610b08610b03366004614ed6565b6126a4565b6040516104a39190614f0b565b610b28610b23366004614be6565b61276c565b604080519283526020830191909152016104a3565b61051a610b4b366004614d78565b601360209081526000928352604080842090915290825290205481565b61051a610b76366004614a07565b60146020526000908152604090205481565b61051a610b96366004614c27565b61298a565b61051a610ba9366004614be6565b612b31565b610550610bbc366004614ad0565b612f01565b600354610550906001600160a01b031681565b61051a610be2366004614ad0565b612f39565b600a5461049790600160a81b900460ff1681565b61051a60055481565b6104bf610c12366004614a07565b6130cb565b61051a610c25366004614be6565b61312f565b61051a610c38366004614a07565b61316a565b601b546104979060ff1681565b61051a610c58366004614a07565b60196020526000908152604090205481565b600054610550906001600160a01b031681565b6000546001600160a01b03163314610ce65760405162461bcd60e51b815260206004820152602160248201527f4f6e6c792061646d696e2063616e2063616c6c20746869732066756e6374696f6044820152603760f91b60648201526084015b60405180910390fd5b601b5460ff1615610d485760405162461bcd60e51b815260206004820152602660248201527f416c72656164792065786563757465642074686973206f6e652d6f66662066756044820152653731ba34b7b760d11b6064820152608401610cdd565b828114610d875760405162461bcd60e51b815260206004820152600d60248201526c125b9d985b1a59081a5b9c1d5d609a1b6044820152606401610cdd565b60008060008060005b87811015610f0e57888882818110610daa57610daa614f43565b9050602002016020810190610dbf9190614a07565b6001600160a01b0381166000908152601460205260409020549095509350868682818110610def57610def614f43565b90506020020135925083831115610e93576000610e0c8585614f6f565b6001600160a01b0387166000908152601c6020526040812054919250610e3282846134d0565b6001600160a01b0389166000818152601c6020908152604091829020849055815186815290810184905292935090917f17fea09d9a7ca41b2f9f9118f18f44848a62e9c70d55dd4385131eb2cf1b7e47910160405180910390a28695505050505b8215610efe57610ea384846134dc565b6001600160a01b038616600081815260146020908152604091829020849055815188815290810184905292945090917f4a5c134e28b537a76546993ea37f3b60d9190476df7356d3842aa40902e20f04910160405180910390a25b610f0781614f86565b9050610d90565b5050601b805460ff1916600117905550505050505050565b6001600160a01b03821660009081526009602052604081205460ff16610f5e5760405162461bcd60e51b8152600401610cdd90614fa1565b600a546001600160a01b0316331480610f8157506000546001600160a01b031633145b610f9d5760405162461bcd60e51b8152600401610cdd90614fe9565b6000546001600160a01b0316331480610fb857506001821515145b610fd45760405162461bcd60e51b8152600401610cdd90615030565b6001600160a01b0383166000818152600c6020908152604091829020805460ff19168615159081179091558251938452606091840182905260069184019190915265426f72726f7760d01b6080840152908201527f71aec636243f9709bb0007ae15e9afb8150ab01716d75fd7573be5cc096e03b09060a0015b60405180910390a150805b92915050565b60408051600180825281830190925260009160208083019080368337019050509050828160008151811061109557611095614f43565b60200260200101906001600160a01b031690816001600160a01b03168152505061071b8183600180611ea2565b806001600160a01b031663f851a4406040518163ffffffff1660e01b8152600401602060405180830381865afa158015611100573d6000803e3d6000fd5b505050506040513d601f19601f820116820180604052508101906111249190615060565b6001600160a01b0316336001600160a01b0316146111945760405162461bcd60e51b815260206004820152602760248201527f6f6e6c7920756e6974726f6c6c65722061646d696e2063616e206368616e676560448201526620627261696e7360c81b6064820152608401610cdd565b806001600160a01b031663c1e803346040518163ffffffff1660e01b81526004016020604051808303816000875af11580156111d4573d6000803e3d6000fd5b505050506040513d601f19601f820116820180604052508101906111f8919061507d565b1561123d5760405162461bcd60e51b815260206004820152601560248201527418da185b99d9481b9bdd08185d5d1a1bdc9a5e9959605a1b6044820152606401610cdd565b50565b6001600160a01b03841660009081526009602052604081205460ff16611268575060096112f6565b60006040518060200160405280876001600160a01b031663aa5af0fd6040518163ffffffff1660e01b8152600401602060405180830381865afa1580156112b3573d6000803e3d6000fd5b505050506040513d601f19601f820116820180604052508101906112d7919061507d565b905290506112e586826134e8565b6112f08685836136db565b60009150505b949350505050565b61130661385b565b6113525760405162461bcd60e51b815260206004820152601960248201527f6f6e6c792061646d696e2063616e206772616e7420636f6d70000000000000006044820152606401610cdd565b604080516001600160a01b0384168152602081018390527f98b2f82a3a07f223a0be64b3d0f47711c64dccd1feafb94aa28156b38cd9695c91015b60405180910390a15050565b600a546000906001600160a01b03163314806113bf57506000546001600160a01b031633145b6113db5760405162461bcd60e51b8152600401610cdd90614fe9565b6000546001600160a01b03163314806113f657506001821515145b6114125760405162461bcd60e51b8152600401610cdd90615030565b600a8054831515600160b81b0260ff60b81b199091161790556040517fef159d9a32b2472e32b098f954f3ce62d232939f1c207070b584df1814de2de09061147d9084906040808252600590820152645365697a6560d81b6060820152901515602082015260800190565b60405180910390a15090565b600080546001600160a01b031633146114e45760405162461bcd60e51b815260206004820152601f60248201527f6f6e6c792061646d696e2063616e2073657420636c6f736520666163746f72006044820152606401610cdd565b600580549083905560408051828152602081018590527f3b9670cf975d26958e754b57098eaa2ac914d8d2a31b83257997b9f346110fd991015b60405180910390a160005b9392505050565b6000546001600160a01b031633146115995760405162461bcd60e51b815260206004820152602660248201527f6f6e6c792061646d696e2063616e2073657420626f72726f772063617020677560448201526530b93234b0b760d11b6064820152608401610cdd565b601580546001600160a01b038381166001600160a01b031983168117909355604080519190921680825260208201939093527feda98690e518e9a05f8ec6837663e188211b2da8f4906648b323f2c1d4434e29910161138d565b6001600160a01b03821660009081526009602052604081205460ff1661162b5760405162461bcd60e51b8152600401610cdd90614fa1565b600a546001600160a01b031633148061164e57506000546001600160a01b031633145b61166a5760405162461bcd60e51b8152600401610cdd90614fe9565b6000546001600160a01b031633148061168557506001821515145b6116a15760405162461bcd60e51b8152600401610cdd90615030565b6001600160a01b0383166000818152600b6020908152604091829020805460ff19168615159081179091558251938452606091840182905260049184019190915263135a5b9d60e21b6080840152908201527f71aec636243f9709bb0007ae15e9afb8150ab01716d75fd7573be5cc096e03b09060a00161104e565b6000806000806000806117328a8a8a8a613884565b92509250925082601181111561174a5761174a615096565b95509093509150505b9450945094915050565b6001600160a01b0383166000908152600b602052604081205460ff16156117b75760405162461bcd60e51b815260206004820152600e60248201526d1b5a5b9d081a5cc81c185d5cd95960921b6044820152606401610cdd565b6001600160a01b03841660009081526009602052604090205460ff166117e15760095b9050611529565b6117ea84613bb2565b6117f48484613d2a565b6000949350505050565b600080546001600160a01b0316331461181d576110596001600b613ec8565b600680549083905560408051828152602081018590527faeba5a6c40a8ac138134bff1aaa65debf25971188a58804bad717f82f0ec1316910161151e565b801580156118695750600082115b156106225760405162461bcd60e51b815260206004820152601160248201527072656465656d546f6b656e73207a65726f60781b6044820152606401610cdd565b600d81815481106118ba57600080fd5b6000918252602090912001546001600160a01b0316905081565b600080546001600160a01b031633146118f35761105960016010613ec8565b600480546001600160a01b038481166001600160a01b031983168117909355604080519190921680825260208201939093527fd52b2b9b7e9ee655fcb95d2e5b9e0c9f69e7ef2b8e9d2d0ea78402d576d22e22910161151e565b61195561385b565b6119a15760405162461bcd60e51b815260206004820152601d60248201527f6f6e6c792061646d696e2063616e2073657420636f6d702073706565640000006044820152606401610cdd565b6119aa82612088565b806119cd576001600160a01b0382166000908152601860205260408120556119e8565b436001600160a01b0383166000908152601860205260409020555b6001600160a01b03821660008181526017602052604090819020839055517f386537fa92edc3319af95f1f904dcf1900021e4f3f4e08169a577a09076e66b390611a359084815260200190565b60405180910390a25050565b600080600080600080611a58876000806000613884565b925092509250826011811115611a7057611a70615096565b97919650945092505050565b600080546001600160a01b03163314611a9b5761105960016013613ec8565b600a80546001600160a01b038481166001600160a01b031983168117909355604080519190921680825260208201939093527f0613b6ee6a04f0d09f390e4d9318894b9f6ac7fd83897cd8d18896ba579c401e910161151e565b6001600160a01b03851660009081526009602052604081205460ff161580611b3657506001600160a01b03851660009081526009602052604090205460ff16155b15611b455760095b9050611cbb565b6040516395dd919360e01b81526001600160a01b038481166004830152600091908816906395dd919390602401602060405180830381865afa158015611b8f573d6000803e3d6000fd5b505050506040513d601f19601f82011682018060405250810190611bb3919061507d565b9050611bbe8761221b565b15611c295782811015611c245760405162461bcd60e51b815260206004820152602860248201527f43616e206e6f74207265706179206d6f7265207468616e2074686520746f74616044820152676c20626f72726f7760c01b6064820152608401610cdd565b611cb5565b600080611c3586613f41565b91935090915060009050826011811115611c5157611c51615096565b14611c7257816011811115611c6857611c68615096565b9350505050611cbb565b80611c7e576003611c68565b6000611c9a604051806020016040528060055481525085613f61565b905080861115611cb1576011945050505050611cbb565b5050505b60009150505b95945050505050565b6000546001600160a01b0316331480611ce757506015546001600160a01b031633145b611d515760405162461bcd60e51b815260206004820152603560248201527f6f6e6c792061646d696e206f7220626f72726f772063617020677561726469616044820152746e2063616e2073657420626f72726f77206361707360581b6064820152608401610cdd565b82818115801590611d6157508082145b611d9d5760405162461bcd60e51b815260206004820152600d60248201526c1a5b9d985b1a59081a5b9c1d5d609a1b6044820152606401610cdd565b60005b82811015611e9957848482818110611dba57611dba614f43565b9050602002013560166000898985818110611dd757611dd7614f43565b9050602002016020810190611dec9190614a07565b6001600160a01b03168152602081019190915260400160002055868682818110611e1857611e18614f43565b9050602002016020810190611e2d9190614a07565b6001600160a01b03167f6f1951b2aad10f3fc81b86d91105b413a5b3f847a34bbc5ce1904201b14438f6868684818110611e6957611e69614f43565b90506020020135604051611e7f91815260200190565b60405180910390a280611e9181614f86565b915050611da0565b50505050505050565b60005b8351811015612069576000848281518110611ec257611ec2614f43565b6020908102919091018101516001600160a01b0381166000908152600990925260409091205490915060ff16611f325760405162461bcd60e51b81526020600482015260156024820152741b585c9ad95d081b5d5cdd081899481b1a5cdd1959605a1b6044820152606401610cdd565b60018415151415611fff5760006040518060200160405280836001600160a01b031663aa5af0fd6040518163ffffffff1660e01b8152600401602060405180830381865afa158015611f88573d6000803e3d6000fd5b505050506040513d601f19601f82011682018060405250810190611fac919061507d565b90529050611fba82826134e8565b60005b8751811015611ffc57611fea83898381518110611fdc57611fdc614f43565b6020026020010151846136db565b80611ff481614f86565b915050611fbd565b50505b600183151514156120565761201381613bb2565b60005b8651811015612054576120428288838151811061203557612035614f43565b6020026020010151613d2a565b8061204c81614f86565b915050612016565b505b508061206181614f86565b915050611ea5565b5060005b8451811015610536578061208081614f86565b91505061206d565b6001600160a01b0381166000908152601760209081526040808320546018909252822054909143916120bb9083906134dc565b90506000811180156120cd5750600083115b156106225760006120de8285613f79565b6001600160a01b0386166000908152601460205260408120549192509061210590836134d0565b6001600160a01b0387166000908152601460209081526040808320939093556018905220849055505050505050565b600a546000906001600160a01b031633148061215a57506000546001600160a01b031633145b6121765760405162461bcd60e51b8152600401610cdd90614fe9565b6000546001600160a01b031633148061219157506001821515145b6121ad5760405162461bcd60e51b8152600401610cdd90615030565b600a8054831515600160b01b0260ff60b01b199091161790556040517fef159d9a32b2472e32b098f954f3ce62d232939f1c207070b584df1814de2de09061147d9084906040808252600890820152672a3930b739b332b960c11b6060820152901515602082015260800190565b6001600160a01b03811660009081526009602052604081206001015415801561226157506001600160a01b0382166000908152600c602052604090205460ff1615156001145b80156110595750816001600160a01b031663173b99046040518163ffffffff1660e01b8152600401602060405180830381865afa1580156122a6573d6000803e3d6000fd5b505050506040513d601f19601f820116820180604052508101906122ca919061507d565b670de0b6b3a76400001492915050565b600080546001600160a01b031633146122f95761105960016012613ec8565b6001600160a01b03821660009081526009602052604090205460ff161561232657611059600a6011613ec8565b816001600160a01b031663fe9c44ae6040518163ffffffff1660e01b8152600401602060405180830381865afa158015612364573d6000803e3d6000fd5b505050506040513d601f19601f8201168201806040525081019061238891906150ac565b506001600160a01b03821660009081526009602052604081208054600160ff19918216811783556003830180549092169091558101919091556123ca83613f85565b6123d38361406e565b6040516001600160a01b03841681527fcf583bb0c569eb967f806b11601c4cb93c10310485c67add5f8362c2f212321f9060200161151e565b61241461385b565b6124605760405162461bcd60e51b815260206004820152601d60248201527f6f6e6c792061646d696e2063616e2073657420636f6d702073706565640000006044820152606401610cdd565b82518251811480156124725750815181145b6124d05760405162461bcd60e51b815260206004820152602960248201527f436f6d7074726f6c6c65723a3a5f736574436f6d7053706565647320696e76616044820152681b1a59081a5b9c1d5d60ba1b6064820152608401610cdd565b60005b81811015610536576125318582815181106124f0576124f0614f43565b602002602001015185838151811061250a5761250a614f43565b602002602001015185848151811061252457612524614f43565b602002602001015161412a565b61253a81614f86565b90506124d3565b6001600160a01b03811660009081526008602090815260408083208054825181850281018501909352808352606094938301828280156125aa57602002820191906000526020600020905b81546001600160a01b0316815260019091019060200180831161258c575b5093979650505050505050565b6060600d80548060200260200160405190810160405280929190818152602001828054801561260f57602002820191906000526020600020905b81546001600160a01b031681526001909101906020018083116125f1575b5050505050905090565b600a54600090600160b01b900460ff161561266b5760405162461bcd60e51b81526020600482015260126024820152711d1c985b9cd9995c881a5cc81c185d5cd95960721b6044820152606401610cdd565b6000612678868685614309565b905080156126875790506112f6565b61269086613bb2565b61269a8686613d2a565b6112f08685613d2a565b805160609060008167ffffffffffffffff8111156126c4576126c46148d8565b6040519080825280602002602001820160405280156126ed578160200160208202803683370190505b50905060005b8281101561276457600085828151811061270f5761270f614f43565b6020026020010151905061272381336143c1565b601181111561273457612734615096565b83838151811061274657612746614f43565b6020908102919091010152508061275c81614f86565b9150506126f3565b509392505050565b6004805460405163fc57d4df60e01b81526001600160a01b03868116938201939093526000928392839291169063fc57d4df90602401602060405180830381865afa1580156127bf573d6000803e3d6000fd5b505050506040513d601f19601f820116820180604052508101906127e3919061507d565b6004805460405163fc57d4df60e01b81526001600160a01b038981169382019390935292935060009291169063fc57d4df90602401602060405180830381865afa158015612835573d6000803e3d6000fd5b505050506040513d601f19601f82011682018060405250810190612859919061507d565b9050811580612866575080155b1561287a57600d6000935093505050612982565b6000866001600160a01b031663182df0f56040518163ffffffff1660e01b8152600401602060405180830381865afa1580156128ba573d6000803e3d6000fd5b505050506040513d601f19601f820116820180604052508101906128de919061507d565b905060006128f86040518060200160405280600081525090565b604080516020808201835260008083528351808301855290815283518083018552600654815284519283019094528882529192612934916144b6565b925061295c6040518060200160405280888152506040518060200160405280888152506144b6565b915061296883836144fe565b9050612974818b613f61565b600099509750505050505050505b935093915050565b600a54600090600160b81b900460ff16156129d95760405162461bcd60e51b815260206004820152600f60248201526e1cd95a5e99481a5cc81c185d5cd959608a1b6044820152606401610cdd565b6001600160a01b03861660009081526009602052604090205460ff161580612a1a57506001600160a01b03851660009081526009602052604090205460ff16155b15612a26576009611b3e565b846001600160a01b0316635fe3b5676040518163ffffffff1660e01b8152600401602060405180830381865afa158015612a64573d6000803e3d6000fd5b505050506040513d601f19601f82011682018060405250810190612a889190615060565b6001600160a01b0316866001600160a01b0316635fe3b5676040518163ffffffff1660e01b8152600401602060405180830381865afa158015612acf573d6000803e3d6000fd5b505050506040513d601f19601f82011682018060405250810190612af39190615060565b6001600160a01b031614612b08576002611b3e565b612b1186613bb2565b612b1b8684613d2a565b612b258685613d2a565b60009695505050505050565b6001600160a01b0383166000908152600c602052604081205460ff1615612b8d5760405162461bcd60e51b815260206004820152601060248201526f189bdc9c9bddc81a5cc81c185d5cd95960821b6044820152606401610cdd565b6001600160a01b03841660009081526009602052604090205460ff16612bb45760096117da565b6001600160a01b038085166000908152600960209081526040808320938716835260029093019052205460ff16612cb157336001600160a01b03851614612c355760405162461bcd60e51b815260206004820152601560248201527439b2b73232b91036bab9ba1031329031aa37b5b2b760591b6044820152606401610cdd565b6000612c4133856143c1565b90506000816011811115612c5757612c57615096565b14612c7657806011811115612c6e57612c6e615096565b915050611529565b6001600160a01b038086166000908152600960209081526040808320938816835260029093019052205460ff16612caf57612caf6150c9565b505b6004805460405163fc57d4df60e01b81526001600160a01b038781169382019390935291169063fc57d4df90602401602060405180830381865afa158015612cfd573d6000803e3d6000fd5b505050506040513d601f19601f82011682018060405250810190612d21919061507d565b612d2c57600d6117da565b6001600160a01b0384166000908152601660205260409020548015612e11576000856001600160a01b03166347bd37186040518163ffffffff1660e01b8152600401602060405180830381865afa158015612d8b573d6000803e3d6000fd5b505050506040513d601f19601f82011682018060405250810190612daf919061507d565b90506000612dbd82866134d0565b9050828110612e0e5760405162461bcd60e51b815260206004820152601960248201527f6d61726b657420626f72726f77206361702072656163686564000000000000006044820152606401610cdd565b50505b600080612e218688600088613884565b91935090915060009050826011811115612e3d57612e3d615096565b14612e5e57816011811115612e5457612e54615096565b9350505050611529565b8015612e6b576004612e54565b60006040518060200160405280896001600160a01b031663aa5af0fd6040518163ffffffff1660e01b8152600401602060405180830381865afa158015612eb6573d6000803e3d6000fd5b505050506040513d601f19601f82011682018060405250810190612eda919061507d565b90529050612ee888826134e8565b612ef38888836136db565b600098975050505050505050565b60086020528160005260406000208181548110612f1d57600080fd5b6000918252602090912001546001600160a01b03169150829050565b600080546001600160a01b03163314612f5f57612f5860016006613ec8565b9050611059565b6001600160a01b0383166000908152600960205260409020805460ff16612f9457612f8c60096007613ec8565b915050611059565b60408051602080820183528582528251908101909252670c7d713b49da0000825290612fc281835190511090565b15612fdd57612fd360066008613ec8565b9350505050611059565b841580159061305957506004805460405163fc57d4df60e01b81526001600160a01b038981169382019390935291169063fc57d4df90602401602060405180830381865afa158015613033573d6000803e3d6000fd5b505050506040513d601f19601f82011682018060405250810190613057919061507d565b155b1561306a57612fd3600d6009613ec8565b60018301805490869055604080516001600160a01b0389168152602081018390529081018790527f70483e6592cd5182d45ac970e05bc62cdcc90e9d8ef2c2dbe686cf383bcd7fc59060600160405180910390a16000979650505050505050565b61123d81600d80548060200260200160405190810160405280929190818152602001828054801561312557602002820191906000526020600020905b81546001600160a01b03168152600190910190602001808311613107575b505050505061105f565b60008061313d858585614309565b9050801561314c579050611529565b61315585613bb2565b61315f8585613d2a565b600095945050505050565b6040516361bfb47160e11b815233600482015260009082908290819081906001600160a01b0385169063c37f68e290602401608060405180830381865afa1580156131b9573d6000803e3d6000fd5b505050506040513d601f19601f820116820180604052508101906131dd91906150df565b50925092509250826000146132425760405162461bcd60e51b815260206004820152602560248201527f657869744d61726b65743a206765744163636f756e74536e617073686f742066604482015264185a5b195960da1b6064820152608401610cdd565b801561325e57613254600c6002613ec8565b9695505050505050565b600061326b873385614309565b9050801561328b57613280600e600383614538565b979650505050505050565b6001600160a01b0385166000908152600960209081526040808320338452600281019092529091205460ff166132c957600098975050505050505050565b3360009081526002820160209081526040808320805460ff19169055600882528083208054825181850281018501909352808352919290919083018282801561333b57602002820191906000526020600020905b81546001600160a01b0316815260019091019060200180831161331d575b5050835193945083925060009150505b828110156133a057896001600160a01b031684828151811061336f5761336f614f43565b60200260200101516001600160a01b0316141561338e578091506133a0565b8061339881614f86565b91505061334b565b508181106133b0576133b06150c9565b336000908152600860205260409020805481906133cf90600190614f6f565b815481106133df576133df614f43565b9060005260206000200160009054906101000a90046001600160a01b031681838154811061340f5761340f614f43565b9060005260206000200160006101000a8154816001600160a01b0302191690836001600160a01b031602179055508080548061344d5761344d615115565b600082815260209020810160001990810180546001600160a01b03191690550190556040517fe699a64c18b07ac5b7301aa273f36a2287239eb9501d81950672794afba29a0d906134b6908c9033906001600160a01b0392831681529116602082015260400190565b60405180910390a160009c9b505050505050505050505050565b6000611529828461512b565b60006115298284614f6f565b6001600160a01b03821660009081526011602090815260408083206019909252822054909161354d435b6040518060400160405280601c81526020017f626c6f636b206e756d62657220657863656564732033322062697473000000008152506145b0565b835490915060009061356f9063ffffffff80851691600160e01b9004166134dc565b90506000811180156135815750600083115b156136b05760006135f3876001600160a01b03166347bd37186040518163ffffffff1660e01b8152600401602060405180830381865afa1580156135c9573d6000803e3d6000fd5b505050506040513d601f19601f820116820180604052508101906135ed919061507d565b876145e0565b905060006136018386613f79565b90506000808311613621576040518060200160405280600081525061362b565b61362b82846145fe565b604080516020810190915288546001600160e01b0316815290915061368e906136549083614639565b5160408051808201909152601a81527f6e657720696e64657820657863656564732032323420626974730000000000006020820152614665565b6001600160e01b0316600160e01b63ffffffff8716021787555061063c915050565b801561063c57835463ffffffff8316600160e01b026001600160e01b03909116178455505050505050565b6001600160a01b03838116600090815260116020908152604080832080546013845282852095881685529490925290912080546001600160e01b039093169081905590918015801561373b57506a0c097ce7bc90715b34b9f160241b8210155b1561375157506a0c097ce7bc90715b34b9f160241b5b6000604051806020016040528061376885856134dc565b90526040516395dd919360e01b81526001600160a01b0388811660048301529192506000916137bb91908a16906395dd919390602401602060405180830381865afa1580156135c9573d6000803e3d6000fd5b905060006137c9828461468c565b6001600160a01b038916600090815260146020526040812054919250906137f090836134d0565b6001600160a01b038a811660008181526014602090815260409182902085905581518781529081018b90529394509092918d16917f1fc3ecc087d8d2d15e23d0032af5a47059c3892d003d8e139fdcb6bb327c99a6910160405180910390a350505050505050505050565b600080546001600160a01b031633148061387f57506002546001600160a01b031633145b905090565b6000806000613891614722565b6001600160a01b0388166000908152600860209081526040808320805482518185028101850190935280835284938301828280156138f857602002820191906000526020600020905b81546001600160a01b031681526001909101906020018083116138da575b5050505050905060005b8151811015613b5c57600082828151811061391f5761391f614f43565b60209081029190910101516040516361bfb47160e11b81526001600160a01b038e811660048301529192509082169063c37f68e290602401608060405180830381865afa158015613974573d6000803e3d6000fd5b505050506040513d601f19601f8201168201806040525081019061399891906150df565b608089015260608801526040870152935083156139c457600f6000809750975097505050505050611753565b60408051602080820183526001600160a01b0384811660008181526009845285902060010154845260c08a01939093528351808301855260808a0151815260e08a015260048054855163fc57d4df60e01b815291820194909452935192169263fc57d4df92602480830193928290030181865afa158015613a49573d6000803e3d6000fd5b505050506040513d601f19601f82011682018060405250810190613a6d919061507d565b60a08601819052613a8d57600d6000809750975097505050505050611753565b604080516020810190915260a0860151815261010086015260c085015160e0860151613ac791613abc916144b6565b8661010001516144b6565b610120860181905260408601518651613ae19291906146b5565b855261010085015160608601516020870151613afe9291906146b5565b60208601526001600160a01b03818116908c161415613b4957613b2b8561012001518b87602001516146b5565b60208601819052610100860151613b43918b906146b5565b60208601525b5080613b5481614f86565b915050613902565b50602083015183511115613b8d5760208301518351600091613b7d91614f6f565b6000955095509550505050611753565b60008084600001518560200151613ba49190614f6f565b955095509550505050611753565b6001600160a01b0381166000908152601060209081526040808320601a9092528220549091613be043613512565b8354909150600090613c029063ffffffff80851691600160e01b9004166134dc565b9050600081118015613c145750600083115b15613d00576000856001600160a01b03166318160ddd6040518163ffffffff1660e01b8152600401602060405180830381865afa158015613c59573d6000803e3d6000fd5b505050506040513d601f19601f82011682018060405250810190613c7d919061507d565b90506000613c8b8386613f79565b90506000808311613cab5760405180602001604052806000815250613cb5565b613cb582846145fe565b604080516020810190915288546001600160e01b03168152909150613cde906136549083614639565b6001600160e01b0316600160e01b63ffffffff87160217875550610536915050565b801561053657835463ffffffff8316600160e01b026001600160e01b039091161784555050505050565b6001600160a01b03828116600090815260106020908152604080832080546012845282852095871685529490925290912080546001600160e01b0390931690819055909180158015613d8a57506a0c097ce7bc90715b34b9f160241b8210155b15613da057506a0c097ce7bc90715b34b9f160241b5b60006040518060200160405280613db785856134dc565b90526040516370a0823160e01b81526001600160a01b0387811660048301529192506000918816906370a0823190602401602060405180830381865afa158015613e05573d6000803e3d6000fd5b505050506040513d601f19601f82011682018060405250810190613e29919061507d565b90506000613e37828461468c565b6001600160a01b03881660009081526014602052604081205491925090613e5e90836134d0565b6001600160a01b0389811660008181526014602090815260409182902085905581518781529081018b90529394509092918c16917f2caecd17d02f56fa897705dcc740da2d237c373f70686f4e0d9bd3bf0400ea7a910160405180910390a3505050505050505050565b60007f45b96fe442630264581b197e84bbada861235052c5a1aadfff9ea4e40a969aa0836011811115613efd57613efd615096565b836013811115613f0f57613f0f615096565b60408051928352602083019190915260009082015260600160405180910390a182601181111561152957611529615096565b6000806000613f54846000806000613884565b9250925092509193909250565b600080613f6e84846146d6565b90506112f6816146fe565b60006115298284615143565b60005b600d5481101561401b57816001600160a01b0316600d8281548110613faf57613faf614f43565b6000918252602090912001546001600160a01b031614156140095760405162461bcd60e51b81526020600482015260146024820152731b585c9ad95d08185b1c9958591e48185919195960621b6044820152606401610cdd565b8061401381614f86565b915050613f88565b50600d80546001810182556000919091527fd7b6990105719101dabeb77144f2a3385c8033acd3af97e9423a695e81ad1eb50180546001600160a01b0319166001600160a01b0392909216919091179055565b600061407943613512565b6001600160a01b03831660009081526010602090815260408083206011909252909120815492935090916001600160e01b03166140cf5781546001600160e01b0319166a0c097ce7bc90715b34b9f160241b1782555b80546001600160e01b03166140fd5780546001600160e01b0319166a0c097ce7bc90715b34b9f160241b1781555b805463ffffffff909316600160e01b026001600160e01b0393841681179091558154909216909117905550565b6001600160a01b0383166000908152600960205260409020805460ff166141935760405162461bcd60e51b815260206004820152601960248201527f636f6d70206d61726b6574206973206e6f74206c6973746564000000000000006044820152606401610cdd565b6001600160a01b0384166000908152601a60205260409020548314614211576141bb84613bb2565b6001600160a01b0384166000818152601a602052604090819020859055517fdeafccd0c0b768b2529f7dcbbe58e155d6023059150b7490ed4535cc3744b92d906142089086815260200190565b60405180910390a25b6001600160a01b03841660009081526019602052604090205482146106225760006040518060200160405280866001600160a01b031663aa5af0fd6040518163ffffffff1660e01b8152600401602060405180830381865afa15801561427b573d6000803e3d6000fd5b505050506040513d601f19601f8201168201806040525081019061429f919061507d565b905290506142ad85826134e8565b6001600160a01b03851660008181526019602052604090819020859055517f20af8e791cc98f74b2d7a391c80980ca8e5aebf3d4060bf581997b6acae2e537906142fa9086815260200190565b60405180910390a25050505050565b6001600160a01b03831660009081526009602052604081205460ff166143305760096117da565b6001600160a01b038085166000908152600960209081526040808320938716835260029093019052205460ff166143685760006117da565b6000806143788587866000613884565b9193509091506000905082601181111561439457614394615096565b146143b4578160118111156143ab576143ab615096565b92505050611529565b8015612b255760046143ab565b6001600160a01b0382166000908152600960205260408120805460ff166143ec576009915050611059565b6001600160a01b038316600090815260028201602052604090205460ff1615156001141561441e576000915050611059565b6001600160a01b03838116600081815260028401602090815260408083208054600160ff199091168117909155600883528184208054918201815584529282902090920180546001600160a01b031916948916948517905581519384528301919091527f3ab23ab0d51cccc0c3085aec51f99228625aa1a922b3a8ca89a26b0f2027a1a5910160405180910390a15060009392505050565b6040805160208101909152600081526040518060200160405280670de0b6b3a76400006144eb86600001518660000151613f79565b6144f59190615162565b90529392505050565b60408051602081019091526000815260405180602001604052806144f56145318660000151670de0b6b3a7640000613f79565b8551614716565b60007f45b96fe442630264581b197e84bbada861235052c5a1aadfff9ea4e40a969aa084601181111561456d5761456d615096565b84601381111561457f5761457f615096565b604080519283526020830191909152810184905260600160405180910390a18360118111156112f6576112f6615096565b60008164010000000084106145d85760405162461bcd60e51b8152600401610cdd9190615184565b509192915050565b60006115296145f784670de0b6b3a7640000613f79565b8351614716565b60408051602081019091526000815260405180602001604052806144f5614633866a0c097ce7bc90715b34b9f160241b613f79565b85614716565b60408051602081019091526000815260405180602001604052806144f5856000015185600001516134d0565b600081600160e01b84106145d85760405162461bcd60e51b8152600401610cdd9190615184565b60006a0c097ce7bc90715b34b9f160241b6146ab848460000151613f79565b6115299190615162565b6000806146c285856146d6565b9050611cbb6146d0826146fe565b846134d0565b60408051602081019091526000815260405180602001604052806144f5856000015185613f79565b805160009061105990670de0b6b3a764000090615162565b60006115298284615162565b60405180610140016040528060008152602001600081526020016000815260200160008152602001600081526020016000815260200161476e6040518060200160405280600081525090565b81526020016147896040518060200160405280600081525090565b81526020016147a46040518060200160405280600081525090565b81526020016147bf6040518060200160405280600081525090565b905290565b60008083601f8401126147d657600080fd5b50813567ffffffffffffffff8111156147ee57600080fd5b6020830191508360208260051b850101111561480957600080fd5b9250929050565b6000806000806040858703121561482657600080fd5b843567ffffffffffffffff8082111561483e57600080fd5b61484a888389016147c4565b9096509450602087013591508082111561486357600080fd5b50614870878288016147c4565b95989497509550505050565b6001600160a01b038116811461123d57600080fd5b801515811461123d57600080fd5b600080604083850312156148b257600080fd5b82356148bd8161487c565b915060208301356148cd81614891565b809150509250929050565b634e487b7160e01b600052604160045260246000fd5b604051601f8201601f1916810167ffffffffffffffff81118282101715614917576149176148d8565b604052919050565b600067ffffffffffffffff821115614939576149396148d8565b5060051b60200190565b600082601f83011261495457600080fd5b813560206149696149648361491f565b6148ee565b82815260059290921b8401810191818101908684111561498857600080fd5b8286015b848110156149ac57803561499f8161487c565b835291830191830161498c565b509695505050505050565b600080604083850312156149ca57600080fd5b82356149d58161487c565b9150602083013567ffffffffffffffff8111156149f157600080fd5b6149fd85828601614943565b9150509250929050565b600060208284031215614a1957600080fd5b81356115298161487c565b600080600080600060a08688031215614a3c57600080fd5b8535614a478161487c565b94506020860135614a578161487c565b93506040860135614a678161487c565b94979396509394606081013594506080013592915050565b60008060008060808587031215614a9557600080fd5b8435614aa08161487c565b93506020850135614ab08161487c565b92506040850135614ac08161487c565b9396929550929360600135925050565b60008060408385031215614ae357600080fd5b8235614aee8161487c565b946020939093013593505050565b600060208284031215614b0e57600080fd5b813561152981614891565b600060208284031215614b2b57600080fd5b5035919050565b60008060008060808587031215614b4857600080fd5b8435614b538161487c565b93506020850135614b638161487c565b93969395505050506040820135916060013590565b60008060008060008060c08789031215614b9157600080fd5b8635614b9c8161487c565b95506020870135614bac8161487c565b94506040870135614bbc8161487c565b93506060870135614bcc8161487c565b9598949750929560808101359460a0909101359350915050565b600080600060608486031215614bfb57600080fd5b8335614c068161487c565b92506020840135614c168161487c565b929592945050506040919091013590565b600080600080600060a08688031215614c3f57600080fd5b8535614c4a8161487c565b94506020860135614c5a8161487c565b93506040860135614c6a8161487c565b92506060860135614c7a8161487c565b949793965091946080013592915050565b600082601f830112614c9c57600080fd5b81356020614cac6149648361491f565b82815260059290921b84018101918181019086841115614ccb57600080fd5b8286015b848110156149ac578035614ce28161487c565b8352918301918301614ccf565b60008060008060808587031215614d0557600080fd5b843567ffffffffffffffff80821115614d1d57600080fd5b614d2988838901614c8b565b95506020870135915080821115614d3f57600080fd5b50614d4c87828801614943565b9350506040850135614d5d81614891565b91506060850135614d6d81614891565b939692955090935050565b60008060408385031215614d8b57600080fd5b8235614d968161487c565b915060208301356148cd8161487c565b600082601f830112614db757600080fd5b81356020614dc76149648361491f565b82815260059290921b84018101918181019086841115614de657600080fd5b8286015b848110156149ac5780358352918301918301614dea565b600080600060608486031215614e1657600080fd5b833567ffffffffffffffff80821115614e2e57600080fd5b614e3a87838801614943565b94506020860135915080821115614e5057600080fd5b614e5c87838801614da6565b93506040860135915080821115614e7257600080fd5b50614e7f86828701614da6565b9150509250925092565b6020808252825182820181905260009190848201906040850190845b81811015614eca5783516001600160a01b031683529284019291840191600101614ea5565b50909695505050505050565b600060208284031215614ee857600080fd5b813567ffffffffffffffff811115614eff57600080fd5b6112f684828501614c8b565b6020808252825182820181905260009190848201906040850190845b81811015614eca57835183529284019291840191600101614f27565b634e487b7160e01b600052603260045260246000fd5b634e487b7160e01b600052601160045260246000fd5b600082821015614f8157614f81614f59565b500390565b6000600019821415614f9a57614f9a614f59565b5060010190565b60208082526028908201527f63616e6e6f742070617573652061206d61726b65742074686174206973206e6f6040820152671d081b1a5cdd195960c21b606082015260800190565b60208082526027908201527f6f6e6c7920706175736520677561726469616e20616e642061646d696e2063616040820152666e20706175736560c81b606082015260800190565b6020808252601690820152756f6e6c792061646d696e2063616e20756e706175736560501b604082015260600190565b60006020828403121561507257600080fd5b81516115298161487c565b60006020828403121561508f57600080fd5b5051919050565b634e487b7160e01b600052602160045260246000fd5b6000602082840312156150be57600080fd5b815161152981614891565b634e487b7160e01b600052600160045260246000fd5b600080600080608085870312156150f557600080fd5b505082516020840151604085015160609095015191969095509092509050565b634e487b7160e01b600052603160045260246000fd5b6000821982111561513e5761513e614f59565b500190565b600081600019048311821515161561515d5761515d614f59565b500290565b60008261517f57634e487b7160e01b600052601260045260246000fd5b500490565b600060208083528351808285015260005b818110156151b157858101830151858201604001528201615195565b818111156151c3576000604083870101525b50601f01601f191692909201604001939250505056fea264697066735822122089d8be3c29b808eff9493dfc9a6115c2bcfee694c1665aa5a2cbba0a7ea55bd464736f6c634300080a0033","linkReferences":{}},"methodIdentifiers":{"_become(address)":"1d504dc6","_borrowGuardianPaused()":"e6653f3d","_grantComp(address,uint256)":"27efe3cb","_mintGuardianPaused()":"3c94786f","_setBorrowCapGuardian(address)":"391957d7","_setBorrowPaused(address,bool)":"18c882a5","_setCloseFactor(uint256)":"317b0b77","_setCollateralFactor(address,uint256)":"e4028eee","_setCompSpeeds(address[],uint256[],uint256[])":"a8b43948","_setContributorCompSpeed(address,uint256)":"598ee1cb","_setLiquidationIncentive(uint256)":"4fd42e17","_setMarketBorrowCaps(address[],uint256[])":"607ef6c1","_setMintPaused(address,bool)":"3bcf7ec1","_setPauseGuardian(address)":"5f5af1aa","_setPriceOracle(address)":"55ee1fe1","_setSeizePaused(bool)":"2d70db78","_setTransferPaused(bool)":"8ebf6364","_supportMarket(address)":"a76b3fda","accountAssets(address,uint256)":"dce15449","admin()":"f851a440","allMarkets(uint256)":"52d84d1e","borrowAllowed(address,address,uint256)":"da3d454c","borrowCapGuardian()":"21af4569","borrowCaps(address)":"4a584432","borrowGuardianPaused(address)":"6d154ea5","borrowVerify(address,address,uint256)":"5c778605","checkMembership(address,address)":"929fe9a1","claimComp(address)":"e9af0292","claimComp(address,address[])":"1c3db2e0","claimComp(address[],address[],bool,bool)":"6810dfa6","closeFactorMantissa()":"e8755446","compAccrued(address)":"cc7ebdc4","compBorrowSpeeds(address)":"f4a433c0","compBorrowState(address)":"8c57804e","compBorrowerIndex(address,address)":"ca0af043","compContributorSpeeds(address)":"986ab838","compInitialIndex()":"a7f0e231","compRate()":"aa900754","compReceivable(address)":"85b7beb8","compSpeeds(address)":"1d7b33d7","compSupplierIndex(address,address)":"b21be7fd","compSupplySpeeds(address)":"6aa875b5","compSupplyState(address)":"6b79c38d","comptrollerImplementation()":"bb82aa5e","enterMarkets(address[])":"c2998238","exitMarket(address)":"ede4edd0","fixBadAccruals(address[],uint256[])":"16b95e8f","getAccountLiquidity(address)":"5ec88c79","getAllMarkets()":"b0772d0b","getAssetsIn(address)":"abfceffc","getBlockNumber()":"42cbb15c","getCompAddress()":"9d1b5a0a","getHypotheticalAccountLiquidity(address,address,uint256,uint256)":"4e79238f","isComptroller()":"007e3dd2","isDeprecated(address)":"94543c15","lastContributorBlock(address)":"bea6b8b8","liquidateBorrowAllowed(address,address,address,address,uint256)":"5fc7e71e","liquidateBorrowVerify(address,address,address,address,uint256,uint256)":"47ef3b3b","liquidateCalculateSeizeTokens(address,address,uint256)":"c488847b","liquidationIncentiveMantissa()":"4ada90af","markets(address)":"8e8f294b","maxAssets()":"94b2294b","mintAllowed(address,address,uint256)":"4ef4c3e1","mintGuardianPaused(address)":"731f0c2b","mintVerify(address,address,uint256,uint256)":"41c728b9","oracle()":"7dc0d1d0","pauseGuardian()":"24a3d622","pendingAdmin()":"26782247","pendingComptrollerImplementation()":"dcfbc0c7","proposal65FixExecuted()":"f00a7a92","redeemAllowed(address,address,uint256)":"eabe7d91","redeemVerify(address,address,uint256,uint256)":"51dff989","repayBorrowAllowed(address,address,address,uint256)":"24008a62","repayBorrowVerify(address,address,address,uint256,uint256)":"1ededc91","seizeAllowed(address,address,address,address,uint256)":"d02f7351","seizeGuardianPaused()":"ac0b0bb7","seizeVerify(address,address,address,address,uint256)":"6d35bf91","transferAllowed(address,address,address,uint256)":"bdcdc258","transferGuardianPaused()":"87f76303","transferVerify(address,address,address,uint256)":"6a56947e","updateContributorRewards(address)":"741b2525"},"id":9}